:100000000C9449110C9473110C9473110C9473118A
:100010000C9473110C9473110C9473110C94731150
:100020000C9473110C9473110C94AFB80C942CB9FC
:100030000C9473110C9473110C9473110C94731130
:100040000C9473110C9419660C9473110C94731125
:100050000C9473110C9473110C94757D0C940EB860
:100060000C9473110C9473110C9473110C94731100
:100070000C9473110C9473110C9473110C947311F0
:100080000C9473110C9473110C9473110C947311E0
:100090000C945DAD0C9473119DB5C9B5EBB5EBB582
:1000A000EBB5EBB5EBB5EBB5EBB5EBB5EBB5EBB550
:1000B000EBB5EBB5E1B5D9B5D1B5EBB5EBB5EBB576
:1000C000EBB5EBB5EBB5EBB5C3B5A9B5B1B5BBB504
:1000D0004E414E494E495459494E46CDCCCC3D0A2D
:1000E000D7233C17B7D13877CC2B329595E6241F10
:1000F000B14F0A000020410000C84200401C4620C9
:10010000BCBE4CCA1B0E5AAEC59D742020506C61FB
:100110006E6E657242756666657242797465733A91
:1001200020002046726565204D656D6F72793A201A
:1001300000436F6D70696C65643A204E6F762032B3
:100140003120323031380A00207C20417574686FCC
:10015000723A202844722E5068696C3344290A0090
:10016000323031382D30382D303100204C617374ED
:1001700020557064617465643A2000312E312E3947
:100180000A004D61726C696E0020536F667477616E
:1001900072652052657365740A0020576174636844
:1001A000646F672052657365740A002042726F772E
:1001B0006E206F75742052657365740A002045784F
:1001C0007465726E616C2052657365740A00506FBD
:1001D00077657255700A0073746172740A00507208
:1001E000696E7465722068616C7465642E206B6939
:1001F0006C6C28292063616C6C6564210A004B4992
:100200004C4C45442E20004B494C4C206361757387
:10021000656420627920746F6F206D756368206952
:100220006E6163746976652074696D65202D206345
:10023000757272656E7420636F6D6D616E643A20C5
:100240000020746F6F206C6F6E6720657874727514
:1002500073696F6E2070726576656E7465640A00EE
:1002600020636F6C6420657874727573696F6E209B
:1002700070726576656E7465640A006F6B00526516
:1002800073656E643A2000416476616E6365204B4D
:100290003D003F4B2076616C7565206F7574206F53
:1002A000662072616E67652028302D3130292E0A54
:1002B00000454550524F4D204F4B0A004E6F206372
:1002C000617365206C696768740A0043290A0061DC
:1002D000626C656420286D696E2074656D70200005
:1002E000436F6C6420657874727564657320617205
:1002F000652000496E76616C69642065787472755A
:100300006465720A0020643A0020693A0020703A5D
:100310000020466C6F773A2000205A002059005880
:100320000020204D61783A2000205A0020590058C2
:100330000020204D696E3A20004F6666004F6E2007
:1003400000536F667420656E6473746F70733A2027
:10035000004F666673657473206170706C696564C4
:10036000004572723A20546F6F206661722100540A
:100370006F6F206661722066726F6D2072656665B0
:1003800072656E636520706F696E740A0020540098
:10039000205200416363656C65726174696F6E3AE7
:1003A0002050004D31343520533C696E6465783EF1
:1003B000206F7574206F662072616E67652028302B
:1003C0002D31290A002F2F20003A004361703A0096
:1003D000544845524D414C5F50524F544543544947
:1003E0004F4E004155544F5245504F52545F534465
:1003F0005F53544154555300454D455247454E4374
:10040000595F50415253455200434153455F4C4957
:100410004748545F4252494748544E45535300544D
:100420004F47474C455F4C494748545300534F464C
:1004300054574152455F504F574552004255494C21
:10044000445F50455243454E54004C4556454C4937
:100450004E475F44415441005A5F50524F4245005D
:100460004155544F4C4556454C005052494E545FEF
:100470004A4F420050524F47524553530041555442
:100480004F5245504F52545F54454D5000564F4CBB
:10049000554D455452494300454550524F4D005328
:1004A000455249414C5F584F4E5F584F46460046B3
:1004B00049524D574152455F4E414D453A4D61724B
:1004C0006C696E20312E312E392028476974687589
:1004D000622920534F555243455F434F44455F5572
:1004E000524C3A68747470733A2F2F676974687548
:1004F000622E636F6D2F4D61726C696E4669726D0D
:10050000776172652F4D61726C696E2050524F5445
:100510004F434F4C5F56455253494F4E3A312E3060
:10052000204D414348494E455F545950453A334464
:10053000205072696E746572204558545255444576
:10054000525F434F554E543A3120555549443A3441
:10055000306365363164312D326564302D34353386
:10056000302D383330342D3535653365656161653F
:100570006266660A003344205072696E74657220A8
:100580004F66662E0020573A0042656420636F6F05
:100590006C696E672E2E2E0042656420686561745A
:1005A000696E672E2E2E0020573A004520436F6F4C
:1005B0006C696E672E2E2E00452048656174696E49
:1005C000672E2E2E006F6B004D3131332053004BC0
:1005D000494C4C45442E20004543484F00494E4667
:1005E0004F004552524F52530044525952554E00FB
:1005F000434F4D4D554E49434154494F4E006F6650
:100600006600D805DD05E205E905F00544454255DB
:10061000473A0050726F7465637465642050696E68
:100620000A0000011C1D132FFFFFFFFF1E1F1218E1
:10063000FFFFFFFF20211124FFFFFFFFFFFFFF0E41
:1006400010FFFFFF22230DFFFFFF0E260F2C272593
:1006500069730025696D2025697300256968202567
:10066000696D202569730025696420256968202546
:10067000696D202569730025697920256964202525
:1006800069682025696D20256973005072696E7450
:100690002074696D653A20004E6F206D6F76652E6F
:1006A00000436C69636B20746F20726573756D65B0
:1006B0002E2E2E00536C6565702E2E2E00496E7600
:1006C000616C69642065787472756465720A0041B2
:1006D00063746976652045787472756465723A2032
:1006E0000020453A00205A3A0020593A00583A0072
:1006F0002C20002C20005761726E696E673A2048EA
:100700006F6D696E672042756D70204469766973FC
:100710006F72203C20310A00020204627573793A3C
:100720002070617573656420666F7220696E7075E4
:10073000740A00627573793A20706175736564207C
:10074000666F7220757365720A00627573793A205C
:1007500070726F63657373696E670A00486F6D65C9
:1007600020257325732573206669727374002066D3
:10077000697273740A005A0059005800486F6D6519
:10078000200020496E76616C69642065787472750A
:1007900064657220004B494C4C45442E2000535454
:1007A0004F505045442E20005072696E746572207F
:1007B00073746F707065642064756520746F206554
:1007C00072726F72732E2046697820746865206596
:1007D00072726F7220616E6420757365204D3939B5
:1007E0003920746F20726573746172742E202854DE
:1007F000656D7065726174757265206973207265CC
:100800007365742E20536574206974206166746565
:10081000722072657374617274696E67290A004E82
:100820006F20436865636B73756D2077697468200A
:100830006C696E65206E756D6265722C204C6173FB
:1008400074204C696E653A2000636865636B73754C
:100850006D206D69736D617463682C204C617374D5
:10086000204C696E653A20004C696E65204E756DAE
:10087000626572206973206E6F74204C61737420FE
:100880004C696E65204E756D6265722B312C204C63
:10089000617374204C696E653A20004D313130002F
:1008A000656E7175657565696E67202200FFFFFFD3
:1008B0000000A04000000000000000000000AA436B
:1008C0000000AA43F023744900000000000000006B
:1008D000000000000000AA430000AA43F02374496E
:1008E000000000000000000000000000000048427E
:1008F00000004842000080400000000020286D6D8C
:10090000290020204D393030204B004C696E656144
:100910007220416476616E63653A0A0020440020CB
:10092000490020204D33303120500050494420737D
:10093000657474696E67733A0A00204600204200AD
:1009400020480020204D3134352053004D6174651E
:100950007269616C20686561747570207061726184
:100960006D65746572733A0A00205A0020590020A0
:10097000204D323036205800486F6D65206F666616
:100980007365743A0A00204500205A00205900205F
:10099000580020540020530020204D323035205183
:1009A0000020453C6D61785F655F6A65726B3E0053
:1009B00020583C6D61785F785F6A65726B3E2059A4
:1009C0003C6D61785F795F6A65726B3E205A3C6D61
:1009D00061785F7A5F6A65726B3E00416476616E32
:1009E0006365643A20513C6D696E5F7365676D6540
:1009F0006E745F74696D655F75733E20533C6D69FD
:100A00006E5F66656564726174653E20543C6D6915
:100A10006E5F74726176656C5F6665656472617441
:100A2000653E0020540020520020204D32303420FA
:100A30005000416363656C65726174696F6E202854
:100A4000756E6974732F7332293A20503C70726945
:100A50006E745F616363656C3E20523C72657472B4
:100A60006163745F616363656C3E20543C747261C2
:100A700076656C5F616363656C3E0A00204500200B
:100A80005A0020590020204D3230312058004D614D
:100A900078696D756D20416363656C657261746919
:100AA0006F6E2028756E6974732F7332293A0A00AD
:100AB000204500205A0020590020204D323033209C
:100AC00058004D6178696D756D2066656564726169
:100AD0007465732028756E6974732F73293A0A0040
:100AE000204500205A0020590020204D393220583E
:100AF0000053746570732070657220756E69743A66
:100B00000A0020204D3230302044300A0020204D91
:100B10003230302044002044697361626C65640A9D
:100B20000046696C616D656E742073657474696EDE
:100B300067733A0020204D3134392043203B205543
:100B40006E69747320696E2043656C736975730AEE
:100B5000002020473231202020203B004861726471
:100B6000636F6465642044656661756C74205365C9
:100B70007474696E6773204C6F616465640A00F475
:100B8000010000F4010000F4010000102700000043
:100B9000001643000016430000F04100000C420024
:100BA00000A0420000A042000098420000F242294A
:100BB0000A002062797465733B2063726320002011
:100BC00073746F7265642073657474696E677320E3
:100BD00072657472696576656420280020286361F7
:100BE0006C63756C6174656429210A0020213D20C5
:100BF00000454550524F4D20435243206D69736D5F
:100C000061746368202D202873746F7265642920D5
:100C1000002053697A653A2000496E6465783A206D
:100C200000204D61726C696E3D563535290A0028E9
:100C3000454550524F4D3D00454550524F4D207651
:100C4000657273696F6E206D69736D61746368207E
:100C500000290A002062797465733B206372632067
:100C60000053657474696E67732053746F726564A2
:100C7000202800454550524F4D20646174617369CE
:100C80007A65206572726F722E0A004572726F72F9
:100C90002077726974696E6720746F2045455052E1
:100CA0004F4D210A006F70656E0054524947474509
:100CB000524544003A20007A5F6D696E00795F6D9D
:100CC000696E00785F6D696E005265706F7274694D
:100CD0006E6720656E6473746F70207374617475D1
:100CE000730A00456E6473746F707320256320254A
:100CF0006320256320256300205A3A0020593A00DA
:100D000020583A00656E6473746F7073206869745C
:100D10003A2000486F6D696E67206661696C656492
:100D200000556E6B6E6F776E20636F6D6D616E64D4
:100D30003A20220020746F6F206C6F6E67206578F8
:100D400074727573696F6E2070726576656E746506
:100D5000640A0020636F6C6420657874727573692F
:100D60006F6E2070726576656E7465640A00FFFDB3
:100D7000FCFAF8F6F4F2F0EEECEAE9E7E5E3E1E09C
:100D8000DEDCDAD9D7D5D4D2D0CFCDCBCAC8C7C54F
:100D9000C3C2C0BFBDBCBAB9B7B6B4B3B2B0AFADD1
:100DA000ACAAA9A8A6A5A4A2A1A09E9D9C9A999828
:100DB0009795949392908F8E8D8B8A89888786845D
:100DC000838281807F7E7D7B7A7978777675747374
:100DD0007271706F6E6D6C6B6A696867666564636B
:100DE0006261605F5E5D5C5B5A5958585756555456
:100DF00053525150504F4E4D4C4B4A4A494847462A
:100E000046454443424241403F3E3E3D3C3B3B3AE7
:100E100039383837363535343332323130302F2E99
:100E20002E2D2C2B2B2A292928272726252524233C
:100E30002322212120201F1E1E1D1C1C1B1B1A19D2
:100E4000191818171616151514131312121111105C
:100E50000F0F0E0E0D0D0C0C0B0A0A0909080807DE
:100E60000706060505040403030202010000000052
:100E700000010000000100008000555555000000F1
:100E8000400033333300AAAA2A004992240000000C
:100E90002000C7711C0099991900D14517005555BC
:100EA00015003BB11300244912001111110000007C
:100EB00010000F0F0F00E3380E0043790D00CCCC6B
:100EC0000C00C3300C00E8A20B0064210B00AAAA9E
:100ED0000A00703D0A009DD80900427B0900922457
:100EE0000900DCD3080088880800104208000000D0
:100EF0000800F0C107008787070075500700711CC4
:100F000007003EEB0600A1BC06006990060066667D
:100F10000600703E06006118060017F4050074D143
:100F200005005BB00500B2900500627205005555E2
:100F3000050078390500B81E0500050505004EECD2
:100F4000040087D40400A1BD040090A704004992C6
:100F50000400C17D0400EE690400C7560400444447
:100F600004005C3204000821040041100400000069
:100F700004003FF00300F8E0030026D20300C3C3DF
:100F80000300CCB503003AA803000A9B0300388E87
:100F90000300C08103009F750300D0690300505E09
:100FA00003001D53030034480300913D0300333315
:100FB000030016290300381F030097150300300CA7
:100FC0000300030303000BFA020049F10200BAE830
:100FD00002005CE002002DD802002DD0020059C8AA
:100FE0000200B0C0020031B90200DAB10200AAAAC0
:100FF0000200A0A30200BC9C0200FA9502005C8FD4
:101000000200DF88020082820200457C020027760F
:10101000020027700200436A02007C640200D05E76
:1010200002003F590200C85302006563686F3A002E
:101030004572726F723A00205A3A0020593A0020E5
:10104000436F756E7420583A00232C0000B82200BC
:1010500000561800003A0F0000B8080000B1040064
:1010600000710200003E01000024F4D43050C38E11
:1010700020C2A24017828B7011127A910D816CD917
:101080000AA861E108C7586607615143061E4B5D17
:1010900005C145A7041A411104093D98037139316E
:1010A000034036DB0265339102D4305402802E1D9A
:1010B00002632CEE01752AC501B028A0011027811A
:1010C000018F2564012B244B01E0223401AC211F48
:1010D000018D200D01801FFC00841EED00971DDF97
:1010E00000B81CD200E61BC600201BBC00641AB26C
:1010F00000B219A8000A19A0006A189900D1179126
:101100000040178B00B516840031167E00B31579A8
:10111000003A157300C7146F0058146A00EE136686
:10112000008813630025135E00C7125B006C125722
:101130000015125400C111510070114F0021114BC4
:1011400000D61049008D104700461044000210429E
:1011500000C00F4000800F3E00420F3C00060F3BD6
:1011600000CB0E3800930E37005C0E3500270E348E
:1011700000F30D3200C10D3100900D3000600D2ED6
:1011800000320D2D00050D2C00D90C2B00AE0C29C2
:1011900000850C29005C0C2700350C27000E0C265E
:1011A00000E80B2400C40B2400A00B23007D0B23BC
:1011B000005A0B2100390B2100180B2000F80A1FE0
:1011C00000D90A1E00BB0A1E009D0A1D00800A1DD0
:1011D00000630A1C00470A1B002C0A1B00110A1A94
:1011E00000F7091A00DD091900C4091900AB091933
:1011F00000920917007B091800630917004C0916B3
:101200000036091600200916000A091500F5081510
:1012100000E0081400CC081400B8081400A4081456
:1012200000900813007D0812006B08130058081284
:10123000004608120034081100230811001208119A
:101240000001081100F0071000E0071000D007109F
:1012500000C0071000B0070F00A107100091070E93
:101260000083070F0074070F0065070E0057070E75
:101270000049070E003B070D002E070E0020070D4A
:101280000013070D0006070D00F9060C00ED060D12
:1012900000E0060C00D4060C00C8060C00BC060CCE
:1012A00000B0060C00A4060B0099060C008D060B7E
:1012B0000082060B0077060B006C060B0061060A25
:1012C0000057060B004C060A0042060A0038060AC0
:1012D000002E060A0024060A001A060A0010060953
:1012E0000007060A00FD050900F4050900EB0509E1
:1012F00000E2050900D9050900D0050900C7050964
:1013000000BE050900B5050800AD050800A50509E2
:10131000009C050800940508008C05080084050859
:10132000007C050800740508006C050700650508C9
:10133000005D050700560508004E05070047050734
:10134000004005080038050700310507002A050799
:1013500000230507001C050600160507000F0507FA
:10136000000805060002050700FB040600F5040757
:1013700000EE040600E8040600E2040700DB0406B1
:1013800000D5040600CF040600C9040600C3040605
:1013900000BD040600B7040600B1040500AC040655
:1013A00000A6040600A00405009B040600950405A1
:1013B00000900406008A04050085040500800406E8
:1013C000007A04050075040500700405006B04052F
:1013D0000066040500610405005C0405005704056F
:1013E00000520405004D04050048040500430405AF
:1013F000003E0404003A04050035040500300404EE
:10140000002C04050027040400230405001E040426
:10141000001A04040016040500110404000D04045D
:1014200000090405000404040000040400FC030493
:1014300000F8030400F4030400F0030400EC0304C8
:1014400000E8030400E4030400E0030400DC0304F8
:1014500000D8030400D4030400D0030400CC030428
:1014600000C8030300C503030024F404D9201BC4EF
:101470000C5C0E9804C4095F0265077101F405F95C
:1014800000FB04B30048048700C1036900580355FA
:101490000003034500BE023A008402310053022AD1
:1014A000002902250004022000E4011C00C80119E3
:1014B00000AF01170098011400840113007101109E
:1014C000006101100051010E0043010D0036010BB7
:1014D000002B010B0020010B00150109000C010974
:1014E0000003010800FB000800F3000800EB000700
:1014F00000E4000600DE000600D8000600D2000668
:1015000000CC000500C7000500C2000500BD0004B6
:1015100000B9000400B5000400B1000400AD0004EF
:1015200000A9000400A5000300A20003009F00041E
:10153000009B000300980003009500020093000345
:1015400000900003008D0002008B00030088000261
:10155000008600020084000300810002007F000278
:10156000007D0002007B000200790002007700018C
:101570000076000200740002007200010071000297
:10158000006F0002006D0001006C0002006A0001A3
:1015900000690002006700010066000100650001AB
:1015A00000640002006200010061000100600001AF
:1015B000005F0002005D0001005C0001005B0001B3
:1015C000005A0001005900010058000100570001B5
:1015D00000560001005500010054000100530000B6
:1015E00000530001005200010051000100500001B1
:1015F000004F0001004E0000004E0001004D0001B0
:10160000004C0001004B0000004B0001004A0001AB
:1016100000490001004800000048000100470001A7
:1016200000460000004600010045000000450001A2
:10163000004400010043000000430001004200009C
:101640000042000100410000004100010040000193
:10165000003F0000003F0001003E0000003E00018E
:10166000003D0000003D0001003C0000003C000087
:10167000003C0001003B0000003B0001003A00007C
:10168000003A000100390000003900010038000074
:10169000003800000038000100370000003700016A
:1016A0000036000000360000003600010035000062
:1016B0000035000000350001003400000034000057
:1016C000003400010033000000330000003300014B
:1016D0000032000000320000003200010031000042
:1016E0000031000000310001003000000030000037
:1016F00000300001002F0000002F0000002F00002C
:10170000002F0001002E0000002E0000002E00011E
:10171000002D0000002D0000002D0000002D000114
:10172000002C0000002C0000002C0000002C000108
:10173000002B0000002B0000002B0000002B0001FC
:10174000002A0000002A0000002A0000002A0001F0
:1017500000290000002900000029000000290000E5
:1017600000290001002800000028000000280000D7
:1017700000280000002800010027000000270000CA
:1017800000270000002700000027000100260000BD
:1017900000260000002600000026000000260001B0
:1017A00000250000002500000025000000250000A5
:1017B0000025000000250001002400000024000096
:1017C0000024000000240000002400010023000089
:1017D000002300000023000000230000002300007D
:1017E000002300000023000100220000002200006E
:1017F0000022000000220000002200000022000160
:101800000021000000210000002100000021000054
:101810000021000000210000002100010020000044
:101820000020000000200000002000000020000038
:10183000002000000020000000200001001F000028
:10184000001F0000001F0000001F0000001F00001C
:10185000001F0000001F0001001E0000001E00000D
:10186000001E0000001E000000290A002028002998
:1018700020453A0020280029205A3A002028002933
:1018800020593A0020280020583A0053746570709F
:1018900065722063757272656E742076616C756511
:1018A0007320696E20252028416D7073293A0A0043
:1018B0002042403A0020403A00202F0054686572D0
:1018C0006D616C2052756E617761790045312054ED
:1018D0004845524D414C2052554E415741590042C6
:1018E000454420544845524D414C2052554E415795
:1018F0004159004B494C4C45442E2000202D204995
:101900006E76616C696420657874727564657220A6
:101910006E756D62657220210A0048656174696E9A
:1019200067206661696C6564004265642068656172
:1019300074696E67206661696C65640048656174EE
:10194000696E67206661696C656400453120486591
:101950006174696E67206661696C6564004D494E0B
:1019600054454D502074726967676572656400451F
:1019700031204572723A204D494E54454D50004534
:1019800072723A204D494E54454D50204245440014
:101990004D415854454D50207472696767657265B2
:1019A00064004531204572723A204D415854454DEE
:1019B00050004572723A204D415854454D502042D6
:1019C0004544006265640A002C2073797374656D68
:1019D0002073746F7070656421204865617465724E
:1019E0005F49443A20002CFFFFFFFFFF0001010187
:1019F000010123646566696E652044454641554C86
:101A0000545F4B64200023646566696E652044451D
:101A10004641554C545F4B69200023646566696EEE
:101A2000652044454641554C545F4B702000504959
:101A300044204175746F74756E652066696E6973B4
:101A4000686564212050757420746865206C61732A
:101A500074204B702C204B6920616E64204B6420F5
:101A6000636F6E7374616E74732066726F6D206243
:101A7000656C6F7720696E746F20436F6E6669675F
:101A800075726174696F6E2E680A00504944204176
:101A900075746F74756E65206661696C656421206C
:101AA00074696D656F75740A00546865726D616C58
:101AB0002052756E61776179004531205448455256
:101AC0004D414C2052554E41574159004865617473
:101AD000696E67206661696C656400453120486500
:101AE0006174696E67206661696C65640050494481
:101AF000204175746F74756E65206661696C6564EC
:101B0000212054656D706572617475726520746F03
:101B10006F20686967680A00204B643A2000204BF8
:101B2000693A2000204B703A20000A20436C617310
:101B300073696320504944200A002054753A2000FC
:101B4000204B753A2000206D61783A2000206D69A5
:101B50006E3A200020643A200020626961733A20C6
:101B600000504944204175746F74756E652073741C
:101B70006172740A00504944204175746F74756E27
:101B800065206661696C6564212042616420657826
:101B9000747275646572206E756D6265720A0010EC
:101BA00000C90210012C014001220170011801B08E
:101BB000010E01F00104015002FA00B002F0003001
:101BC00003E600D003DC009004D2007005C800A03A
:101BD00006BE000008B400B009AA00D00BA0006047
:101BE0000E960060118C000015820020197800C04C
:101BF0001D6E00A0226400B0275A00902C500000F7
:101C0000314600E0343C0010383200903A28006041
:101C10003C1E00A03D1400803E0A00203F000070E2
:101C2000012C0190012701B0012201C0011D01F02A
:101C30000118011002130130020E01600209019027
:101C4000020401C002FF000003FA004003F5008017
:101C500003F000D003EB002004E6007004E100E094
:101C600004DC004005D700C005D2004006CD00D0FE
:101C700006C8008007C3003008BE00F008B900C0E5
:101C800009B400B00AAF00B00BAA00D00CA5000048
:101C90000EA000500F9B00C0109600501291000043
:101CA000148C00C0158700B0178200B0197D00D0D9
:101CB0001B7800001E730040206E0090226900F027
:101CC00024640040275F0090295A00E02B55001043
:101CD0002E500020304B0010324600E0334100907F
:101CE000353C001037370070383200A0392D00B075
:101CF0003A2800A03B2300603C1E00103D190090D4
:101D00003D1400103E0F00703E0A00C03E0500006A
:101D10003F0000403FFBFF803FF6FFC03FF1FF4622
:101D2000696C2E204469612E0046696C2E2044693E
:101D3000612E004520696E206D6D33004F66660090
:101D40004F6E2000416476616E6365204B004164F4
:101D500076616E6365204B00436F6E74726F6C002A
:101D6000436F6E74726F6C005049442D44005049AB
:101D7000442D44005049442D49005049442D490008
:101D80005049442D50005049442D50002002204617
:101D90006163740020022046616374002002204DBC
:101DA0006178002002204D6178002002204D696E8C
:101DB000002002204D696E004175746F74656D706E
:101DC000004F6666004F6E200046616E207370659E
:101DD00065640046616E20737065656400426564E9
:101DE00000426564004E6F7A7A6C65004E6F7A7AB5
:101DF0006C6500436F6E74726F6C00526573746F24
:101E00007265206661696C73616665004C6F616420
:101E10002073657474696E67730053746F72652004
:101E200073657474696E67730044726976652053D4
:101E30007472656E6774680046696C616D656E7476
:101E4000004D6F74696F6E0054656D7065726174DA
:101E5000757265004D61696E0045787472756465D0
:101E600072004D6F7665205A004D6F7665205900DF
:101E70004D6F766520580050726570617265004D37
:101E80006F766520302E316D6D004D6F7665203197
:101E90006D6D004D6F76652031306D6D004D6F7644
:101EA00065206178697300457874727564657200A5
:101EB0004D6F7665205A004D6F76652059004D6F45
:101EC00076652058004578747275646572004D6FB0
:101ED0007665205A004D6F76652059004D6F766506
:101EE000205800507265686561742041425300506B
:101EF00072656865617420504C4100436F6F6C647B
:101F00006F776E0044697361626C652073746570ED
:101F100070657273004D3834004175746F20686FBE
:101F20006D6500473238004D6F76652061786973C2
:101F3000004D61696E0050726568656174204142B0
:101F400053204265640050726568656174204142A7
:101F50005320456E6400507265686561742041428B
:101F600053005072657061726500507265686561FA
:101F70007420504C41204265640050726568656170
:101F80007420504C4120456E640050726568656154
:101F90007420504C4100507265706172650044417C
:101FA0004320454550524F4D205772697465004596
:101FB0002044726976657220250045204472697656
:101FC00065722025005A20447269766572202500CA
:101FD0005A2044726976657220250059204472693E
:101FE0007665722025005920447269766572202535
:101FF000005820447269766572202500582044728A
:1020000069766572202500436F6E74726F6C0042B2
:1020100061627973746570205A00426162797374E9
:1020200065702059004261627973746570205800B0
:10203000466C6F7700466C6F770046616E20737058
:102040006565640046616E20737065656400426575
:102050006400426564004E6F7A7A6C65004E6F7A58
:102060007A6C650053706565640053706565640043
:102070004D61696E004261627973746570205A0027
:1020800042616279737465702059004261627973AC
:10209000746570205800436F6E74726F6C005072DC
:1020A00065706172650054756E6500496E666F20DB
:1020B00073637265656E003344205072696E746597
:1020C000722052656164792E005072696E74696E77
:1020D000672E2E2E005072696E74207061757365C4
:1020E000640025753A2530327500253032753A2561
:1020F00030327500202020200020202020202000C9
:10210000040E1F041C000000000E1315110E000029
:102110001C10181705060500040A0A0A0A11110EF8
:102120000C12120C00000000001F1511151F0000FA
:10213000506C656173652072657365740050524917
:102140004E5445522048414C54454400012902292F
:10215000042908291029202940298029012C022C32
:102160000126022604260826102620264026802640
:10217000402C802C01230223042308231023202336
:10218000402380230120022004200820102020204A
:1021900040208020102C202C012F022F042F082FEC
:1021A000102F202F402F802F7EFE7EFD7EFB7EF79E
:1021B0007EEF7EDF7EBF7E7F00010000692212007D
:1021C000020000262243000300002222040103092A
:1021D0000408221802030904F0211603030904E28B
:1021E000210C0C03310032003300340035000000B4
:1021F0001603550053004200200053006500720092
:10220000690061006C00000018035400650065005F
:102210006E00730079006400750069006E006F0045
:1022200000000403090409024300020100C032094E
:102230000400000102020100052400100105240130
:102240000001042402060524060001070582030894
:10225000004009040100020A0000000705030240D3
:102260000000070584024000001201000202000085
:1022700020C01683047202010203010001C10201A1
:10228000803601813600A24A7964258E7BAC72BC0F
:10229000AB4A11241FBECFEFD0E2DEBFCDBF12E0AC
:1022A000A0E0B1E0E6E7FFE801E00BBF02C0079065
:1022B0000D92A234B107D9F72EE0A2E4B2E001C03A
:1022C0001D92A53FB207E1F711E1C8E4D1E104C0D6
:1022D0002197FE010E9406BDC334D107C9F70E94B1
:1022E00002B40C94AEC70C9400008CE0ECEAF2E06F
:1022F000A2EAB4E001900D928A95E1F70895FB01FE
:1023000001900020E9F73197AF01461B570BDC0124
:10231000ED91FC910280F381E02D0994CF93DF933E
:102320001F92CDB7DEB76983DC01ED91FC9102808D
:10233000F381E02D41E050E0BE016F5F7F4F0995D2
:102340000F90DF91CF910895FF920F931F93CF933A
:10235000DF93F82E092F162FEBECF3E06491EF01D9
:102360002196662329F087EE9EE0D8DFFE01F6CFA6
:10237000EF2DF02F6491EF012196662329F087EE6F
:102380009EE0CCDFFE01F6CFE9ECF3E06491EF01D3
:102390002196662329F087EE9EE0C0DFFE01F6CF8E
:1023A000412F50E060E070E087EE9EE00E9408B3AD
:1023B0006AE087EE9EE0DF91CF911F910F91FF9031
:1023C000ADCF0FB6F8948091DC0E9091DD0EA09108
:1023D000DE0EB091DF0E0FBE8093BD029093BE0261
:1023E000A093BF02B093C00208954F925F926F9284
:1023F0007F92AF92BF92CF92DF92EF92FF92CF93F4
:10240000DF93EB01FC0160817181828193812CE378
:10241000C22ED12CE12CF12CA70196010E94C8BC40
:10242000B62EA72ECA01B901A70196010E94C8BC09
:102430006B017C01CA01B90128E130E040E050E0C5
:102440000E94C8BC2B013C01C9016DE671E00E94ED
:10245000A1BC61157105D9F0AF92BF92DF92CF9206
:102460005F924F929F938F937F936F9387E796E04E
:102470009F938F93DF93CF930E9494C48DB79EB7A1
:102480000E960FB6F8949EBF0FBE8DBF61C0009729
:10249000C9F0AF92BF92DF92CF925F924F929F931B
:1024A0008F9387E696E09F938F93DF93CF930E945D
:1024B00094C4EDB7FEB73C960FB6F894FEBF0FBEBE
:1024C000EDBF46C04114510461047104B9F0AF92EC
:1024D000BF92DF92CF925F924F928BE596E09F93EF
:1024E0008F93DF93CF930E9494C48DB79EB70A96C3
:1024F0000FB6F8949EBF0FBE8DBF2AC0C114D10481
:10250000E104F104A9F0AF92BF92DF92CF9283E58C
:1025100096E09F938F93DF93CF930E9494C4EDB77F
:10252000FEB738960FB6F894FEBF0FBEEDBF10C0D1
:10253000AF92BF928FE496E09F938F93DF93CF93F8
:102540000E9494C40F900F900F900F900F900F90D7
:10255000DF91CF91FF90EF90DF90CF90BF90AF9041
:102560007F906F905F904F90089581548A3108F06A
:1025700040C0A82FB0E04091F4045091F504609160
:10258000F6047091F70404C07695679557954795C2
:102590008A95D2F740FF2DC0E091FF04F09100052D
:1025A000A652BB4F8C918823E1F0E80FF11D80818A
:1025B00090ED980F9A3080F08E3229F4818180530B
:1025C0008A3078F409C08D3211F08B3251F4818158
:1025D00090ED980F9A3018F49E2F8F2F04C08E32F2
:1025E00051F090E080E09093FB048093FC0481E044
:1025F000089580E00895828180538A3090F7ECCF6F
:10260000B4DF882341F081E02091FB043091FC0489
:10261000232B09F480E008950F931F93CF938091AB
:10262000FB049091FC04009711F1FC018F01C19112
:102630002C2F2F7DA9F0C53411F0C536B9F7F8015C
:10264000108260E070E08091FB049091FC040E9495
:1026500028C0F801C083562F472F382F292F0BC0D1
:1026600060E070E0CF911F910F910C9428C050E072
:1026700040E030E020E0652F742F832F922FCF9120
:102680001F910F9108958091FB049091FC04009795
:1026900031F04AE050E060E070E00C948EC160E000
:1026A00070E0CB0108958091FB049091FC040097A9
:1026B00031F04AE050E060E070E00C94B6C260E0B7
:1026C00070E0CB010895DFDF97FD0AC0DCDF6F3FCC
:1026D00071058105910509F02CF4D5DF862F089549
:1026E00080E008958FEF08958091FB049091FC04A1
:1026F000892B31F0E8DF91E0811103C090E001C047
:1027000091E0892F08952EEA34E04AEA54E066EA1F
:1027100074E082EA94E00C9466622F923F924F92AA
:102720005F926F927F929F92AF92BF92CF92DF9211
:10273000EF92FF920F931F93CF93DF93CDB7DEB746
:1027400028970FB6F894DEBF0FBECDBF2A013B011C
:10275000902EA12E6901082F10E0F801E355F74FE4
:10276000E491BB24B3941E160CF4B12CFF24F39413
:1027700020E030E0A901C301B2010E9448BF181651
:102780000CF0F12C000F111F000F111FC8018E5506
:102790009B4F1C01FC011082118212821382B3DF55
:1027A000F1014082518262827382E090C60220E091
:1027B00030E0A901692D7A2DC6010E94A6BD8111C4
:1027C00008C0F801E451F74F85919591A591B49116
:1027D00003C0892D9A2DD6018D839E83AF83B88740
:1027E00019821A821B821C82CE0101966C018E0115
:1027F0000B5F1F4F2EEA34E04AEA54E066EA74E0C9
:1028000082EA94E00E9484610E946155BF100E9498
:10281000994828960FB6F894DEBF0FBECDBFDF9162
:10282000CF911F910F91FF90EF90DF90CF90BF90CD
:10283000AF909F907F906F905F904F903F902F90C0
:1028400008956EEA74E083E00C944F63CF93DF93B6
:1028500000D0CDB7DEB72091D90E3091DA0ECE017F
:1028600001962115310529F4855F9E409A8389835D
:1028700004C0821B930B9A83898389819A810F906C
:102880000F90DF91CF910895FF920F931F93CF93F5
:10289000DF93FC0120812B3319F1D0918704D430D0
:1028A000F8F4F62EBC01C09185040C2F10E0F0E680
:1028B000CF9FC00111248B5F9C4F0E9465C4F8011B
:1028C000E855FD4FF082CF5FC43018F4C093850403
:1028D00002C010928504DF5FD093870481E001C0BD
:1028E00080E0DF91CF911F910F91FF900895EF92BB
:1028F000FF921F93CF93DF937C0160E0C5DF182F19
:102900008823C9F0EAE2F0E16491EF0121966623A1
:1029100029F087EE9EE002DDFE01F6CFB70180EAE6
:1029200098E00E947D6462E287EE9EE0F7DC6AE058
:1029300087EE9EE0F3DC812FDF91CF911F91FF9016
:10294000EF900895DF92EF92FF920F931F93CF9332
:10295000DF93CDB7DEB76E970FB6F894DEBF0FBE2C
:10296000CDBF60910303709104036115710541F1BE
:102970004DE150E0CE0101967C010E9414C41E8EF0
:10298000F7018F010E191F09D190DD2019F09AE08F
:10299000D912F7CFF701E00FF11F1082C701A7DFAF
:1029A000882371F0DD20A9F00F5F1F4F8091030392
:1029B00090910403080F191F10930403009303035D
:1029C00081E02091030330910403232B29F480E05C
:1029D00003C000E010E0F0CF6E960FB6F894DEBFB3
:1029E0000FBECDBFDF91CF911F910F91FF90EF9060
:1029F000DF9008959093040380930303A3CFEF9295
:102A0000FF920F931F93CF93DF937C0184E5F8DD52
:102A1000D82F882369F157DEC82F18162CF5EAE263
:102A2000F0E164918F010F5F1F4F662329F087EE5D
:102A30009EE074DCF801F5CF6DE487EE9EE06EDC7D
:102A4000A70160E070E020E087EE9EE00E94ACB25B
:102A50006C2FCC0F770B82E897E00E94A5646AE0A8
:102A600087EE9EE05BDC08C08093B802D0E004C033
:102A70008091C6028093B8028D2FDF91CF911F9174
:102A80000F91FF90EF9008950F931F93CF93DF93D3
:102A900094E0899FE00111248E010B521D4FFE012D
:102AA000EF51FD4FDE01A351BD4F2D913D914D9151
:102AB0005C9160817181828193810E942FBDF801B8
:102AC0006083718382839383FE01E052F74F859187
:102AD0009591A591B491FE01E753FD4F80839183B9
:102AE000A283B383FE01EC52F74F85919591A59196
:102AF000B491C95FDE4F88839983AA83BB83DF913A
:102B0000CF911F910F9108954F925F926F927F9294
:102B10008F929F92AF92BF92DF92EF92FF920F93AC
:102B20001F93CF93DF93D82EC82FD0E0FE01E3553B
:102B3000F74F64917E01EE0CFF1CEE0CFF1CF701B9
:102B4000E454F74F4590559065907490062E000C14
:102B5000770B880B990B0E9445BE4B015C0120E06E
:102B600030E040EC5FE3C301B2010E947CBFA501ED
:102B700094010E947CBFAB01BC0100E010E0980111
:102B80008D2DCBDDF701E055F74F2591359145911E
:102B90005491C501B4010E947CBF4B015C0120E04F
:102BA00030E0A9010E94A6BD882309F448C000E0D6
:102BB00010E09801B501A40170588D2DAEDDFE0125
:102BC000E85EF84F4491411119C0EAE2F0E16491E6
:102BD000EF012196662329F087EE9EE09FDBFE0140
:102BE000F6CFE6EFF6E06491EF012196662329F037
:102BF00087EE9EE093DBFE01F6CF4AE0F701E45159
:102C0000F74F4590559065907490642F70E080E088
:102C100090E00E9445BE9B01AC01C301B2010E943D
:102C2000AABD2B013C01A5019401C501B4010E947C
:102C30002FBDAB01BC01930182018D2D6EDD81E0C2
:102C400090E00D2C01C0880F0A94EAF7909190044F
:102C5000982B9093900490919104892B80939104E8
:102C6000F701E351FD4F10821182128213828D2DE4
:102C70000BDFF701E853F74F85919591A591B4913A
:102C8000E701CE55DB4F88839983AA83BB833BDD65
:102C9000F701EE56FB4F88819981AA81BB81808321
:102CA0009183A283B383DF91CF911F910F91FF9006
:102CB000EF90DF90BF90AF909F908F907F906F903C
:102CC0005F904F900895CF92DF92EF920F931F93F2
:102CD000CF93DF9300D000D0CDB7DEB7E090C6022F
:102CE00019821A821B821C82CE0101966C0105E1B9
:102CF00011E02EEA34E04AEA54E066EA74E082EA3F
:102D000094E00E9484610F900F900F900F90DF91DC
:102D1000CF911F910F91EF90DF90CF9008954F9238
:102D20005F926F927F928F929F92AF92BF92CF925B
:102D3000DF92EF92FF920F931F93CF93DF93CDB764
:102D4000DEB72C970FB6F894DEBF0FBECDBF6D83F4
:102D50007E838F83988729873A874B875C874701D3
:102D6000580136018091150190911601A09117012B
:102D7000B091180189839A83AB83BC83D601CD902F
:102D8000DD90ED90FC9020E030E0A901C701B60194
:102D90000E94A6BD811106C0E4EFF8E0C590D59071
:102DA000E590F490A50194016091AA047091AB04A0
:102DB0008091AC049091AD040E94A6BD87FF11C024
:102DC000C0921501D0921601E0921701F0921801FD
:102DD0008092AA049092AB04A092AC04B092AD048D
:102DE00072DFF301408051806280738020E030E028
:102DF000A901C301B2010E94A6BD811107C085E5EA
:102E0000482E542C85E0682E83E4782E40921501DC
:102E10005092160160921701709218018D819E8167
:102E2000AF81B8858093A2049093A304A093A404D7
:102E3000B093A50489859A85AB85BC858093A6044B
:102E40009093A704A093A804B093A9043CDFA50124
:102E500094016091AA047091AB048091AC049091AC
:102E6000AD040E9448BF18168CF4C0921501D09290
:102E70001601E0921701F09218018092AA04909234
:102E8000AB04A092AC04B092AD041DDF0E9461556A
:102E900089819A81AB81BC81809315019093160141
:102EA000A0931701B09318012C960FB6F894DEBFCB
:102EB0000FBECDBFDF91CF911F910F91FF90EF908B
:102EC000DF90CF90BF90AF909F908F907F906F904A
:102ED0005F904F900895CF92DF92EF92FF920F9301
:102EE0001F936B01FC01E080F18002811381E2EA13
:102EF000F4E024813581468157816081718182812E
:102F000093810DDF1F910F91FF90EF90DF90CF9095
:102F100008958091150190911601A0911701B0912B
:102F200018018093FF0290930003A0930103B093D4
:102F3000020380911301909114019093FE028093FB
:102F4000FD0284E690E090931401809313010895AC
:102F50008091FF0290910003A0910103B0910203C0
:102F60008093150190931601A0931701B093180157
:102F70008091FD029091FE029093140180931301C1
:102F80000895EF92FF921F93CF93DF93882329F048
:102F9000D0919104D095D17001C0D0E0662341F06A
:102FA0001091910411FB882780F911E0182701C0C6
:102FB00010E0442341F0C0919104C2FB882780F9BE
:102FC000C1E0C82701C0C0E0D11105C0111103C084
:102FD000CC2309F486C0EAE2F0E164917F018FEF2F
:102FE000E81AF80A662329F087EE9EE097D9F701E0
:102FF000F4CFECE7F7E064917F019FEFE91AF90A5B
:10300000662329F087EE9EE089D9F701F4CFDD230E
:1030100071F0EAE7F7E064917F018FEFE81AF80AB0
:10302000662329F087EE9EE079D9F701F4CF1123CA
:1030300071F0E8E7F7E064917F019FEFE91AF90A80
:10304000662329F087EE9EE069D9F701F4CFC1111C
:1030500003C0EEE6F7E00EC0E6E7F7E064917F011B
:103060008FEFE81AF80A6623A1F387EE9EE056D99F
:10307000F701F4CF64917F019FEFE91AF90A662303
:1030800029F087EE9EE04AD9F701F4CFC11103C0C1
:1030900045EF51E002C04AED51E0111103C025EFA8
:1030A00031E002C02CED31E0D11103C085EF91E099
:1030B00002C08EED91E05F934F933F932F939F93C8
:1030C0008F938CE597E09F938F931F920E94B58B0F
:1030D0008DB79EB709960FB6F8949EBF0FBE8DBFF1
:1030E000C1E08C2FDF91CF911F91FF90EF90089559
:1030F000AF92BF92CF92DF92EF92FF920F931F9306
:10310000CF93DF9386EFA82E81E0B82E92E9E92EC7
:1031100094E0F92E02EA14E025EDC22E22E0D22E30
:10312000C0E0D0E0F50181915F011FDA882319F139
:1031300073DAFE01E750FD4F2081211104C0209178
:10314000C502222341F0F80120813181428153815F
:103150000E942FBD0AC0C330D10539F0F60120818D
:103160003181428153810E942EBDF70160837183BA
:10317000828393830AC0F80180819181A281B38107
:10318000F70180839183A283B3832196F4E0EF0E4D
:10319000F11C0C5F1F4F84E0C80ED11CC430D10558
:1031A00009F0C0CF86E42CDA8823B9F035DA20E0C4
:1031B00030E0A9010E9448BF18167CF42DDA20E007
:1031C00030E040E752E40E94AABD6093150170937D
:1031D00016018093170190931801DF91CF911F91F1
:1031E0000F91FF90EF90DF90CF90BF90AF90089538
:1031F000CF92DF92EF92FF920F931F93CF93DF93C3
:103200000FB6F894C090DC0ED090DD0EE090DE0E8C
:10321000F090DF0E0FBE8091C30281116EC08091CD
:103220000001882309F469C08091A702882309F46A
:1032300064C04091A3025091A4026091A5027091D4
:10324000A60297018601041B150B260B370B37FDD1
:1032500067C0833021F134F481300CF44EC0EAE2CF
:10326000F0E106C0843009F048C0EAE2F0E12FC086
:103270006491EF012196662329F087EE9EE04ED8F7
:10328000FE01F6CFEAE4F7E06491EF0121966623B0
:1032900009F433C087EE9EE041D8FE01F5CFEAE2A3
:1032A000F0E16491EF012196662329F087EE9EE01C
:1032B00035D8FE01F6CFE3E3F7E06491EF01219604
:1032C0006623D9F087EE9EE029D8FE01F6CF6491FF
:1032D000EF012196662329F087EE9EE01FD8FE01BC
:1032E000F6CFEBE1F7E06491EF012196662329F038
:1032F00087EE9EE013D8FE01F6CF2091000130E06A
:10330000A8EEB3E00E940FBDC60ED71EE81EF91E40
:10331000C092A302D092A402E092A502F092A6026B
:10332000DF91CF911F910F91FF90EF90DF90CF90A1
:1033300008950F931F93CF93DF93CDB7DEB76997AF
:103340000FB6F894DEBF0FBECDBF0E94CB746E8B5C
:103350007F8B888F998FBE016F5F7F4FCE0146961E
:1033600044D860E0CE0101960E94448BEAE2F0E18D
:1033700064918F010F5F1F4F662331F087EE9EE04F
:103380000E948E11F801F4CFBE016F5F7F4F8BE872
:1033900096E00E947D646AE087EE9EE00E948E11B6
:1033A00069960FB6F894DEBF0FBECDBFDF91CF9107
:1033B0001F910F910895CF93DF93E0E3F0E16491C3
:1033C000EF012196662331F087EE9EE00E948E1178
:1033D000FE01F5CFE3E1F6E06491EF01219666236B
:1033E00031F087EE9EE00E948E11FE01F5CFDF9155
:1033F000CF91089588E690E002DB811121C0809191
:10340000B20483FD1DC083E5FBD88823B9F004D93D
:103410000E9412BE70935F0D60935E0D80E00E946B
:103420002979FAD820E030E04AEA52E40E94A6BDA9
:10343000181624F00E9474740E94A58B0C944964A1
:103440000895CF93DF9389E690E0D9DA811116C011
:10345000E5ECF5E06491EF012196662331F087EE0B
:103460009EE00E948E11FE01F5CF0E94DF7E6AE091
:1034700087EE9EE0DF91CF910C948E11DF91CF917A
:103480000895CF92DF92EF92FF9283E5B9D8882317
:1034900019F119D98D3308F08CE38093F40C0FB631
:1034A000F894C090DC0ED090DD0EE090DE0EF0902F
:1034B000DF0E0FBE282F30E0A8EEB3E00E940FBD54
:1034C000C60ED71EE81EF91EC092F00CD092F10C69
:1034D000E092F20CF092F30CFF90EF90DF90CF901F
:1034E000089580E58DD8811105C083E589D88823AA
:1034F00049F004C0E8D881110BC0F7CFC4D86F3FA2
:10350000710510F06FEF70E07093C8026093C7020E
:1035100008958091B20483FD12C083E571D8882399
:1035200071F07AD80E9412BE6639710514F066E90E
:1035300070E07093570D6093560D0C947B7908954D
:10354000DF92EF92FF920F931F93CF93DF9383E568
:103550000CD8882349F083E553D8882311F0B3D8D9
:1035600001C080E08093B204EAE2F0E16491EF01EF
:103570002196662331F087EE9EE00E948E11FE01B7
:10358000F5CFECE0F6E06491EF012196662331F08F
:1035900087EE9EE00E948E11FE01F5CF8091B2046D
:1035A0008823A9F182E0E82E86E0F82E00E010E002
:1035B00020E08091B20490E0002E02C0959587959E
:1035C0000A94E2F780FF1AC0DD24D394D20E22239E
:1035D00029F06CE287EE9EE00E948E11F701859142
:1035E0009491FC016491EC012196662331F087EE01
:1035F0009EE00E948E11CE01F4CF2D2D0F5F1F4F44
:10360000F2E0EF0EF11C0530110599F60DC0EEEF5A
:10361000F5E06491EF012196662331F087EE9EE09C
:103620000E948E11FE01F5CF6AE087EE9EE0DF91E9
:10363000CF911F910F91FF90EF90DF900C948E111E
:10364000CF93DF9383E50E940013882349F03BD892
:103650008D3308F08CE380930001DF91CF910895C2
:10366000EAE2F0E16491EF012196662331F087EE02
:103670009EE00E948E11FE01F5CF4091000150E0C6
:1036800060E070E088EC95E00E9403656AE087EEF8
:103690009EE0DF91CF910C948E11CF93DF9383E561
:1036A0000E940013882321F00E944313EB0102C003
:1036B000C0E0D0E0DD27C230D105DCF0E0E3F0E18E
:1036C0006491EF012196662331F087EE9EE00E941F
:1036D0008E11FE01F5CFE3EAF3E06491EF0121964C
:1036E000662309F452C087EE9EE00E948E11FE010F
:1036F000F4CF88E40E9400138823A9F00E944313AA
:103700006A3A71053CF06E3181E078072CF06DE18A
:1037100071E002C06AEA70E0FE01EE0FFF1FE352A3
:10372000F24F7183608386E40E9400138823A9F01E
:103730000E944313FE01EE0FFF1FEB52F24F718305
:1037400060836F3F710519F014F06FEF70E077FF41
:1037500002C060E070E07183608382E40E94001325
:10376000882399F00E9443136530710534F068385E
:1037700071052CF067E870E002C065E070E0CC0FE6
:10378000DD1FC752D24F79836883DF91CF910895AF
:103790004F925F926F927F92AF92BF92CF92DF92E1
:1037A000EF92FF920F931F93CF9386EFA82E81E0A5
:1037B000B82E08E815E0C0E0F50181915F010E9494
:1037C000B512882309F46DC0C33009F063C00E94AC
:1037D0000C136B017C0120E030E040EA51E40E94D0
:1037E000A6BD87FF4EC0A701960160919405709118
:1037F000950580919605909197050E94AABD2B0191
:103800003C019B01AC016091600570916105809164
:103810006205909163050E947CBF60936005709380
:1038200061058093620590936305A3019201609105
:10383000A4057091A5058091A6059091A7050E9409
:103840007CBF6093A4057093A5058093A605909313
:10385000A7056091B8057091B9058091BA0590915E
:10386000BB050E9443BEA30192010E947CBF0E943F
:1038700017BE6093B8057093B9058093BA0590930D
:10388000BB05C0929405D0929505E0929605F09202
:10389000970507C00E940C13F8016083718382832F
:1038A0009383CF5F0C5F1F4FC43009F085CFCF915A
:1038B0001F910F91FF90EF90DF90CF90BF90AF904E
:1038C0007F906F905F904F900C9425640F931F939F
:1038D000CF93DF93C2EAD4E005ED12E0F801208136
:1038E000318142815381688179818A819B810E94E3
:1038F0002FBDAB01BC018DEE96E00E94E264F801A1
:1039000024813581468157816C817D818E819F81A3
:103910000E942FBDAB01BC0189EE96E00E94E264DB
:10392000F8012085318542855385688579858A85AA
:103930009B850E942FBDAB01BC0185EE96E00E94E5
:10394000E2644C855D856E857F8581EE96E00E9400
:10395000E264DF91CF911F910F910C943E728F9290
:103960009F92AF92BF92EF92FF920F931F93CF93CC
:10397000DF9300D000D0CDB7DEB7182F9091900420
:103980009770973079F48FE40E940013882329F010
:103990000E947413882331F091C08FE40E94B51205
:1039A00081118CC00E946155B4DA81E00E94914877
:1039B00011111AC088E50E94B512F82E89E50E94FF
:1039C000B512082F8AE50E94B512E82EF11007C043
:1039D000011111C0811110C0F02E11E00DC00023A3
:1039E00051F0F02E182F08C001E0FF24F394EE24CC
:1039F000E39411E001C010E080E1E2EAF4E0A2E922
:103A0000B4E001900D928A95E1F782E50E940013DF
:103A1000882361F00E940C134B015C0120E030E030
:103A2000A9010E94A6BD882369F106C0812C912CB2
:103A300080EAA82E80E4B82E111104C0F11002C053
:103A4000002379F180929A0490929B04A0929C04A6
:103A5000B0929D042091AA043091AB044091AC0433
:103A60005091AD04C501B4010E9448BF181654F42A
:103A700019821A821B821C82BE016F5F7F4F8AE906
:103A800094E029DA111105C0F11003C0011105C03D
:103A900008C080E039D81123C9F381E035D811116D
:103AA00002C0EE2011F082E02FD80E9483130E9402
:103AB00094484EDA83E080934F0108DF0F900F9017
:103AC0000F900F90DF91CF911F910F91FF90EF908A
:103AD000BF90AF909F908F9008954F925F926F929A
:103AE0007F928F929F92AF92BF92CF92DF92EF928E
:103AF000FF920F931F93CF93DF9386EFC82E81E041
:103B0000D82E9DEEE92E92E0F92E00E010E0C0E004
:103B1000D0E0F60181916F010E940013882309F41F
:103B20004DC00E940C134B015C01C33059F0F801E9
:103B3000EB52FD4F20813181428153810E942EBD85
:103B40004B015C01F801EE55FB4F20813181428130
:103B50005381C501B4010E942EBD2B013C012DEB08
:103B600037E346E855EB0E9448BF87FD0AC02DEBBE
:103B700037E346E855E3C301B2010E94A6BD18161B
:103B8000ECF4C33051F48092AE049092AF04A09252
:103B9000B004B092B104D1E011C0A3019201F701C9
:103BA00060817181828193810E942FBDF7016083C2
:103BB0007183828393838C2F0E944415CF5FF4E03E
:103BC000EF0EF11C0C5F1F4FC43009F0A2CFD111D2
:103BD0000E942114DF91CF911F910F91FF90EF90E0
:103BE000DF90CF90BF90AF909F908F907F906F901D
:103BF0005F904F906BCECF93DF93EFEAF4E0649148
:103C0000EF012196662331F087EE9EE00E948E112F
:103C1000FE01F5CF60E08FE994E00E94A41161E01D
:103C200088E994E00E94A41161E08DE894E00E948C
:103C3000A41161E08DE794E00E94A41160E084E7A4
:103C400094E00E94A41161E08AE694E00E94A4112D
:103C500060E080E694E00E94A41160E088E594E0D2
:103C60000E94A41160E08AE494E00E94A41160E044
:103C70008CE394E00E94A41160E08DE294E00E9445
:103C8000A41160E08FE194E00E94A41160E089E05B
:103C900094E00E94A41160E088EF93E00E94A411D8
:103CA00060E083EE93E00E94A41161E080ED93E078
:103CB000DF91CF910C94A411FF920F931F93CF9398
:103CC000DF93C091FD04D091FE0483E0F12C40E02D
:103CD0008150D1F09881292F2B7F2134C9F7298178
:103CE0002133B1F7913421F0953421F441E002C041
:103CF000FF24F3949E012E5F3F4FE9012F5F3F4F5A
:103D000098819032D1F3E4CF442371F0EAE2F0E1FC
:103D100064918F010F5F1F4F662331F087EE9EE0A5
:103D20000E948E11F801F4CFFF2071F0E5ECF3E072
:103D300064918F010F5F1F4F662331F087EE9EE085
:103D40000E948E11F801F4CFBE0187EE9EE00E9422
:103D50007F116AE087EE9EE0DF91CF911F910F9176
:103D6000FF900C948E11EF92FF920F931F93CF93BD
:103D7000DF9300D000D01F92CDB7DEB780E50E9460
:103D8000B512882351F08091FB049091FC04892B9B
:103D900051F00E946313182F07C084EC94E00E9436
:103DA00007B1182F01C01FEF87E50E94B5128823C5
:103DB00051F08091FB049091FC04892B31F00E941A
:103DC0006313082F03C000E001C00FEF82E40E94DC
:103DD000B512882351F08091FB049091FC04892B4B
:103DE00031F00E946313F82E04C0F12C02C0FF24AE
:103DF000FA9485E50E94B512882351F08091FB0466
:103E00009091FC04892B31F00E946313E82E04C0CA
:103E1000E12C02C0EE24EA9482E50E94B5128823C8
:103E200049F08091FB049091FC04892B29F00E94B9
:103E3000631303C080E001C08FEF8983EA82FB82B5
:103E40000C831D8360E0CE0101960E94BA490F9059
:103E50000F900F900F900F90DF91CF911F910F91C6
:103E6000FF90EF900895CF9388EC90E00E94FF14AC
:103E7000811140C084E40E94B5128823C1F10E94E0
:103E80000C13C1E020E030E0A9010E94A6BD811121
:103E900001C0C0E0C0930105CC2349F10E940C137E
:103EA000E091B80224E0E29FF0011124E05BFA4FB8
:103EB000608371838283938320E030E0A901609165
:103EC00050057091510580915205909153050E94C3
:103ED000A6BD81110CC080E090E0A0EEBFE380930E
:103EE000500590935105A0935205B0935305CF917F
:103EF0000C947E54CF910895CF9383E50E940013D4
:103F00008823A1F00E940C136093700570937105D3
:103F100080937205909373056093680570936905AB
:103F200080936A0590936B05C0E001C0C1E080E515
:103F30000E940013882359F00E940C1360937005AF
:103F4000709371058093720590937305C0E082E5CC
:103F50000E940013882359F00E940C1360936C0593
:103F600070936D0580936E0590936F05C0E084E5B6
:103F70000E940013882359F00E940C136093680577
:103F80007093690580936A0590936B052CC0CC23D0
:103F900051F14091700550917105609172057091D9
:103FA000730583E993E00E94E26440916C055091AF
:103FB0006D0560916E0570916F0580E993E00E9438
:103FC000E264409168055091690560916A057091BD
:103FD0006B058DE893E00E94E2646AE087EE9EE064
:103FE000CF910C948E11CF91089581E50E94B51266
:103FF000882351F00E9453136093A8057093A9057C
:104000008093AA059093AB0583E50E94B51288239F
:1040100051F00E940C1360937405709375058093A2
:1040200076059093770584E50E94B512882351F0B8
:104030000E940C1360936405709365058093660578
:104040009093670588E50E94B512882351F00E947D
:104050000C13609354057093550580935605909307
:10406000570589E50E94B512882351F00E940C1370
:10407000609358057093590580935A0590935B059A
:104080008AE50E94B512882351F00E940C136093B8
:104090005C0570935D0580935E0590935F0585E4F4
:1040A0000E94B512882351F00E940C1360936005A2
:1040B0007093610580936205909363050895EF9274
:1040C000FF920F931F93CF9386EFE82E81E0F82E97
:1040D00001EE12E0C0E0F70181917F010E94B5126C
:1040E000882351F00E940C13F8016083718382834E
:1040F00093838C2F0E944415CF5F0C5F1F4FC330FA
:1041000051F7CF911F910F91FF90EF90DFCBCF939D
:10411000DF93EAE2F0E16491EF012196662331F04A
:1041200087EE9EE00E948E11FE01F5CF83E50E948E
:10413000B512882321F00E94741380930601E1E4F4
:10414000F3E06491EF012196662331F087EE9EE063
:104150000E948E11FE01F5CF80910601811103C0EE
:10416000E9E3F3E002C0EDE3F3E06491EF012196AF
:10417000662331F087EE9EE00E948E11FE01F5CF9E
:10418000E1E3F3E06491EF012196662331F087EEDD
:104190009EE00E948E11FE01F5CF2091D502309154
:1041A000D6024091D7025091D8026091C902709115
:1041B000CA028091CB029091CC020E942FBDAB012C
:1041C000BC018FE293E00E94E2642091D902309119
:1041D000DA024091DB025091DC026091CD027091D5
:1041E000CE028091CF029091D0020E942FBDAB01F0
:1041F000BC018CE293E00E94E2642091DD023091E8
:10420000DE024091DF025091E0026091D102709194
:10421000D2028091D3029091D4020E942FBDAB01B3
:10422000BC0189E293E00E94E264E1E2F3E0649180
:10423000EF012196662331F087EE9EE00E948E11F9
:10424000FE01F5CF2091D5023091D6024091D702E0
:104250005091D80260910701709108018091090185
:1042600090910A010E942FBDAB01BC018FE193E048
:104270000E94E2642091D9023091DA024091DB027F
:104280005091DC0260910B0170910C0180910D0145
:1042900090910E010E942FBDAB01BC018CE193E017
:1042A0000E94E2642091DD023091DE024091DF0243
:1042B0005091E00260910F01709110018091110105
:1042C000909112010E942FBDAB01BC0189E193E0E6
:1042D0000E94E2646AE087EE9EE0DF91CF910C9449
:1042E0008E110F931F93CF93DF938DED90E00E947B
:1042F000FF14811170C083E50E9400138823B9F177
:10430000C091B802D0E00E944313CC0FDD1FC65D00
:10431000DE4F798368838091B80290E0EC01CC0F86
:10432000DD1FCC0FDD1F8E010A5D1E4F880F991F08
:10433000FC01E65DFE4F60817181072E000C880B49
:10434000990B0E9445BE2AE037ED43E25CE30E94F0
:104350007CBFC45BDA4F288139814A815B810E942E
:104360007CBFF801608371838283938334C0EAE267
:10437000F0E16491EF012196662331F087EE9EE033
:104380000E948E11FE01F5CF65E487EE9EE00E944B
:104390008E116091B802605D87EE9EE00E948E11E2
:1043A000E091B802F0E0EE0FFF1FE65DFE4F608186
:1043B000718181E193E00E94A56465E287EE9EE051
:1043C0000E948E116AE087EE9EE0DF91CF911F91EF
:1043D0000F910C948E11DF91CF911F910F91089541
:1043E000AF92BF92CF92DF92EF92FF920F931F9303
:1043F000CF93DF93B6EFEB2EB1E0FB2E08E815E08C
:10440000C0E0D0E0D7018D917D010E9400138111A1
:1044100008C0C230D105E9F583E50E940013882366
:10442000C1F10E940C1320E030E040E050EC0E940B
:10443000A6BD87FD45C00E940C1320E030E040E09F
:1044400050E40E9448BF1816B4F10E940C13F80102
:104450002081318142815381E0919004F0E00C2E63
:1044600002C0F595E7950A94E2F7E0FF12C0FE015D
:10447000EE0FFF1FDF01AB5CB24F6D01AD90BC9042
:104480000E947CBF0E9412BE6A0D7B1DF6017183E3
:10449000608321960C5F1F4FC330D10509F0B2CF66
:1044A000DF91CF911F910F91FF90EF90DF90CF9010
:1044B000BF90AF90089560E070E080E090E4C7CFD7
:1044C00060E070E080E090ECC2CFCF93DF9385E4B2
:1044D0000E940013811110C080E50E94B51288234C
:1044E00091F00E940C136093430D7093440D8093E0
:1044F000450D9093460D07C00E946313882361F316
:10450000E0E3F0E172C089E40E94B512882381F0F3
:104510000E940C132CEA35EC47E25EE30E947CBF5C
:1045200060933F0D7093400D8093410D9093420D29
:1045300084E40E94B512882381F00E940C132CEAB7
:1045400035EC47E25EE30E94AABD60933B0D709399
:104550003C0D80933D0D90933E0DEAE2F0E16491B5
:10456000EF012196662331F087EE9EE00E948E11C6
:10457000FE01F5CF4091430D5091440D6091450DE2
:104580007091460D8DE093E00E94E2642CEA35ECD8
:1045900047E25EE360913F0D7091400D8091410DC7
:1045A0009091420D0E94AABDAB01BC0189E093E04D
:1045B0000E94E2642CEA35EC47E25EE360913B0D39
:1045C00070913C0D80913D0D90913E0D0E947CBFFD
:1045D000AB01BC0185E093E00E94E2646AE087EEF3
:1045E0009EE0DF91CF910C948E116491EF012196A2
:1045F000662331F087EE9EE00E948E11FE01F5CF1A
:10460000E3EFF2E06491EF012196662331F087EE4B
:104610009EE00E948E11FE01F5CFDF91CF910895AB
:10462000CF93DF9383E50E94B512C82F882371F0E2
:104630000E940C130E9412BE7093490160934801BE
:1046400021E0672B09F020E020932E0D80E50E94E9
:10465000B512882359F02091480130914901232B4C
:1046600011F00E94741380932E0D31C0C1112FC020
:10467000EAE2F0E16491EF012196662331F087EEE2
:104680009EE00E948E11FE01F5CF80912E0D8111CA
:1046900003C063EE71E002C060EE71E080EE92E074
:1046A0000E947D6460914801709149018FEC92E015
:1046B0000E94A564EBECF2E06491EF012196662381
:1046C00031F087EE9EE00E948E11FE01F5CFDF9162
:1046D000CF9108958F929F92AF92BF92EF92FF92E7
:1046E0000F931F93CF93DF9300D000D0CDB7DEB7E9
:1046F00085E40E940013882321F00E9443138B015C
:1047000002C000E010E083E40E940013882321F03F
:104710000E944313F62E02C025E0F22E85E50E948A
:104720000013882321F00E947413E82E04C085E54D
:104730000E94B512E82E17FD07C0812C912C96E13E
:10474000A92E93E4B92E06C0812C912C8CE8A82EBA
:1047500082E4B82E83E50E940013882321F00E9492
:104760000C134B015C01C501B4010E9412BE01157E
:10477000110511F41092B802072E000C880B990B4A
:104780000E9445BE69837A838B839C832E2D4F2D97
:10479000602FCE0101960E946A7F0F900F900F90BC
:1047A0000F90DF91CF911F910F91FF90EF90BF90ED
:1047B000AF909F908F9008952F923F924F925F926B
:1047C0006F927F928F929F92AF92BF92CF92DF9221
:1047D000EF92FF920F931F93CF93DF93CDB7DEB786
:1047E0002F970FB6F894DEBF0FBECDBF41E061E05A
:1047F00081E00E94C1178111DBC098EC892E98E0FE
:10480000992E82EA94E09E878D87FE0131965F01A2
:104810000DEA18E01F01F3E0F00FFF87F401659146
:10482000759185919491ED85FE85C190D190E1902F
:10483000F190FE87ED87A70196010E942EBD2B0106
:104840003C0120E030E040EA51EC0E9448BF87FD87
:1048500010C020E030E040EA51E4C301B2010E9400
:10486000A6BD181634F0F101408251826282738233
:104870000DC0F80184911816B4F7F7FAF094F7F820
:10488000F094F101C082D182E282F382F101C19001
:10489000D190E190F1901F0120E030E040EA51EC2E
:1048A000C701B6010E9448BF87FF03C0E0E3F0E103
:1048B0000BC020E030E040EA51E4C701B6010E949D
:1048C000A6BD1816BCF5F2CF64918F010F5F1F4F84
:1048D000662331F087EE9EE00E948E11F801F4CF3E
:1048E000EFE6F3E064918F010F5F1F4F662331F015
:1048F00087EE9EE00E948E11F801F4CF81E693E0EE
:104900002F960FB6F894DEBF0FBECDBFDF91CF91CB
:104910001F910F91FF90EF90DF90CF90BF90AF90DD
:104920009F908F907F906F905F904F903F902F90CF
:104930000C94D18BF4E08F0E911C0F5F1F4F8F856D
:1049400080136CCF81EEE82E82E0F82E10E0F501A6
:1049500081919191A191B1915F01F701819391931F
:10496000A193B1937F01812F0E9444151F5F1330E3
:1049700071F70E94661C60E081E593E02F960FB608
:10498000F894DEBF0FBECDBFDF91CF911F910F9185
:10499000FF90EF90DF90CF90BF90AF909F908F905F
:1049A0007F906F905F904F903F902F900C946B8B07
:1049B0002F960FB6F894DEBF0FBECDBFDF91CF911B
:1049C0001F910F91FF90EF90DF90CF90BF90AF902D
:1049D0009F908F907F906F905F904F903F902F901F
:1049E0000895CF93DF930E940A478823D1F0EAE22B
:1049F000F0E16491EF012196662331F087EE9EE0AD
:104A00000E948E11FE01F5CFE1EBF2E06491EF011F
:104A10002196662331F087EE9EE00E948E11FE0102
:104A2000F5CFDF91CF910895CF92DF92EF92FF9271
:104A3000CF93DF938BE40E9400138823B1F18BE4C2
:104A40000E9400138823B1F00E940C136B017C01BB
:104A500020E030E0A9010E9448BF87FD19C020E096
:104A600030E040E251E4C701B6010E94A6BD18162D
:104A70007CF003C0C12CD12C76010E946155C092FC
:104A80001E05D0921F05E0922005F092210531C04D
:104A9000E2E9F2E06491EF012196662351F187EE9D
:104AA0009EE00E948E11FE01F5CFEAE2F0E16491F2
:104AB000EF012196662331F087EE9EE00E948E1171
:104AC000FE01F5CF40911E0550911F056091200514
:104AD0007091210587E892E00E94E2646AE087EE27
:104AE0009EE0DF91CF91FF90EF90DF90CF900C94FC
:104AF0008E11DF91CF91FF90EF90DF90CF900895CE
:104B0000CF92DF92EF92FF920F931F93CF9383E5A3
:104B10000E94B512811104C006EF11E0C0E00EC082
:104B20000E940C136B017C01C0E0B701A6018C2F21
:104B30000E947C73CF5FC530C1F7EECFF801819141
:104B40008F010E94B512882339F00E940C13AB012B
:104B5000BC018C2F0E947C73CF5FC43079F7CF915A
:104B60001F910F91FF90EF90DF90CF900895CF931A
:104B7000DF9383E50E940013882321F00E944313F2
:104B8000EB0102C0C0E0D0E080E50E940013882362
:104B900019F00E94631301C08FEFBE01DF91CF9126
:104BA0000C94BD73CF93DF93E0E3F0E16491EF01E8
:104BB0002196662331F087EE9EE00E948E11FE0161
:104BC000F5CFECEBF2E06491EF012196662331F032
:104BD00087EE9EE00E948E11FE01F5CFDF91CF910E
:104BE00008951F93CF93DF93182FEAE2F0E16491C9
:104BF000EF012196662331F087EE9EE00E948E1130
:104C0000FE01F5CF64E587EE9EE00E948E11412FF4
:104C100050E060E070E020E087EE9EE00E94ACB2E1
:104C200060E287EE9EE00E948E11EDEBF6E064916B
:104C3000EF012196662331F087EE9EE00E948E11EF
:104C4000FE01F5CFDF91CF911F9108950F931F9330
:104C5000CF93DF931F92CDB7DEB789830E94615552
:104C60008981882331F00F90DF91CF911F910F91AF
:104C7000B8CF1092C602EAE2F0E164918F010F5FB3
:104C80001F4F662331F087EE9EE00E948E11F801DF
:104C9000F4CF6091C60270E08FEC96E00E94A564AC
:104CA0006AE087EE9EE00F90DF91CF911F910F9108
:104CB0000C948E11CF93DF93E0918604F0E0E855D9
:104CC000FD4F80818823A1F0EBE7F2E06491EF01D2
:104CD0002196662331F087EE9EE00E948E11FE0140
:104CE000F5CF6AE087EE9EE0DF91CF910C948E11B4
:104CF000DF91CF910895CF92DF92EF92FF92CF9301
:104D0000DF9320910601222309F485C0EC01C090B5
:104D1000C902D090CA02E090CB02F090CC02A70169
:104D20009601688179818A819B810E94A6BD87FF57
:104D300004C0C882D982EA82FB82C090CD02D090A2
:104D4000CE02E090CF02F090D002A70196016C81D4
:104D50007D818E819F810E94A6BD87FF04C0CC8289
:104D6000DD82EE82FF82C0900701D0900801E090C2
:104D70000901F0900A01A7019601688179818A8171
:104D80009B810E9448BF181624F4C882D982EA8207
:104D9000FB82C0900B01D0900C01E0900D01F090CF
:104DA0000E01A70196016C817D818E819F810E94F9
:104DB00048BF181624F4CC82DD82EE82FF82C090B8
:104DC000D102D090D202E090D302F090D402A70199
:104DD0009601688579858A859B850E94A6BD87FF97
:104DE00004C0C886D986EA86FB86C0900F01D090A1
:104DF0001001E0901101F0901201A7019601688561
:104E000079858A859B850E9448BF181624F4C88638
:104E1000D986EA86FB86DF91CF91FF90EF90DF90F5
:104E2000CF900895CF93DF9380E00E944D55CCEA58
:104E3000D2E0688379838A839B8381E00E944D5509
:104E40006C837D838E839F8382E00E944D556887AB
:104E500079878A879B87DF91CF910895CF93DF93DE
:104E6000E1DF6BE587EE9EE00E948E11CCEAD2E096
:104E7000488159816A817B8122E087EE9EE00E9411
:104E800015B34C815D816E817F8183EF96E00E9436
:104E9000E264488559856A857B8580EF96E00E94AB
:104EA000E2646DE587EE9EE00E948E116AE087EE77
:104EB0009EE0DF91CF910C948E110E94E3540E94EA
:104EC0006155B0DF0E9475110C9483138F929F92ED
:104ED000AF92BF92CF92DF92EF92FF920F931F9308
:104EE000CF93DF93CDB7DEB728970FB6F894DEBF28
:104EF0000FBECDBF82E994E0FEDE8091B20483FD57
:104F0000B1C0C0909E04D0909F04E090A004F090A7
:104F1000A1042091AE043091AF044091B0045091AF
:104F2000B104C701B6010E94A6BD882309F49AC046
:104F30006091620D7091630D8091640D9091650D8B
:104F400020912E0D21112FC00E9412BE20914801E8
:104F5000309149016217730734F5C092AE04D092C4
:104F6000AF04E092B004F092B104EAE2F0E164919F
:104F70007F012FEFE21AF20A662331F087EE9EE0FE
:104F80000E948E11F701F3CFE0E6F2E064917F0119
:104F90008FEFE81AF80A662331F087EE9EE00E9450
:104FA0008E11F701F3CF80909E0490909F04A09003
:104FB000A004B090A1042091AE043091AF044091C0
:104FC000B0045091B104C501B4010E942EBD6B0123
:104FD0007C0120E030E0A9010E9448BF87FF04C0A7
:104FE000C701B601905802C0C701B601E091C602E0
:104FF00024E0E29FF0011124EA5DFE4F208131811F
:10500000428153810E947CBF20E030E048E453E4B9
:105010000E9448BF181634F58092AE049092AF04F7
:10502000A092B004B092B104EAE2F0E164917F0191
:105030008FEFE81AF80A662331F087EE9EE00E94AF
:105040008E11F701F3CFE1E4F2E064917F019FEF6D
:10505000E91AF90A662331F087EE9EE00E948E116C
:10506000F701F3CF6091130170911401072E000C2A
:10507000880B990B0E9445BE2091150130911601B5
:1050800040911701509118010E947CBF2AE037ED32
:1050900043E25CE30E947CBF6D837E838F839887AD
:1050A000E090C60219821A821B821C82CE010196F0
:1050B0006C018E010B5F1F4F2EE934E04AE954E08A
:1050C00066E974E082E994E00E94846180E1E2E9AB
:1050D000F4E0A2EAB4E001900D928A95E1F72896F7
:1050E0000FB6F894DEBF0FBECDBFDF91CF911F91F9
:1050F0000F91FF90EF90DF90CF90BF90AF909F9077
:105100008F90089577987698479843980895439A92
:10511000089583E50E940013882399F00E940C13E0
:1051200020E030E04AE754E40E947CBF0E9417BEB2
:105130006093010170930201809303019093040135
:10514000089588E50E94B512811111C089E50E9479
:10515000B51281110CC08AE50E94B512811107C0F9
:1051600085E40E94B512811102C00C943C550E9446
:10517000615588E50E94B512882331F0779A8091B5
:1051800090048E7F8093900489E50E94B512882355
:1051900031F0769A809190048D7F809390048AE517
:1051A0000E94B512882331F0479A809190048B7F3A
:1051B0008093900485E40E94B5128111A8CF0895D0
:1051C000779A809190048E7F80939004769A809154
:1051D00090048D7F80939004479A809190048B7FF8
:1051E0008093900494CF8C01E0E3F0E16491EF01AF
:1051F0002196662331F087EE9EE00E948E11FE011B
:10520000F5CFEEEDF1E06491EF012196662331F0E8
:1052100087EE9EE00E948E11FE01F5CF0E94CD79AF
:10522000CFDFC8010E948A8E2FEF8BE49DE12150D1
:1052300080409040E1F700C00000F8942FEF84E335
:105240009CE0215080409040E1F700C000000E94A7
:10525000CD79A895FECF0F931F93CF93DF9380E86E
:1052600085BF85BF40E950ED63E070E087EE9EE0CA
:105270000E940BBCE7EDF1E06491EF0121966623FB
:1052800031F087EE9EE00E948E11FE01F5CFEAE23A
:10529000F0E16491EF012196662331F087EE9EE004
:1052A0000E948E11FE01F5CFC4B7C0FF0EC0EEEC18
:1052B000F1E064918F010F5F1F4F662331F087EE9D
:1052C0009EE00E948E11F801F4CFC1FF0EC0EDEBFD
:1052D000F1E064918F010F5F1F4F662331F087EE7D
:1052E0009EE00E948E11F801F4CFC2FF0EC0EBEADF
:1052F000F1E064918F010F5F1F4F662331F087EE5D
:105300009EE00E948E11F801F4CFC3FF0EC0EAE9BF
:10531000F1E064918F010F5F1F4F662331F087EE3C
:105320009EE00E948E11F801F4CFC5FF0DC0E9E8A0
:10533000F1E06491EF012196662331F087EE9EE063
:105340000E948E11FE01F5CF14BEE2E8F1E06491F7
:10535000EF012196662331F087EE9EE00E948E11C8
:10536000FE01F5CF60E287EE9EE00E948E11EBE732
:10537000F1E06491EF012196662331F087EE9EE023
:105380000E948E11FE01F5CF6AE087EE9EE00E943A
:105390008E11EAE2F0E16491EF012196662331F08B
:1053A00087EE9EE00E948E11FE01F5CFEBE6F1E064
:1053B0006491EF012196662331F087EE9EE00E9412
:1053C0008E11FE01F5CFE0E6F1E06491EF01219648
:1053D000662331F087EE9EE00E948E11FE01F5CF2C
:1053E000E8E4F1E06491EF012196662331F087EE65
:1053F0009EE00E948E11FE01F5CFEAE2F0E1649199
:10540000EF012196662331F087EE9EE00E948E1117
:10541000FE01F5CFE1E3F1E06491EF01219666230F
:1054200031F087EE9EE00E948E11FE01F5CFEAE298
:10543000F0E16491EF012196662331F087EE9EE062
:105440000E948E11FE01F5CF0E942614BC0182E25B
:1054500091E00E94A56460E876E08BE091E00E9414
:10546000A5646AE087EE9EE00E948E1181E0809341
:10547000A8028093A9028093AA028093AB020E94A3
:1054800011478CE0E1EEF2E0A2EAB4E001900D9267
:105490008A95E1F70E94831386E69DE00E949C783E
:1054A0000E94B0740E9481480E94F2680E944C736E
:1054B0000E94B9490E942D8C0E94A58BDF91CF914B
:1054C0001F910F910C94A0ABCF93DF9387EE9EE0DA
:1054D0000E9471BCEEE7F2E06491EF012196662331
:1054E00031F087EE9EE00E948E11FE01F5CF4091D3
:1054F00088045091890460918A0470918B044F5FF5
:105500005F4F6F4F7F4F87EE9EE00E9408B36AE0C7
:1055100087EE9EE00E948E11DF91CF91CBCBFF9260
:105520000F931F93CF93DF93F82E092F162FE0E3ED
:10553000F0E16491EF012196662331F087EE9EE061
:105540000E948E11FE01F5CFEF2DF02F6491EF0137
:105550002196662331F087EE9EE00E948E11FE01B7
:10556000F5CF409188045091890460918A0470912C
:105570008B0487EE9EE00E9408B36AE087EE9EE00F
:105580000E948E111111A0DF1092C2021092C1026E
:10559000DF91CF911F910F91FF9008958F929F926D
:1055A000AF92BF92CF92DF92EF92FF920F931F9331
:1055B000CF93DF9380918704843008F035C187EE64
:1055C0009EE00E94CEBAAC0197FD2EC1982F20918B
:1055D000C1023091C2028A3019F09D3009F0F0C04A
:1055E0001092A2022115310519F40E947C7BE2CFB2
:1055F000F901EE5BFD4F10821092C2021092C102BF
:1056000022E432E0E90188812F5F3F4F8032D1F3FD
:105610008E018E3409F088C0209709F485C06BE9AB
:1056200078E0CE010E9423C4FF24F394892B11F467
:10563000F12C09C06EE470E0CE0104960E9451C4C2
:10564000009709F0EC014AE050E060E070E0CE0124
:1056500001960E948EC160938C0470938D04809398
:105660008E0490938F048090880490908904A09079
:105670008A04B0908B042FEF821A920AA20AB20A0F
:10568000681579058A059B0531F0F11004C061E0C9
:1056900088E698E02CC06AE270E0C8010E9489C4E4
:1056A0009C01009709F1982F901BC0E0992339F0D5
:1056B0009150F801E90FF11D8081C827F7CF4AE02A
:1056C00050E060E070E0C90101960E948EC1CC2ECE
:1056D000D12CE12CF12C6C157D058E059F05A1F0D8
:1056E00061E089E498E003C061E08FE198E0DF9138
:1056F000CF911F910F91FF90EF90DF90CF90BF90CF
:10570000AF909F908F900BCF80918C0490918D04DF
:10571000A0918E04B0918F048093880490938904A3
:10572000A0938A04B0938B0480911901811125C044
:1057300067E470E0C8010E9451C40097F1F04AE0AC
:1057400050E060E070E001960E948EC16230710509
:105750008105910590F4E8EAF7E06491EF01219664
:10576000662331F087EE9EE00E948E11FE01F5CF98
:1057700060E08EE997E00E946B8B67EE71E0C801F4
:105780000E945CC4892B21F4109205011092C4027E
:105790006CEE71E0C8010E945CC4892B19F485E9A4
:1057A00097E021DD61EF71E0C8010E945CC4892BA4
:1057B00009F483DB61E082E492E00E944414FACEB3
:1057C0002F3531050CF0F6CE9C35D1F487EE9EE0F6
:1057D0000E94CEBA97FDEECE2091A2022111EACE10
:1057E0002091C1023091C202A9014F5F5F4F5093D7
:1057F000C2024093C102F901EE5BFD4F8083DACE15
:105800009B3319F481E08093A2028091A20281115E
:10581000D1CEC90101969093C2028093C102F901D1
:10582000EE5BFD4F4083C6CEDF91CF911F910F916C
:10583000FF90EF90DF90CF90BF90AF909F908F90B0
:1058400008950E94A214811101C0A8CE0895CF929C
:10585000DF92EF92FF920F931F93CF93DF931F92EC
:10586000CDB7DEB790918704943018F48983E9DFCF
:1058700089810FB6F8944091DC0E5091DD0E609155
:10588000DE0E7091DF0E0FBEC090B902D090BA024A
:10589000E090BB02F090BC02C114D104E104F10419
:1058A00091F10091BD021091BE022091BF02309192
:1058B000C0020C0D1D1D2E1D3F1D6A017B01C01A6B
:1058C000D10AE20AF30AF7FC1EC0E0E3F0E16491BA
:1058D0008F010F5F1F4F662331F087EE9EE00E941D
:1058E0008E11F801F4CF6091FF047091000587E0FC
:1058F00092E00E947D646AE087EE9EE00E948E1135
:105900008EEF91E070DC0091010110910201209175
:105910000301309104010115110521053105B1F193
:10592000E091D2059091CF05E91749F04093BD026F
:105930005093BE026093BF027093C00227C08111D2
:1059400025C08091BD029091BE02A091BF02B0918E
:10595000C002800F911FA21FB31F481B590B6A0B77
:105960007B0B77FD13C0779A809190048E7F809394
:105970009004769A809190048D7F80939004479A4A
:10598000809190048B7F80939004C1DB0F90DF9116
:10599000CF911F910F91FF90EF90DF90CF900C94DB
:1059A00061540E94388C0E94F81880E050DF0E94F9
:1059B0007C7B8091C302811102C00C94FD83089509
:1059C000CF92DF92EF92FF920FB6F894C090DC0E68
:1059D000D090DD0EE090DE0EF090DF0E0FBEC60E12
:1059E000D71EE81EF91E0FB6F8948091DC0E909138
:1059F000DD0EA091DE0EB091DF0E0FBE8C199D0959
:105A0000AE09BF09B7FF02C0CCDFEDCFFF90EF902A
:105A1000DF90CF900895CF92DF92EF92FF9280E5D2
:105A20000E940013882329F00E9453136B017C010C
:105A300003C0C12CD12C760183E50E94001388237A
:105A400061F00E940C1320E030E04AE754E40E9429
:105A50007CBF0E9417BE6B017C010E9461550E94B1
:105A60003D8B811105C060E084EB96E00E946B8B5A
:105A7000C701B601FF90EF90DF90CF90A1CFCF92FA
:105A8000DF92EF92FF920F931F93CF930091FD044B
:105A90001091FE0480E50E940013882359F00E94B3
:105AA00053136B017C01C1E0672B682B692B31F428
:105AB000C0E004C0C0E0C12CD12C760183E50E9477
:105AC0000013882309F470C00E940C1320E030E01A
:105AD0004AE754E40E947CBF0E9417BE6B017C0120
