:100000000C94DA100C9404110C9404110C94041147
:100010000C9404110C9404110C9404110C9404110C
:100020000C9404110C9404110C9454B70C94D1B793
:100030000C9404110C9404110C9404110C940411EC
:100040000C9404110C948C880C9404110C940411DD
:100050000C9404110C9404110C94729D0C94B3B67E
:100060000C9404110C9404110C9404110C940411BC
:100070000C9404110C9404110C9404110C940411AC
:100080000C9404110C9404110C9404110C9404119C
:100090000C94F2AF0C94041142B46EB490B490B4CA
:1000A00090B490B490B490B490B490B490B490B430
:1000B00090B490B486B47EB476B490B490B490B456
:1000C00090B490B490B490B468B44EB456B460B4E4
:1000D0004E414E494E495459494E46CDCCCC3D0A2D
:1000E000D7233C17B7D13877CC2B329595E6241F10
:1000F000B14F0A000020410000C84200401C4620C9
:10010000BCBE4CCA1B0E5AAEC59D74446F6E6520B2
:10011000736176696E672066696C652E0A004D32E0
:1001200039002020506C616E6E657242756666659E
:100130007242797465733A20002046726565204DDD
:10014000656D6F72793A2000436F6D70696C6564FC
:100150003A204E6F7620313520323031380A002077
:100160007C20417574686F723A2044722E50686921
:100170006C33440A00323031382D30382D303100A4
:10018000204C61737420557064617465643A20007A
:10019000312E312E390A004D61726C696E00205388
:1001A0006F6674776172652052657365740A00200A
:1001B0005761746368646F672052657365740A00E1
:1001C0002042726F776E206F75742052657365746C
:1001D0000A002045787465726E616C205265736503
:1001E000740A00506F77657255700A0073746172FB
:1001F000740A005072696E7465722068616C74656F
:10020000642E206B696C6C28292063616C6C6564BA
:10021000210A004B494C4C45442E20004B494C4C84
:100220002063617573656420627920746F6F206D3F
:1002300075636820696E6163746976652074696DA1
:1002400065202D2063757272656E7420636F6D6D0D
:10025000616E643A200020746F6F206C6F6E6720AF
:10026000657874727573696F6E2070726576656EED
:100270007465640A0020636F6C642065787472751D
:1002800073696F6E2070726576656E7465640A00BE
:100290006F6B00526573656E643A2000416476614D
:1002A0006E6365204B3D003F4B2076616C75652089
:1002B0006F7574206F662072616E67652028302D1F
:1002C0003130292E0A003A200050726F6265205AA0
:1002D000204F6666736574003F5A206F7574206FF7
:1002E000662072616E676520282D3520746F20327C
:1002F00030290A00454550524F4D204F4B0A0042CD
:100300006564204C6576656C696E6720004661699E
:100310006C656420746F20656E61626C6520426557
:1003200064204C6576656C696E670A0042656420DE
:100330004C6576656C20436F7272656374696F6E8D
:10034000204D61747269783A004E6F206361736565
:10035000206C696768740A0043290A0061626C6551
:100360006420286D696E2074656D702000436F6C89
:10037000642065787472756465732061726520000D
:10038000496E76616C696420657874727564657213
:100390000A0020643A0020693A0020703A00507246
:1003A0006F6265205A204F66667365743A2000209C
:1003B000466C6F773A2000205A00205900580020E0
:1003C000204D61783A2000205A0020590058002022
:1003D000204D696E3A20004F6666004F6E20005334
:1003E0006F667420656E6473746F70733A20004F8B
:1003F000666673657473206170706C69656400452E
:1004000072723A20546F6F206661722100546F6FD0
:10041000206661722066726F6D2072656665726516
:100420006E636520706F696E740A0020540020525C
:1004300000416363656C65726174696F6E3A205048
:10044000002F2F20003A004361703A005448455273
:100450004D414C5F50524F54454354494F4E00411B
:1004600055544F5245504F52545F53445F5354417B
:1004700054555300454D455247454E43595F5041F1
:100480005253455200434153455F4C494748545FDE
:100490004252494748544E45535300544F47474CE6
:1004A000455F4C494748545300534F4654574152B7
:1004B000455F504F574552004255494C445F5045A7
:1004C0005243454E54004C4556454C494E475F44B7
:1004D000415441005A5F50524F4245004155544FDC
:1004E0004C4556454C005052494E545F4A4F4200CD
:1004F00050524F4752455353004155544F52455067
:100500004F52545F54454D5000564F4C554D455435
:1005100052494300454550524F4D005345524941C1
:100520004C5F584F4E5F584F4646004649524D5714
:100530004152455F4E414D453A4D61726C696E20A6
:10054000312E312E3920284769746875622920536D
:100550004F555243455F434F44455F55524C3A68AF
:10056000747470733A2F2F6769746875622E636FA5
:100570006D2F4D61726C696E4669726D776172653F
:100580002F4D61726C696E2050524F544F434F4C47
:100590005F56455253494F4E3A312E30204D41431C
:1005A00048494E455F545950453A506C6179205640
:1005B000322045585452554445525F434F554E548E
:1005C0003A3120555549443A343063653631643107
:1005D0002D326564302D343533302D383330342DA1
:1005E0003535653365656161656266660A00205769
:1005F0003A004520436F6F6C696E672E2E2E0045C2
:100600002048656174696E672E2E2E006F6B004D59
:100610003131332053004B494C4C45442E2000458A
:1006200043484F00494E464F004552524F525300E7
:1006300044525952554E00434F4D4D554E4943413A
:1006400054494F4E006F6666001F06240629063087
:1006500006370644454255473A0050726F74656349
:100660007465642050696E0A0000011C1D132FFF81
:10067000FFFFFF1E1F12FF18FFFFFF20211124FFA5
:10068000FFFFFFFFFFFF0E10FFFFFF22230DFFFF05
:10069000FF0E260F2C272569730025696D2025691B
:1006A00073002569682025696D2025697300256917
:1006B00064202569682025696D20256973002569F6
:1006C0007920256964202569682025696D202569C0
:1006D00073005072696E742074696D653A2000432E
:1006E000757272656E742066696C653A2000456E9D
:1006F000642066696C65206C6973740A00426567E2
:10070000696E2066696C65206C6973740A004E6FAF
:10071000206D6F76652E00205A3A200020593A202D
:100720000042656420583A20000A0A426564204C61
:100730006576656C20436F7272656374696F6E20B5
:100740004D61747269783A00202844525952554ECE
:100750002900473239204175746F20426564204C6E
:100760006576656C696E67003F2856296572626F11
:100770007365206C6576656C20697320696D706C9B
:1007800061757369626C652028302D34292E0A004A
:10079000536C6565702E2E2E00496E76616C69640F
:1007A0002065787472756465720A004163746976B5
:1007B000652045787472756465723A200020453A68
:1007C00000205A3A0020593A00583A002C20002CB8
:1007D0002000486F6D652058592066697273740A4D
:1007E00000486F6D65205859206669727374005710
:1007F00061726E696E673A20486F6D696E6720425C
:10080000756D702044697669736F72203C20310ADF
:1008100000020204627573793A2070617573656431
:1008200020666F7220696E7075740A006275737944
:100830003A2070617573656420666F722075736508
:10084000720A00627573793A2070726F6365737310
:10085000696E670A0050726F62696E67206661692F
:100860006C65640A0050726F62696E672066616928
:100870006C656400205A3A200020593A20004265F5
:100880006420583A2000486F6D6520257325732534
:1008900073206669727374002066697273740A004B
:1008A0005A0059005800486F6D65200020496E7647
:1008B000616C696420657874727564657220005398
:1008C000442072656164206572726F720A00446F21
:1008D0006E65207072696E74696E672066696C65FA
:1008E0000A004B494C4C45442E200053544F505065
:1008F00045442E20005072696E7465722073746FC7
:10090000707065642064756520746F206572726F05
:1009100072732E2046697820746865206572726F44
:100920007220616E6420757365204D3939392074E9
:100930006F20726573746172742E202854656D7017
:100940006572617475726520697320726573657470
:100950002E2053657420697420616674657220725C
:10096000657374617274696E67290A004E6F204363
:100970006865636B73756D2077697468206C696E48
:1009800065206E756D6265722C204C617374204C0D
:10099000696E653A20004E6F20436865636B73751E
:1009A0006D2077697468206C696E65206E756D6264
:1009B00065722C204C617374204C696E653A20007E
:1009C000636865636B73756D206D69736D617463C6
:1009D000682C204C617374204C696E653A20004C81
:1009E000696E65204E756D626572206973206E6F49
:1009F00074204C617374204C696E65204E756D6275
:100A000065722B312C204C617374204C696E653AF1
:100A100020004D31313000656E7175657565696E08
:100A200067202200FF01FF0000A0400000A040005E
:100A300000004000002A4300005C430000434300E4
:100A400000000000005C430000000000002A43009A
:100A5000005C430000434300000000000000000071
:100A600000000000004842000048420000804000B2
:100A70000000007C3C3E5E2B3D3F2F5B5D3B2C2A03
:100A8000225C004D3331006F70656E206661696CC9
:100A900065642C2046696C653A20006175746F2589
:100AA000692E67006572726F722077726974696E61
:100AB0006720746F2066696C650A004E6F7420535E
:100AC00044207072696E74696E670A005344207026
:100AD00072696E74696E672062797465200044657E
:100AE0006C6574696F6E206661696C65642C204664
:100AF000696C653A200046696C652064656C6574B4
:100B000065643A0057726974696E6720746F206675
:100B1000696C653A20006F70656E206661696C656E
:100B2000642C2046696C653A20006F70656E206603
:100B300061696C65642C2046696C653A20004669E1
:100B40006C652073656C65637465640A0020536985
:100B50007A653A200046696C65206F70656E656441
:100B60003A20002066696C653A20006672657368F9
:100B700000646F696E67004E6F772000454E442019
:100B8000535542524F5554494E450A002220706F2A
:100B900073002220706172656E743A2200535542D0
:100BA000524F5554494E452043414C4C207461727C
:100BB0006765743A22004B494C4C45442E20007422
:100BC0007279696E6720746F2063616C6C20737535
:100BD000622D67636F64652066696C657320776951
:100BE000746820746F6F206D616E79206C65766516
:100BF0006C732E204D4158206C6576656C206973AE
:100C00003A004D3234004D323320257300534420D6
:100C100063617264206F6B0A006F70656E526F6F54
:100C200074206661696C65640A00766F6C756D6529
:100C30002E696E6974206661696C65640A005344AC
:100C400020696E6974206661696C0A00286E6F20E5
:100C500066696C65290043616E6E6F74206F706504
:100C60006E2073756264697220003A0A0020286D54
:100C70006D290020204D393030204B004C696E65C5
:100C8000617220416476616E63653A0A0020204DEE
:100C9000383531205A005A2D50726F6265204F66E8
:100CA000667365740020440020490020204D3330D5
:100CB000312050005049442073657474696E677325
:100CC0003A0A0020204D3432302053004175746FB1
:100CD00020426564204C6576656C696E673A0A004F
:100CE000205A0020590020204D323036205800482C
:100CF0006F6D65206F66667365743A0A0020450063
:100D0000205A002059002058002054002053002071
:100D1000204D32303520510020453C6D61785F65B3
:100D20005F6A65726B3E0020583C6D61785F785F4A
:100D30006A65726B3E20593C6D61785F795F6A65C8
:100D4000726B3E205A3C6D61785F7A5F6A65726BA8
:100D50003E00416476616E6365643A20513C6D6982
:100D60006E5F7365676D656E745F74696D655F75E1
:100D7000733E20533C6D696E5F6665656472617495
:100D8000653E20543C6D696E5F74726176656C5F80
:100D900066656564726174653E00205400205200EF
:100DA00020204D323034205000416363656C657201
:100DB0006174696F6E2028756E6974732F733229A0
:100DC0003A20503C7072696E745F616363656C3E7B
:100DD00020523C726574726163745F616363656C19
:100DE0003E20543C74726176656C5F616363656C30
:100DF0003E0A00204500205A0020590020204D3294
:100E000030312058004D6178696D756D2041636304
:100E1000656C65726174696F6E2028756E69747394
:100E20002F7332293A0A00204500205A0020590029
:100E300020204D3230332058004D6178696D756D3A
:100E4000206665656472617465732028756E6974C7
:100E5000732F73293A0A00204500205A00205900B8
:100E600020204D393220580053746570732070650E
:100E70007220756E69743A0A0020204D323030209D
:100E800044300A0020204D32303020440020446994
:100E90007361626C65640A0046696C616D656E74AD
:100EA0002073657474696E67733A0020204732318D
:100EB000202020203B0048617264636F64656420D9
:100EC00044656661756C742053657474696E6773EC
:100ED000204C6F616465640A00DC050000DC0500DD
:100EE00000DC050000102700000000074300000799
:100EF00043000020410000C8410000A0420000A0C3
:100F0000420000C8430000F242290A0020627974BE
:100F100065733B2063726320002073746F72656495
:100F20002073657474696E67732072657472696585
:100F3000766564202800202863616C63756C617499
:100F4000656429210A0020213D2000454550524F6B
:100F50004D20435243206D69736D61746368202D89
:100F6000202873746F7265642920002053697A65A4
:100F70003A2000496E6465783A2000204D61726C19
:100F8000696E3D563535290A0028454550524F4D6A
:100F90003D00454550524F4D2076657273696F6E26
:100FA000206D69736D617463682000290A002062F6
:100FB000797465733B2063726320005365747469B0
:100FC0006E67732053746F72656420280045455026
:100FD000524F4D206461746173697A652065727245
:100FE0006F722E0A004572726F722077726974698F
:100FF0006E6720746F20454550524F4D210A006F97
:1010000070656E00545249474745524544003A20A6
:10101000007A5F6D696E00795F6D617800785F6D51
:10102000696E005265706F7274696E6720656E64D8
:1010300073746F70207374617475730A00456E6405
:1010400073746F707320256320256320256320252A
:101050006300205A3A0020593A0020583A00656E41
:101060006473746F7073206869743A2000486F6D00
:10107000696E67206661696C656400556E6B6E6FA2
:10108000776E20636F6D6D616E643A20220020746C
:101090006F6F206C6F6E6720657874727573696FFF
:1010A0006E2070726576656E7465640A0020636FE9
:1010B0006C6420657874727573696F6E20707265E8
:1010C00076656E7465640A00FFFDFCFAF8F6F4F2CA
:1010D000F0EEECEAE9E7E5E3E1E0DEDCDAD9D7D5EA
:1010E000D4D2D0CFCDCBCAC8C7C5C3C2C0BFBDBC88
:1010F000BAB9B7B6B4B3B2B0AFADACAAA9A8A6A5F9
:10110000A4A2A1A09E9D9C9A999897959493929041
:101110008F8E8D8B8A8988878684838281807F7E6B
:101120007D7B7A797877767574737271706F6E6D76
:101130006C6B6A696867666564636261605F5E5D67
:101140005C5B5A5958585756555453525150504F4A
:101150004E4D4C4B4A4A4948474646454443424215
:1011600041403F3E3E3D3C3B3B3A393838373635CF
:1011700035343332323130302F2E2E2D2C2B2B2A7A
:101180002929282727262525242323222121202019
:101190001F1E1E1D1C1C1B1B1A19191818171616AA
:1011A000151514131312121111100F0F0E0E0D0D31
:1011B0000C0C0B0A0A0909080807070606050504AE
:1011C000040303020201000000000001000000010E
:1011D00000008000555555000000400033333300B7
:1011E000AAAA2A004992240000002000C7711C000E
:1011F00099991900D1451700555515003BB11300B9
:101200002449120011111100000010000F0F0F00EF
:10121000E3380E0043790D00CCCC0C00C3300C0039
:10122000E8A20B0064210B00AAAA0A00703D0A0084
:101230009DD80900427B090092240900DCD30800F4
:10124000888808001042080000000800F0C107006C
:101250008787070075500700711C07003EEB0600EA
:10126000A1BC06006990060066660600703E060096
:101270006118060017F4050074D105005BB0050085
:10128000B2900500627205005555050078390500D9
:10129000B81E0500050505004EEC040087D40400C7
:1012A000A1BD040090A7040049920400C17D040080
:1012B000EE690400C7560400444404005C32040094
:1012C0000821040041100400000004003FF0030066
:1012D000F8E0030026D20300C3C30300CCB503002B
:1012E0003AA803000A9B0300388E0300C081030064
:1012F0009F750300D0690300505E03001D53030077
:1013000034480300913D03003333030016290300E2
:10131000381F030097150300300C0300030303007C
:101320000BFA020049F10200BAE802005CE0020098
:101330002DD802002DD0020059C80200B0C0020012
:1013400031B90200DAB10200AAAA0200A0A3020089
:10135000BC9C0200FA9502005C8F0200DF8802004C
:1013600082820200457C020027760200277002007C
:10137000436A02007C640200D05E02003F59020012
:10138000C85302006563686F3A004572726F723A23
:1013900000205A3A0020593A0020436F756E74209D
:1013A000583A00232C0000B8220000561800003ADA
:1013B0000F0000B8080000B1040000710200003EF8
:1013C00001000024F4D43050C38E20C2A240178202
:1013D0008B7011127A910D816CD90AA861E108C74E
:1013E000586607615143061E4B5D05C145A7041AA7
:1013F000411104093D9803713931034036DB026520
:10140000339102D4305402802E1D02632CEE0175FC
:101410002AC501B028A001102781018F2564012B66
:10142000244B01E0223401AC211F018D200D0180ED
:101430001FFC00841EED00971DDF00B81CD200E6E3
:101440001BC600201BBC00641AB200B219A8000A17
:1014500019A0006A189900D117910040178B00B5A8
:1014600016840031167E00B31579003A157300C753
:10147000146F0058146A00EE136600881363002589
:10148000135E00C7125B006C12570015125400C1A6
:1014900011510070114F0021114B00D61049008DE1
:1014A0001047004610440002104200C00F40008068
:1014B0000F3E00420F3C00060F3B00CB0E3800935E
:1014C0000E37005C0E3500270E3400F30D3200C1DC
:1014D0000D3100900D3000600D2E00320D2D0005F5
:1014E0000D2C00D90C2B00AE0C2900850C29005CBA
:1014F0000C2700350C27000E0C2600E80B2400C436
:101500000B2400A00B23007D0B23005A0B21003974
:101510000B2100180B2000F80A1F00D90A1E00BB7F
:101520000A1E009D0A1D00800A1D00630A1C004758
:101530000A1B002C0A1B00110A1A00F7091A00DD09
:10154000091900C4091900AB091900920917007B99
:10155000091800630917004C091600360916002007
:101560000916000A091500F5081500E0081400CC5A
:10157000081400B8081400A4081400900813007D93
:101580000812006B081300580812004608120034B5
:10159000081100230811001208110001081100F0C1
:1015A000071000E0071000D0071000C0071000B0BF
:1015B000070F00A107100091070E0083070F0074AA
:1015C000070F0065070E0057070E0049070E003B86
:1015D000070D002E070E0020070D0013070D000653
:1015E000070D00F9060C00ED060D00E0060C00D416
:1015F000060C00C8060C00BC060C00B0060C00A4CB
:10160000060B0099060C008D060B0082060B007776
:10161000060B006C060B0061060A0057060B004C17
:10162000060A0042060A0038060A002E060A0024AE
:10163000060A001A060A001006090007060A00FD3D
:10164000050900F4050900EB050900E2050900D9C8
:10165000050900D0050900C7050900BE050900B548
:10166000050800AD050800A50509009C05080094C3
:101670000508008C050800840508007C0508007436
:101680000508006C050700650508005D05070056A4
:101690000508004E0507004705070040050800380B
:1016A000050700310507002A050700230507001C70
:1016B000050600160507000F0507000805060002CD
:1016C000050700FB040600F5040700EE040600E829
:1016D000040600E2040700DB040600D5040600CF80
:1016E000040600C9040600C3040600BD040600B7D2
:1016F000040600B1040500AC040600A6040600A020
:101700000405009B04060095040500900406008A69
:1017100004050085040500800406007A04050075B0
:10172000040500700405006B0405006604050061F3
:101730000405005C04050057040500520405004D33
:1017400004050048040500430405003E0404003A73
:1017500004050035040500300404002C04050027AE
:10176000040400230405001E0404001A04040016E7
:10177000040500110404000D04040009040500041C
:1017800004040000040400FC030400F8030400F453
:10179000030400F0030400EC030400E8030400E485
:1017A000030400E0030400DC030400D8030400D4B5
:1017B000030400D0030400CC030400C8030300C5E5
:1017C00003030024F404D9201BC40C5C0E9804C449
:1017D000095F0265077101F405F900FB04B30048D5
:1017E000048700C10369005803550003034500BE88
:1017F000023A008402310053022A00290225000423
:10180000022000E4011C00C8011900AF0117009874
:1018100001140084011300710110006101100051D6
:10182000010E0043010D0036010B002B010B0020BF
:10183000010B00150109000C01090003010800FB60
:10184000000800F3000800EB000700E4000600DEDB
:10185000000600D8000600D2000600CC000500C734
:10186000000500C2000500BD000400B9000400B579
:10187000000400B1000400AD000400A9000400A5AC
:10188000000300A20003009F0004009B00030098D7
:101890000003009500020093000300900003008DF8
:1018A0000002008B00030088000200860002008412
:1018B000000300810002007F0002007D0002007B27
:1018C0000002007900020077000100760002007437
:1018D00000020072000100710002006F0002006D42
:1018E0000001006C0002006A00010069000200674C
:1018F0000001006600010065000100640002006252
:1019000000010061000100600001005F0002005D55
:101910000001005C0001005B0001005A0001005959
:101920000001005800010057000100560001005559
:101930000001005400010053000000530001005258
:1019400000010051000100500001004F0001004E55
:101950000000004E0001004D0001004C0001004B52
:101960000000004B0001004A00010049000100484E
:10197000000000480001004700010046000000464A
:101980000001004500000045000100440001004343
:10199000000000430001004200000042000100413D
:1019A00000000041000100400001003F0000003F36
:1019B0000001003E0000003E0001003D0000003D2F
:1019C0000001003C0000003C0000003C0001003B26
:1019D0000000003B0001003A0000003A000100391D
:1019E0000000003900010038000000380000003815
:1019F000000100370000003700010036000000360B
:101A00000000003600010035000000350000003500
:101A100000010034000000340000003400010033F5
:101A200000000033000000330001003200000032EB
:101A300000000032000100310000003100000031E0
:101A40000001003000000030000000300001002FD5
:101A50000000002F0000002F0000002F0001002ECA
:101A60000000002E0000002E0001002D0000002DBF
:101A70000000002D0000002D0001002C0000002CB3
:101A80000000002C0000002C0001002B0000002BA7
:101A90000000002B0000002B0001002A0000002A9B
:101AA0000000002A0000002A00010029000000298F
:101AB0000000002900000029000000290001002882
:101AC0000000002800000028000000280000002876
:101AD0000001002700000027000000270000002769
:101AE000000000270001002600000026000000265C
:101AF000000000260000002600010025000000254F
:101B00000000002500000025000000250000002541
:101B10000001002400000024000000240000002434
:101B20000000002400010023000000230000002327
:101B30000000002300000023000000230000002319
:101B4000000100220000002200000022000000220C
:101B500000000022000000220001002100000021FE
:101B600000000021000000210000002100000021F1
:101B700000000021000100200000002000000020E3
:101B800000000020000000200000002000000020D5
:101B9000000000200001001F0000001F0000001FC7
:101BA0000000001F0000001F0000001F0000001FB9
:101BB0000001001E0000001E0000001E0000001EAC
:101BC000000000290A002028002920453A0020288A
:101BD0000029205A3A002028002920593A002028BC
:101BE0000020583A005374657070657220637572F6
:101BF00072656E742076616C75657320696E202540
:101C00002028416D7073293A0A0020403A00202FA5
:101C1000004D383420582059205A2045005468651A
:101C2000726D616C2052756E61776179004531206B
:101C3000544845524D414C2052554E415741590050
:101C40004B494C4C45442E2000202D20496E766196
:101C50006C6964206578747275646572206E756D48
:101C600062657220210A0048656174696E672066AA
:101C700061696C65640045312048656174696E670F
:101C8000206661696C6564004D494E54454D502095
:101C900074726967676572656400453120457272C8
:101CA0003A204D494E54454D50004D415854454DF4
:101CB000502074726967676572656400453120451C
:101CC00072723A204D415854454D50006265640A85
:101CD000002C2073797374656D2073746F70706558
:101CE0006421204865617465725F49443A20002C84
:101CF000FFFFFFFFFF000101010101236465666929
:101D00006E652044454641554C545F4B642000238A
:101D1000646566696E652044454641554C545F4B89
:101D200069200023646566696E6520444546415517
:101D30004C545F4B702000504944204175746F74BF
:101D4000756E652066696E697368656421205075DB
:101D50007420746865206C617374204B702C204B68
:101D60006920616E64204B6420636F6E7374616ED2
:101D700074732066726F6D2062656C6F7720696E78
:101D8000746F20436F6E66696775726174696F6EF8
:101D90002E680A00504944204175746F74756E6551
:101DA000206661696C6564212074696D656F757466
:101DB0000A00546865726D616C2052756E617761BE
:101DC0007900453120544845524D414C2052554EE2
:101DD000415741590048656174696E6720666169C1
:101DE0006C65640045312048656174696E672066E2
:101DF00061696C656400504944204175746F747565
:101E00006E65206661696C6564212054656D70653E
:101E100072617475726520746F6F20686967680AF3
:101E200000204B643A2000204B693A2000204B7080
:101E30003A20000A20436C6173736963205049445F
:101E4000200A002054753A2000204B753A200020CB
:101E50006D61783A2000206D696E3A200020643A66
:101E6000200020626961733A200050494420417586
:101E7000746F74756E652073746172740A005049D2
:101E800044204175746F74756E65206661696C6578
:101E900064212042616420657874727564657220E3
:101EA0006E756D6265720A0070012C019001270148
:101EB000B0012201C0011D01F0011801100213013F
:101EC00030020E016002090190020401C002FF000D
:101ED0000003FA004003F5008003F000D003EB009C
:101EE0002004E6007004E100E004DC004005D700B7
:101EF000C005D2004006CD00D006C8008007C30050
:101F00003008BE00F008B900C009B400B00AAF0044
:101F1000B00BAA00D00CA500000EA000500F9B0033
:101F2000C01096005012910000148C00C01587005C
:101F3000B0178200B0197D00D01B7800001E73001E
:101F400040206E0090226900F024640040275F006A
:101F500090295A00E02B5500102E500020304B00E5
:101F600010324600E033410090353C001037370016
:101F700070383200A0392D00B03A2800A03B230071
:101F8000603C1E00103D1900903D1400103E0F00F3
:101F9000703E0A00C03E0500003F0000403FFBFFCE
:101FA000803FF6FFC03FF1FF506C61792056322030
:101FB00052656164792E005072696E74696E672E85
:101FC0002E2E005072696E74207061757365640006
:101FD000506C6561736520726573657400001C1F29
:101FE00011111F00000006191803130C00040E1F26
:101FF000041C000000000E1315110E00001C101828
:102000001705060500040A0A0A0A11110E0C12121D
:102010000C00000000001F1511151F00000000003B
:1020200000010204040000001C1C0C040404020152
:10203000000000000004081000000000002D2D2DFD
:102040002D2D2D007C4D61726C696E7C002D2D2D27
:102050002D2D2D00687474703A2F2F6D61726C698C
:102060006E66772E6F72670020312E312E39000197
:102070002902290429082910292029402980290119
:102080002C022C0126022604260826102620264093
:10209000268026402C802C012302230423082310B1
:1020A0002320234023802301200220042008201025
:1020B00020202040208020102C202C012F022F04D3
:1020C0002F082F102F202F402F802F7EFE7EFD7E89
:1020D000FB7EF77EEF7EDF7EBF7E7F000100008CFF
:1020E00021120002000049214300030000452104A1
:1020F000010309042B211802030904132116030309
:10210000090405210C0C0331003200330034003582
:1021100000000016035500530042002000530065E4
:10212000007200690061006C000000180354006533
:102130000065006E00730079006400750069006E30
:10214000006F0000000403090409024300020100BB
:10215000C032090400000102020100052400100140
:1021600005240100010424020605240600010705D8
:10217000820308004009040100020A00000007056C
:102180000302400000070584024000001201000223
:1021900002000020C0168304720201020301000144
:1021A000C102018036018136F033EC864EA510AFB6
:1021B00017BBF43311241FBECFEFD0E2DEBFCDBF7B
:1021C00012E0A0E0B1E0E4EFFCE801E00BBF02C0E8
:1021D00007900D92A634B107D9F722E1A6E4B2E048
:1021E00001C01D92AA3FB207E1F710E1C9EDD0E1AD
:1021F00004C02197FE010E949FBBC43DD107C9F7CF
:102200000E94D4B30C946DC60C9400004F925F9260
:102210006F927F928F929F92AF92BF92CF92DF92F6
:10222000EF92FF92CF934B015C0169017A0120E0AC
:1022300030E040EA51E40E94C1BB2B013C012FE693
:1022400032E143E85AEB0E94DBBD87FD48C022E43F
:1022500030E04AE253E4C301B2010E9439BC1816CF
:102260000CF43DC02FE632E143E85AEBC701B6015A
:102270000E94DBBD87FD33C022E430E04CE553E42F
:10228000C701B6010E9439BC18164CF124EF3DEF8E
:102290004FE951E4C501B4010E94DBBD87FD1FC0B9
:1022A00022E430E040E253E4C501B4010E9439BCAD
:1022B0001816ACF027EE3BEF4FE151E4C701B60131
:1022C0000E94DBBD87FD0BC0C1E022E430E042E5A7
:1022D00053E4C701B6010E9439BC18160CF4C0E0E3
:1022E0008C2FCF91FF90EF90DF90CF90BF90AF9069
:1022F0009F908F907F906F905F904F900895FB011B
:1023000001900020E9F73197AF01461B570BDC0124
:10231000ED91FC910280F381E02D0994CF93DF933E
:102320001F92CDB7DEB76983DC01ED91FC9102808D
:10233000F381E02D41E050E0BE016F5F7F4F0995D2
:102340000F90DF91CF910895FF920F931F93CF933A
:10235000DF93F82E092F162FE7E4F4E06491EF01E4
:102360002196662329F08EEE92E1D8DFFE01F6CFAA
:10237000EF2DF02F6491EF012196662329F08EEE68
:1023800092E1CCDFFE01F6CFE5E4F4E06491EF01E9
:102390002196662329F08EEE92E1C0DFFE01F6CF92
:1023A000412F50E060E070E08EEE92E10E941BB39E
:1023B0006AE08EEE92E1DF91CF911F910F91FF9035
:1023C000ADCF4F925F926F927F92AF92BF92CF92BA
:1023D000DF92EF92FF92CF93DF93EB01FC016081DC
:1023E0007181828193812CE3C22ED12CE12CF12CBE
:1023F000A70196010E9461BBB62EA72ECA01B901A2
:10240000A70196010E9461BB6B017C01CA01B90161
:1024100028E130E040E050E00E9461BB2B013C012C
:10242000C9016DE671E00E943ABB61157105D9F0F2
:10243000AF92BF92DF92CF925F924F929F938F9312
:102440007F936F938EEB96E09F938F93DF93CF9361
:102450000E9453C38DB79EB70E960FB6F8949EBFD9
:102460000FBE8DBF61C00097C9F0AF92BF92DF92DF
:10247000CF925F924F929F938F938EEA96E09F93B5
:102480008F93DF93CF930E9453C3EDB7FEB73C9673
:102490000FB6F894FEBF0FBEEDBF46C04114510405
:1024A00061047104B9F0AF92BF92DF92CF925F9254
:1024B0004F9282EA96E09F938F93DF93CF930E948F
:1024C00053C38DB79EB70A960FB6F8949EBF0FBE42
:1024D0008DBF2AC0C114D104E104F104A9F0AF9268
:1024E000BF92DF92CF928AE996E09F938F93DF931A
:1024F000CF930E9453C3EDB7FEB738960FB6F8944A
:10250000FEBF0FBEEDBF10C0AF92BF9286E996E04E
:102510009F938F93DF93CF930E9453C30F900F909D
:102520000F900F900F900F90DF91CF91FF90EF9051
:10253000DF90CF90BF90AF907F906F905F904F9063
:10254000089581548A3108F040C0A82FB0E040912E
:102550006D0950916E0960916F097091700904C006
:1025600076956795579547958A95D2F740FF2DC088
:10257000E0917809F0917909AD5AB64F8C91882392
:10258000E1F0E80FF11D808190ED980F9A3080F016
:102590008E3229F4818180538A3078F409C08D32DB
:1025A00011F08B3251F4818190ED980F9A3018F42C
:1025B0009E2F8F2F04C08E3251F090E080E09093D8
:1025C00074098093750981E0089580E008958281FF
:1025D00080538A3090F7ECCFB4DF882341F081E05C
:1025E0002091740930917509232B09F480E0089536
:1025F0000F931F93CF938091740990917509009761
:1026000011F1FC018F01C1912C2F2F7DA9F0C53450
:1026100011F0C536B9F7F801108260E070E08091E2
:102620007409909175090E94BFBEF801C083562FAE
:10263000472F382F292F0BC060E070E0CF911F91FA
:102640000F910C94BFBE50E040E030E020E0652FD9
:10265000742F832F922FCF911F910F910895809106
:10266000740990917509009731F04AE050E060E0FC
:1026700070E00C9425C060E070E0CB01089580917B
:10268000740990917509009731F04AE050E060E0DC
:1026900070E00C944DC160E070E0CB010895DFDF85
:1026A00097FD0AC0DCDF6F3F71058105910509F0D8
:1026B0002CF4D5DF862F089580E008958FEF0895DC
:1026C0008091740990917509892B31F0E8DF91E0D0
:1026D000811103C090E001C091E0892F08950F930C
:1026E0001F93CF93DF93CDB7DEB72C970FB6F89437
:1026F000DEBF0FBECDBFEBEAF4E080859185A285F9
:10270000B385448155816681778100811181228161
:10271000338109871A872B873C874D835E836F83BC
:10272000788789839A83AB83BC83AE014F5F5F4F09
:10273000BE016B5F7F4FCE0109960E94FB7527EBB0
:1027400034E0AE014F5F5F4FBE016B5F7F4FCE0144
:1027500009960E949C842C960FB6F894DEBF0FBE9B
:10276000CDBFDF91CF911F910F9108952F923F928E
:102770004F925F926F927F929F92AF92BF92CF9251
:10278000DF92EF92FF920F931F93CF93DF93CDB71A
:10279000DEB764970FB6F894DEBF0FBECDBF2A0137
:1027A0003B01902EA12E6901082F10E0F801EC5D8D
:1027B000F54FE491BB24B3941E160CF4B12CFF2406
:1027C000F39420E030E0A901C301B2010E94DBBD17
:1027D00018160CF0F12C000F111F000F111FC8016B
:1027E00085559B4F1C01FC011082118212821382BD
:1027F00076DFF1014082518262827382E090CF02E3
:1028000020E030E0A901692D7A2DC6010E9439BC73
:10281000811108C0F801ED59F54F85919591A59169
:10282000B49103C0892D9A2DD601898B9A8BAB8BDD
:10283000BC8B8091B3049091B404A091B504B09185
:10284000B6044091AF045091B0046091B10470910E
:10285000B2040091AB041091AC042091AD0430910E
:10286000AE040D871E872F87388B49875A876B8761
:102870007C878D839E83AF83B88719821A821B82DF
:102880001C82AE014B5F5F4FBE01675F7F4FCE0181
:102890000D960E94FB75CE0101966C018E010F5EB4
:1028A0001F4F27EB34E0AE014B5F5F4FBE01675F08
:1028B0007F4F0C960E94BA830E949777BF100E94A8
:1028C000966A64960FB6F894DEBF0FBECDBFDF9157
:1028D000CF911F910F91FF90EF90DF90CF90BF901D
:1028E000AF909F907F906F905F904F903F902F9010
:1028F000089567EB74E083E00C94C28590918E0498
:10290000E92FF0E0E255FD4F80839F5F943018F48B
:1029100090938E0402C010928E04809190048F5F79
:10292000809390040895CF93FC0180818B33A1F0B4
:1029300080919004843080F4C62FBF0180918E0472
:1029400020E6829FC0011124825F9C4F0E9424C315
:102950008C2FD4DF81E001C080E0CF910895EF9209
:10296000FF921F93CF93DF937C0160E0DCDF182F91
:102970008823C9F0E4E8F3E16491EF01219666232E
:1029800029F08EEE92E1CADCFE01F6CFB70187E1B5
:102990009AE00E94F08662E28EEE92E1BFDC6AE08D
:1029A0008EEE92E1BBDC812FDF91CF911F91FF90E2
:1029B000EF900895DF92EF92FF920F931F93CF93C2
:1029C000DF93CDB7DEB76E970FB6F894DEBF0FBEBC
:1029D000CDBF60910C0370910D036115710541F13C
:1029E0004DE150E0CE0101967C010E94B3C21E8EE3
:1029F000F7018F010E191F09D190DD2019F09AE01F
:102A0000D912F7CFF701E00FF11F1082C701A7DF3E
:102A1000882371F0DD20A9F00F5F1F4F80910C0318
:102A200090910D03080F191F10930D0300930C03D1
:102A300081E020910C0330910D03232B29F480E0D9
:102A400003C000E010E0F0CF6E960FB6F894DEBF42
:102A50000FBECDBFDF91CF911F910F91FF90EF90EF
:102A6000DF90089590930D0380930C03A3CFEF9212
:102A7000FF920F931F93CF93DF937C0184E5ACDD2E
:102A8000D82F882369F10BDEC82F18162CF5E4E83F
:102A9000F3E164918F010F5F1F4F662329F08EEEE3
:102AA00092E13CDCF801F5CF6DE48EEE92E136DC8C
:102AB000A70160E070E020E08EEE92E10E94BFB2DC
:102AC0006C2FCC0F770B8CEA98E00E9418876AE095
:102AD0008EEE92E123DC08C08093C202D0E004C0F5
:102AE0008091CF028093C2028D2FDF91CF911F91F1
:102AF0000F91FF90EF9008950F931F93CF93DF9363
:102B000094E0899FE00111248E0102521D4FFE01C5
:102B1000E651FD4FDE01AA50BD4F2D913D914D91E3
:102B20005C9160817181828193810E94C2BBF801B6
:102B30006083718382839383FE01E95AF54F859107
:102B40009591A591B491FE01EE52FD4F8083918342
:102B5000A283B383FE01E55BF54F85919591A59125
:102B6000B491C55FDE4F88839983AA83BB83DF91CD
:102B7000CF911F910F910895CF92DF92EF920F9313
:102B80001F93CF93DF93CDB7DEB760970FB6F8945E
:102B9000DEBF0FBECDBFE090CF02EBEAF4E0808550
:102BA0009185A285B38544815581668177810081B5
:102BB0001181228133810D871E872F87388B4987AA
:102BC0005A876B877C878D839E83AF83B8871982F2
:102BD0001A821B821C82AE014B5F5F4FBE01675F92
:102BE0007F4FCE010D960E94FB75CE0101966C01C0
:102BF00009E111E027EB34E0AE014B5F5F4FBE010E
:102C0000675F7F4F0C960E94BA8360960FB6F89468
:102C1000DEBF0FBECDBFDF91CF911F910F91EF901F
:102C2000DF90CF9008954F925F926F927F928F9234
:102C30009F92AF92BF92CF92DF92EF92FF920F934B
:102C40001F93CF93DF93CDB7DEB72C970FB6F894D1
:102C5000DEBF0FBECDBF6D837E838F8398872987AC
:102C60003A874B875C8747015801360180911901EB
:102C700090911A01A0911B01B0911C0189839A8344
:102C8000AB83BC83D601CD90DD90ED90FC9020E02D
:102C900030E0A901C701B6010E9439BC811106C00C
:102CA000EBE6FAE0C590D590E590F490A50194018B
:102CB0006091B3047091B4048091B5049091B6040E
:102CC0000E9439BC87FF11C0C0921901D0921A012D
:102CD000E0921B01F0921C018092B3049092B40424
:102CE000A092B504B092B60447DFF3014080518052
:102CF0006280738020E030E0A901C301B2010E942C
:102D000039BC811108C040900101509002016090CF
:102D10000301709004014092190150921A016092CF
:102D20001B0170921C018D819E81AF81B8858093BB
:102D3000AB049093AC04A093AD04B093AE0489852A
:102D40009A85AB85BC858093AF049093B004A09323
:102D5000B104B093B20410DFA50194016091B304F3
:102D60007091B4048091B5049091B6040E94DBBDCB
:102D700018168CF4C0921901D0921A01E0921B012E
:102D8000F0921C018092B3049092B404A092B50416
:102D9000B092B604F1DE0E94977789819A81AB8167
:102DA000BC818093190190931A01A0931B01B093E9
:102DB0001C012C960FB6F894DEBF0FBECDBFDF917D
:102DC000CF911F910F91FF90EF90DF90CF90BF9028
:102DD000AF909F908F907F906F905F904F900895ED
:102DE000CF92DF92EF92FF920F931F936B01FC0142
:102DF000E080F18002811381EBEAF4E024813581E7
:102E00004681578160817181828193810CDF1F919E
:102E10000F91FF90EF90DF90CF900895CF92DF92C7
:102E2000EF92FF920F931F936A01E090B304F0902A
:102E3000B4040091B5041091B604FB0120813181E6
:102E400042815381FC016081718182819381EBDE3B
:102E50001F910F91FF90EF90DF90CF900895809198
:102E6000190190911A01A0911B01B0911C0180934E
:102E7000080390930903A0930A03B0930B03809176
:102E8000170190911801909307038093060384E63D
:102E900090E09093180180931701089580910803A2
:102EA00090910903A0910A03B0910B03809319013B
:102EB00090931A01A0931B01B0931C01809106030B
:102EC0009091070390931801809317010895EF9252
:102ED000FF921F93CF93DF93882329F0D0919A0418
:102EE000D095D17001C0D0E0662341F010919A04D2
:102EF00011FB882780F911E0182701C010E0442356
:102F000041F0C0919A04C2FB882780F9C1E0C8272C
:102F100001C0C0E0D11105C0111103C0CC2309F4D8
:102F200086C0E4E8F3E164917F018FEFE81AF80AC4
:102F3000662329F08EEE92E1F1D9F701F4CFE6EAAB
:102F4000F8E064917F019FEFE91AF90A662329F0FE
:102F50008EEE92E1E3D9F701F4CFDD2371F0E4EADC
:102F6000F8E064917F018FEFE81AF80A662329F0F0
:102F70008EEE92E1D3D9F701F4CF112371F0E2EA9A
:102F8000F8E064917F019FEFE91AF90A662329F0BE
:102F90008EEE92E1C3D9F701F4CFC11103C0E8E985
:102FA000F8E00EC0E0EAF8E064917F018FEFE81AE4
:102FB000F80A6623A1F38EEE92E1B0D9F701F4CFBF
:102FC00064917F019FEFE91AF90A662329F08EEEDA
:102FD00092E1A4D9F701F4CFC11103C043EE51E04F
:102FE00002C043ED51E0111103C023EE31E002C0F5
:102FF00025ED31E0D11103C083EE91E002C087EDF1
:1030000091E05F934F933F932F939F938F9386E825
:1030100098E09F938F931F920E942DA58DB79EB726
:1030200009960FB6F8949EBF0FBE8DBFC1E08C2FDE
:10303000DF91CF911F91FF90EF900895BF92CF92B3
:10304000DF92EF92FF920F931F93CF93DF93CDB751
:10305000DEB728970FB6F894DEBF0FBECDBF9091B4
:103060004D09981709F47AC0B82E882309F453C083
:1030700080E090E0A0EAB0E48D839E83AF83B887C0
:10308000C090BE02D090BF02E090C002F090C1029A
:1030900020E030E0A901C701B6010E9439BC87FFDA
:1030A0000CC0A701960160E070E080EA90E40E9405
:1030B000C1BB6D837E838F83988720E030E043E43B
:1030C00053E46D817E818F8198850E94DBBD181647
:1030D00044F480E090E0A3E4B3E48D839E83AF8367
:1030E000B8872091B3043091B4044091B504509155
:1030F000B6046D817E818F8198850E94DBBD181694
:1031000054F419821A821B821C82BE016F5F7F4FAA
:10311000CE01059665DE6091AB047091AC048091A0
:10312000AD049091AE042091AF043091B004409171
:10313000B1045091B20419821A821B821C82E09061
:10314000B304F090B4040091B5041091B604FE01EC
:1031500031966F0168DD8B2D0E94A16A80E0289670
:103160000FB6F894DEBF0FBECDBFDF91CF911F9198
:103170000F91FF90EF90DF90CF90BF9008954F9206
:103180005F926F927F928F929F92AF92BF92CF92F7
:10319000DF92EF92FF920F931F93CF93C82FE82EE9
:1031A000F12CF701EC5DF54FB490823021F481E011
:1031B00045DF811107C16701CC0CDD1CCC0CDD1C87
:1031C000F601ED5CF54F45905590659074906B2D30
:1031D000BB0C770B880B990B0E94D8BC4B015C0190
:1031E00020E030E040EC5FE3C301B2010E940FBE7B
:1031F000A50194010E940FBEAB01BC0100E010E0EC
:1032000098018C2FB3DAC23041F0F601E95DF54F39
:10321000259135914591549104C020E030E040E47F
:1032200050E4C501B4010E940FBE4B015C0120E0D7
:1032300030E0A9010E9439BC882309F45CC0C23087
:1032400021F000E010E0980104C000E010E020E868
:1032500030E4B501A40170588C2F88DAC23009F42B
:1032600039C0F701EF5EF74F849181111DC0E4E88A
:10327000F3E164917F018FEFE81AF80A662329F0E1
:103280008EEE92E14BD8F701F4CFEFEEF7E06491C8
:103290007F018FEFE81AF80A662329F08EEE92E19B
:1032A0003DD8F701F4CF8AE0F601ED59F54F45908E
:1032B000559065907490682F70E080E090E00E94D7
:1032C000D8BC9B01AC01C301B2010E943DBC2B01E3
:1032D0003C0105C0412C512C612C90E4792EA501B4
:1032E0009401C501B4010E94C2BBAB01BC019301B2
:1032F00082018C2F3BDA81E090E00C2E01C0880F18
:103300000A94EAF790919904982B909399049091DC
:103310009A04892B80939A04F601EA50FD4F10829B
:103320001182128213828C2FE7DBF601E15CF54FEC
:1033300085919591A591B491F601E555FB4F808358
:103340009183A283B383C230D1F42091BE02309125
:10335000BF024091C0025091C1026091B3047091CC
:10336000B4048091B5049091B6040E94C1BB6093EF
:10337000B3047093B4048093B5049093B604AFD9AA
:10338000F601E556FB4FD601A555BB4F8D919D919A
:103390000D90BC91A02D80839183A283B383C23012
:1033A00089F480E0CF911F910F91FF90EF90DF9013
:1033B000CF90BF90AF909F908F907F906F905F90D5
:1033C0004F903CCECF911F910F91FF90EF90DF90E7
:1033D000CF90BF90AF909F908F907F906F905F90B5
:1033E0004F900895AF92BF92CF92DF92EF92FF92EB
:1033F0000F931F93CF93DF938BEFA82E81E0B82E0E
:103400009BE9E92E94E0F92E0BEA14E02EEDC22E92
:1034100022E0D22EC0E0D0E0F50181915F0191D889
:10342000882319F1E5D8FE01EE5FFC4F20812111C0
:1034300004C02091CE02222341F0F8012081318185
:10344000428153810E94C2BB0AC0C330D10539F00A
:10345000F60120813181428153810E94C1BBF70175
:1034600060837183828393830AC0F8018081918194
:10347000A281B381F70180839183A283B3832196D4
:10348000F4E0EF0EF11C0C5F1F4F84E0C80ED11C5E
:10349000C430D10509F0C0CF86E49ED88823B9F0A6
:1034A000A7D820E030E0A9010E94DBBD18167CF40B
:1034B0009FD820E030E040E752E40E943DBC60939A
:1034C000190170931A0180931B0190931C01DF91E5
:1034D000CF911F910F91FF90EF90DF90CF90BF9011
:1034E000AF900895CF92DF92EF92FF920F931F93C8
:1034F000CF93DF930FB6F894C090E312D090E4120C
:10350000E090E512F090E6120FBE8091CD0281119D
:1035100074C080910001882309F46FC08091AD02CE
:10352000882309F46AC04091A9025091AA026091CF
:10353000AB027091AC0297018601041B150B260BA0
:10354000370B37FD6DC0833031F134F481300CF42A
:1035500054C0E4E8F3E106C0843009F04EC0E4E86A
:10356000F3E133C06491EF012196662331F08EEED2
:1035700092E10E948E11FE01F5CFE3E4F8E0649140
:10358000EF012196662309F438C08EEE92E10E9485
:103590008E11FE01F4CFE4E8F3E16491EF0121968E
:1035A000662331F08EEE92E10E948E11FE01F5CF7E
:1035B000ECE2F8E06491EF0121966623F1F08EEEE3
:1035C00092E10E948E11FE01F5CF6491EF012196E8
:1035D000662331F08EEE92E10E948E11FE01F5CF4E
:1035E000E4E1F8E06491EF012196662331F08EEE7C
:1035F00092E10E948E11FE01F5CF2091000130E092
:10360000A8EEB3E00E94A8BBC60ED71EE81EF91EA6
:10361000C092A902D092AA02E092AB02F092AC0250
:10362000DF91CF911F910F91FF90EF90DF90CF909E
:1036300008950F931F93CF93DF9300D000D0CDB7A1
:10364000DEB7809199048370833011F160E081EEE0
:1036500097E00E94D4A4E4E8F3E164918F010F5F46
:103660001F4F662331F08EEE92E10E948E11F80119
:10367000F4CFE2EDF7E064918F010F5F1F4F6623F7
:1036800009F43DC08EEE92E10E948E11F801F3CF55
:1036900026D880E090E0ACEDB2E480939F04909354
:1036A000A004A093A104B093A2048091B3049091CC
:1036B000B404A091B504B091B6048093A304909390
:1036C000A404A093A504B093A60480E090E0A2E82F
:1036D000B2E480939B0490939C04A0939D04B093C8
:1036E0009E0419821A821B821C82AE014F5F5F4FBB
:1036F0006FE974E08BE994E091DB82E040DD0F90AC
:103700000F900F900F90DF91CF911F910F9108951F
:10371000CF93DF93EDEFF6E06491EF0121966623FE
:1037200031F08EEE92E10E948E11FE01F5CF8CEB0E
:1037300094E00E942E51EEEEF6E06491EF012196A6
:10374000662331F08EEE92E10E948E11FE01F5CFDC
:10375000DF91CF9108958091BF048823A9F083E57C
:103760000E94EC12882381F00E942F13AB01BC0150
:1037700040932A0750932B0760932C0770932D07D3
:1037800089E796E00C94B9440895CF93DF9383E4DE
:103790000E94A112882399F0EFEDF6E06491EF0109
:1037A0002196662331F08EEE92E10E948E11FE0189
:1037B000F5CF8CEB94E0DF91CF910C9474518CEBAE
:1037C00094E0DF91CF910C94A2520F931F93CF936B
:1037D000DF93CDB7DEB769970FB6F894DEBF0FBEA3
:1037E000CDBF0E94F0966E8B7F8B888F998FBE0124
:1037F0006F5F7F4FCE0146960E94E11160E0CE01DF
:1038000001960E94ADA4E4E8F3E164918F010F5F9B
:103810001F4F662331F08EEE92E10E948E11F80167
:10382000F4CFBE016F5F7F4F82ED96E00E94F0867D
:103830006AE08EEE92E10E948E1169960FB6F894BE
:10384000DEBF0FBECDBFDF91CF911F910F910895C5
:10385000CF938091BE0481110E9497778091BF041D
:103860008823A9F180E50E94EC12882321F00E94B0
:103870006013C82F04C080E50E94A112C82F609178
:103880007609709177092C2F41E08CEB94E00E942F
:10389000875483E50E94EC12882381F00E942F1345
:1038A000AB01BC0140932A0750932B0760932C0770
:1038B00070932D0789E796E00E94B9448CEB94E061
:1038C0000E940D52C11103C0CF910C942F97CF913C
:1038D0000895CF93DF93EAE8F3E16491EF01219635
:1038E000662331F08EEE92E10E948E11FE01F5CF3B
:1038F000EAE5F6E06491EF012196662331F08EEE61
:1039000092E10E948E11FE01F5CFDF91CF910895D3
:1039100088E690E0ACD8811124C08091BB0483FD7F
:1039200020C083E50E94EC128823C9F00E94F8129F
:103930000E94A5BC7093E0116093DF1180E00E94AB
:10394000669A0E94F81220E030E04AEA52E40E94AF
:1039500039BC181624F00E9499960E940EA50C946A
:10396000BC860895CF93DF9389E690E080D88111DB
:1039700016C0ECE0F6E06491EF012196662331F089
:103980008EEE92E10E948E11FE01F5CF0E94A29E62
:103990006AE08EEE92E1DF91CF910C948E11DF916F
:1039A000CF910895CF92DF92EF92FF9283E50E942C
:1039B000EC12882321F10E944F138D3308F08CE321
:1039C000809391110FB6F894C090E312D090E41256
:1039D000E090E512F090E6120FBE282F30E0A8EE3E
:1039E000B3E00E94A8BBC60ED71EE81EF91EC09207
:1039F0008D11D0928E11E0928F11F0929011FF9064
:103A0000EF90DF90CF90089580E50E94EC12811135
:103A100006C083E50E94EC12882359F005C00E947D
:103A20004F1381110CC0F5CF0E942F136F3F71050A
:103A300010F06FEF70E07093D1026093D0020895A0
:103A4000DF92EF92FF920F931F93CF93DF9383E563
:103A50000E94A112882359F083E50E94EC1288236A
:103A600019F00E944F1301C080E08093BB04E4E88A
:103A7000F3E16491EF012196662331F08EEE92E13D
:103A80000E948E11FE01F5CFE3E5F6E06491EF01AF
:103A90002196662331F08EEE92E10E948E11FE0196
:103AA000F5CF8091BB048823A9F189E4E82E86E054
:103AB000F82E00E010E020E08091BB0490E0002EA2
:103AC00002C0959587950A94E2F780FF1AC0DD241D
:103AD000D394D20E222329F06CE28EEE92E10E9462
:103AE0008E11F70185919491FC016491EC0121966E
:103AF000662331F08EEE92E10E948E11CE01F4CF5A
:103B00002D2D0F5F1F4FF2E0EF0EF11C0530110558
:103B100099F60DC0E5E4F6E06491EF012196662385
:103B200031F08EEE92E10E948E11FE01F5CF6AE037
:103B30008EEE92E1DF91CF911F910F91FF90EF9068
:103B4000DF900C948E11CF93DF9383E50E94EC12EB
:103B5000882351F00E944F138D3308F08CE380933B
:103B60000001DF91CF910895E4E8F3E16491EF0162
:103B70002196662331F08EEE92E10E948E11FE01B5
:103B8000F5CF4091000150E060E070E08FE096E0FA
:103B90000E9476876AE08EEE92E1DF91CF910C94DD
:103BA0008E114F925F926F927F92AF92BF92CF929F
:103BB000DF92EF92FF920F931F93CF938BEFA82E7C
:103BC00081E0B82E06E21AE0C0E0F50181915F01C4
:103BD0000E94A112882309F46DC0C33009F063C0AC
:103BE0000E94F8126B017C0120E030E040EA51E4D1
:103BF0000E9439BC87FF4EC0A70196016091320A2E
:103C00007091330A8091340A9091350A0E943DBC2C
:103C10002B013C019B01AC016091FE097091FF09F1
:103C20008091000A9091010A0E940FBE6093FE09E4
:103C30007093FF098093000A9093010AA3019201F7
:103C40006091420A7091430A8091440A9091450A1A
:103C50000E940FBE6093420A7093430A8093440A05
:103C60009093450A6091560A7091570A8091580ABC
:103C70009091590A0E94D6BCA30192010E940FBEE6
:103C80000E94AABC6093560A7093570A8093580A00
:103C90009093590AC092320AD092330AE092340AC1
:103CA000F092350A07C00E94F812F8016083718310
:103CB00082839383CF5F0C5F1F4FC43009F085CFA1
:103CC000CF911F910F91FF90EF90DF90CF90BF9019
:103CD000AF907F906F905F904F900C9498860F9369
:103CE0001F93CF93DF93CBEAD4E00EED12E0F801FF
:103CF0002081318142815381688179818A819B81D0
:103D00000E94C2BBAB01BC0189EC97E00E945587C1
:103D1000F80124813581468157816C817D818E81B6
:103D20009F810E94C2BBAB01BC0185EC97E00E9461
:103D30005587F801208531854285538568857985C9
:103D40008A859B850E94C2BBAB01BC0181EC97E0D8
:103D50000E9455874C855D856E857F858DEB97E04C
:103D60000E945587DF91CF911F910F910C94B194D0
:103D70004F925F926F927F928F929F92AF92BF927B
:103D8000CF92DF92EF92FF920F931F93CF93DF9327
:103D90008BEFC82E81E0D82E96EFE92E92E0F92E17
:103DA00000E010E0C0E0D0E0F60181916F010E94D8
:103DB000EC12882309F44DC00E94F8124B015C01FB
:103DC000C33059F0F801E252FD4F20813181428128
:103DD00053810E94C1BB4B015C01F801E555FB4FCB
:103DE0002081318142815381C501B4010E94C1BB50
:103DF0002B013C012DEB37E346E855EB0E94DBBD80
:103E000087FD0AC02DEB37E346E855E3C301B20155
:103E10000E9439BC1816ECF4C33051F48092B704F8
:103E20009092B804A092B904B092BA04D1E011C043
:103E3000A3019201F70160817181828193810E94C7
:103E4000C2BBF70160837183828393838C2F0E94AE
:103E50007C15CF5FF4E0EF0EF11C0C5F1F4FC430F8
:103E600009F0A2CFD1110E947914DF91CF911F9157
:103E70000F91FF90EF90DF90CF90BF90AF909F9009
:103E80008F907F906F905F904F9029CFCF93DF936B
:103E9000EBE2F5E06491EF012196662331F08EEEBE
:103EA00092E10E948E11FE01F5CF60E08BE195E07A
:103EB0000E94A41161E084E195E00E94A41161E0F8
:103EC00089E095E00E94A41161E089EF94E00E94EE
:103ED000A41160E080EF94E00E94A41161E086EEFE
:103EE00094E00E94A41161E08CED94E00E94A41182
:103EF00061E084ED94E00E94A41161E086EC94E01E
:103F00000E94A41160E088EB94E00E94A41160E09C
:103F100089EA94E00E94A41160E08BE994E00E9499
:103F2000A41160E085E894E00E94A41160E084E7B9
:103F300094E00E94A41160E08FE594E00E94A41137
:103F400061E08CE494E0DF91CF910C94A411FF9296
:103F50000F931F93CF93DF93C0917609D091770988
:103F600083E0F12C40E08150D1F09881292F2B7F04
:103F70002134C9F729812133B1F7913421F09534E7
:103F800021F441E002C0FF24F3949E012E5F3F4FD5
:103F9000E9012F5F3F4F98819032D1F3E4CF442362
:103FA00071F0E4E8F3E164918F010F5F1F4F662326
:103FB00031F08EEE92E10E948E11F801F4CFFF20D5
:103FC00071F0E1E4F4E064918F010F5F1F4F66230D
:103FD00031F08EEE92E10E948E11F801F4CFBE0115
:103FE0008EEE92E10E947F116AE08EEE92E1DF9107
:103FF000CF911F910F91FF900C948E11CF9388EC6D
:1040000090E00E943715811140C084E40E94A11203
:104010008823C1F10E94F812C1E020E030E0A9013C
:104020000E9439BC811101C0C0E0C0937A09CC2341
:1040300049F10E94F812E091C20224E0E29FF001EF
:104040001124E251F64F608371838283938320E0D1
:1040500030E0A9016091EE097091EF098091F009BB
:104060009091F1090E9439BC81110CC080E090E070
:10407000A0EEBFE38093EE099093EF09A093F009BF
:10408000B093F109CF910C949675CF910895CF9389
:1040900083E50E94EC128823A1F00E94F81260933D
:1040A0000E0A70930F0A8093100A9093110A60937E
:1040B000060A7093070A8093080A9093090AC0E0E1
:1040C00001C0C1E080E50E94EC12882359F00E94F3
:1040D000F81260930E0A70930F0A8093100A90935F
:1040E000110AC0E082E50E94EC12882359F00E9478
:1040F000F81260930A0A70930B0A80930C0A90934B
:104100000D0AC0E084E50E94EC12882359F00E9459
:10411000F8126093060A7093070A8093080A909336
:10412000090A2CC0CC2351F140910E0A50910F0A7C
:104130006091100A7091110A81E394E00E94558702
:1041400040910A0A50910B0A60910C0A70910D0A75
:104150008EE294E00E9455874091060A5091070A2A
:104160006091080A7091090A8BE294E00E945587D9
:104170006AE08EEE92E1CF910C948E11CF9108956A
:1041800081E50E94A112882351F00E943F136093A1
:10419000460A7093470A8093480A9093490A83E538
:1041A0000E94A112882351F00E94F8126093120A13
:1041B0007093130A8093140A9093150A84E50E9461
:1041C000A112882351F00E94F8126093020A7093A2
:1041D000030A8093040A9093050A88E50E94A112BD
:1041E000882351F00E94F8126093F2097093F3094A
:1041F0008093F4099093F50989E50E94A112882320
:1042000051F00E94F8126093F6097093F7098093B9
:10421000F8099093F9098AE50E94A112882351F0C8
:104220000E94F8126093FA097093FB098093FC09CD
:104230009093FD0985E40E94A112882351F00E9409
:10424000F8126093FE097093FF098093000A90931F
:10425000010A0895EF92FF920F931F93CF938BEF74
:10426000E82E81E0F82E0AEE12E0C0E0F70181911D
:104270007F010E94A112882351F00E94F812F801D8
:1042800060837183828393838C2F0E947C15CF5F20
:104290000C5F1F4FC33051F7CF911F910F91FF90CB
:1042A000EF901DCDCF93DF93E4E8F3E16491EF014C
:1042B0002196662331F08EEE92E10E948E11FE016E
:1042C000F5CF83E50E94A112882321F00E9460139C
:1042D00080930A01EFEDF3E06491EF0121966623EC
:1042E00031F08EEE92E10E948E11FE01F5CF8091A9
:1042F0000A01811103C0E7EDF3E002C0EBEDF3E04A
:104300006491EF012196662331F08EEE92E10E94D6
:104310008E11FE01F5CFEFECF3E06491EF012196F1
:10432000662331F08EEE92E10E948E11FE01F5CFF0
:104330002091DE023091DF024091E0025091E102D3
:104340006091D2027091D3028091D4029091D502F3
:104350000E94C2BBAB01BC018DEC93E00E9455876B
:104360002091E2023091E3024091E4025091E50293
:104370006091D6027091D7028091D8029091D902B3
:104380000E94C2BBAB01BC018AEC93E00E9455873E
:104390002091E6023091E7024091E8025091E90253
:1043A0006091DA027091DB028091DC029091DD0273
:1043B0000E94C2BBAB01BC0187EC93E00E94558711
:1043C000EFEBF3E06491EF012196662331F08EEE7E
:1043D00092E10E948E11FE01F5CF2091DE02309114
:1043E000DF024091E0025091E10260910B01709177
:1043F0000C0180910D0190910E010E94C2BBAB0196
:10440000BC018DEB93E00E9455872091E202309130
:10441000E3024091E4025091E50260910F01709136
:10442000100180911101909112010E94C2BBAB0159
:10443000BC018AEB93E00E9455872091E6023091FF
:10444000E7024091E8025091E902609113017091F6
:10445000140180911501909116010E94C2BBAB011D
:10446000BC0187EB93E00E9455876AE08EEE92E1F3
:10447000DF91CF910C948E110F931F93CF93DF9305
:104480008DED90E00E943715811170C083E50E9488
:10449000EC128823B9F1C091C202D0E00E942F1320
:1044A000CC0FDD1FC25DDE4F798368838091C2022D
:1044B00090E0EC01CC0FDD1FCC0FDD1F8E01065DFF
:1044C0001E4F880F991FFC01E25DFE4F60817181D4
:1044D000072E000C880B990B0E94D8BC2AE037ED00
:1044E00043E25CE30E940FBEC651D64F288139815A
:1044F0004A815B810E940FBEF801608371838283D1
:10450000938334C0E4E8F3E16491EF0121966623DC
:1045100031F08EEE92E10E948E11FE01F5CF65E43E
:104520008EEE92E10E948E116091C202605D8EEE6D
:1045300092E10E948E11E091C202F0E0EE0FFF1FA7
:10454000E25DFE4F608171818FEA93E00E941887DF
:1045500065E28EEE92E10E948E116AE08EEE92E1AB
:10456000DF91CF911F910F910C948E11DF91CF911C
:104570001F910F910895CF92DF92EF92FF92CF9308
:10458000DF938AE50E94EC12811106C083E50E9448
:10459000EC12882309F481C00E94F81220E030E078
:1045A00040E050EC0E9439BC87FD15C00E94F81213
:1045B00020E030E040E050E40E94DBBD18162CF013
:1045C0000E94F8126B017C010BC0C12CD12CE12C94
:1045D00090E4F92E05C0C12CD12CE12C80ECF82EF2
:1045E00020912E0A30912F0A4091300A5091310AC1
:1045F0008091990482FF10C0C091D111D091D21145
:10460000C701B6010E940FBE0E94A5BCC60FD71FEE
:10461000D093D211C093D11180E50E94A1128823BA
:1046200021F00E9460138823C1F1A70196016091D7
:10463000BE027091BF028091C0029091C1020E949F
:10464000C2BB6093BE027093BF028093C00290937E
:10465000C102E4E8F3E16491EF012196662331F0B1
:104660008EEE92E10E948E11FE01F5CF4091BE02C6
:104670005091BF026091C0027091C1028EE993E037
:104680000E9455876AE08EEE92E1DF91CF91FF9014
:10469000EF90DF90CF900C948E11DF91CF91FF902F
:1046A000EF90DF90CF900895CF93DF9385E40E9441
:1046B000EC12811110C080E50E94A112882391F0B4
:1046C0000E94F8126093DB117093DC118093DD116E
:1046D0009093DE1107C00E944F13882361F3EAE82C
:1046E000F3E172C089E40E94A112882381F00E9444
:1046F000F8122CEA35EC47E25EE30E940FBE6093AD
:10470000D7117093D8118093D9119093DA1184E462
:104710000E94A112882381F00E94F8122CEA35EC45
:1047200047E25EE30E943DBC6093D3117093D411C5
:104730008093D5119093D611E4E8F3E16491EF01F1
:104740002196662331F08EEE92E10E948E11FE01D9
:10475000F5CF4091DB115091DC116091DD1170912A
:10476000DE118AE993E00E9455872CEA35EC47E296
:104770005EE36091D7117091D8118091D911909119
:10478000DA110E943DBCAB01BC0186E993E00E94B6
:1047900055872CEA35EC47E25EE36091D3117091C6
:1047A000D4118091D5119091D6110E940FBEAB010A
:1047B000BC0182E993E00E9455876AE08EEE92E1A7
:1047C000DF91CF910C948E116491EF0121966623B5
:1047D00031F08EEE92E10E948E11FE01F5CFE0E8FD
:1047E000F3E06491EF012196662331F08EEE92E1C1
:1047F0000E948E11FE01F5CFDF91CF910895CF93E6
:10480000DF9383E50E94A112C82F882371F00E94D4
:10481000F8120E94A5BC70934D0160934C0121E0F9
:10482000672B09F020E02093C61180E50E94A112B9
:10483000882359F020914C0130914D01232B11F028
:104840000E9460138093C61131C0C1112FC0E4E8EB
:10485000F3E16491EF012196662331F08EEE92E14F
:104860000E948E11FE01F5CF8091C611811103C007
:104870006CED71E002C069ED71E08DE693E00E949D
:10488000F08660914C0170914D018CE593E00E949F
:104890001887E8E5F3E06491EF012196662331F093
:1048A0008EEE92E10E948E11FE01F5CFDF91CF9145
:1048B00008958F929F92AF92BF92EF92FF920F93C3
:1048C0001F93CF93DF9300D000D0CDB7DEB785E440
:1048D0000E94EC12882321F00E942F138B0102C04A
:1048E00000E010E083E40E94EC12882321F00E9493
:1048F0002F13F62E02C025E0F22E85E50E94EC1261
:10490000882321F00E946013E82E04C085E50E94F0
:10491000A112E82E17FD07C0812C912C96E1A92E3B
:1049200093E4B92E06C0812C912C8CE8A82E82E449
:10493000B82E83E50E94EC12882321F00E94F81221
:104940004B015C01C501B4010E94A5BC0115110514
:1049500011F41092C202072E000C880B990B0E94D2
:10496000D8BC69837A838B839C832E2D4F2D602F37
:10497000CE0101960E94F59E0F900F900F900F9020
:10498000DF91CF911F910F91FF90EF90BF90AF906B
:104990009F908F9008952F923F924F925F926F92C7
:1049A0007F928F929F92AF92BF92CF92DF92EF92BF
:1049B000FF920F931F93CF93DF93CDB7DEB72F975F
:1049C0000FB6F894DEBF0FBECDBF41E061E081E0DD
:1049D0000E9467178111DAC09FE3892E9AE0992E11
:1049E0008BEA94E09E878D87FE0131965F0104E299
:1049F0001AE01F01F3E0F00FFF87F4016591759154
:104A000085919491ED85FE85C190D190E190F190D2
:104A1000FE87ED87A70196010E94C1BB2B013C01D7
:104A200020E030E040EA51EC0E94DBBD87FD10C081
:104A300020E030E040EA51E4C301B2010E9439BCF9
:104A4000181634F0F10140825182628273820DC0E7
:104A5000F80184911816B4F7F7FAF094F7F8F09487
:104A6000F101C082D182E282F382F101C190D19042
:104A7000E190F1901F0120E030E040EA51ECC701E5
:104A8000B6010E94DBBD87FF03C0EAE8F3E10BC07B
:104A900020E030E040EA51E4C701B6010E9439BC91
:104AA0001816BCF5F2CF64918F010F5F1F4F66237C
:104AB00031F08EEE92E10E948E11F801F4CFEDE01C
:104AC000F4E064918F010F5F1F4F662331F08EEE8B
:104AD00092E10E948E11F801F4CF8FEF93E02F96B0
:104AE0000FB6F894DEBF0FBECDBFDF91CF911F91FF
:104AF0000F91FF90EF90DF90CF90BF90AF909F907D
:104B00008F907F906F905F904F903F902F900C947C
:104B100049A5F4E08F0E911C0F5F1F4F8F85801306
:104B20006CCF8AEEE82E82E0F82E10E0F50181913C
:104B30009191A191B1915F01F70181939193A1931B
:104B4000B1937F01812F0E947C151F5F133071F795
:104B5000C6D860E08FEE93E02F960FB6F894DEBFD4
:104B60000FBECDBFDF91CF911F910F91FF90EF90BE
:104B7000DF90CF90BF90AF909F908F907F906F907D
:104B80005F904F903F902F900C94D4A42F960FB627
:104B9000F894DEBF0FBECDBFDF91CF911F910F9173
:104BA000FF90EF90DF90CF90BF90AF909F908F904D
:104BB0007F906F905F904F903F902F900895CF938C
:104BC000DF930E9407698823D1F0E4E8F3E1649160
:104BD000EF012196662331F08EEE92E10E948E1154
:104BE000FE01F5CFE4EFF2E06491EF012196662338
:104BF00031F08EEE92E10E948E11FE01F5CFDF9131
:104C0000CF910895CF92DF92EF92FF92CF93DF93EF
:104C10008AE50E94EC12882309F43AC00E94F81237
:104C20006B017C0120E030E040EA50EC0E94DBBDEB
:104C300087FD13C020E030E040EA51E4C701B6012F
:104C40000E9439BC18164CF0C092BE02D092BF022E
:104C5000E092C002F092C1024CC0EAE8F3E1649134
:104C6000EF01219661110EC0E8EDF2E06491EF01D1
:104C70002196662309F43DC08EEE92E10E948E11CA
:104C8000FE01F4CF8EEE92E10E948E11FE01E7CF7D
:104C9000E4E8F3E16491EF012196662331F08EEEB2
:104CA00092E10E948E11FE01F5CFE9ECF2E06491F1
:104CB000EF012196662331F08EEE92E10E948E1173
:104CC000FE01F5CF4091BE025091BF026091C0023B
:104CD0007091C10286EC92E00E9455876AE08EEEE8
:104CE00092E1DF91CF91FF90EF90DF90CF900C9405
:104CF0008E11DF91CF91FF90EF90DF90CF900895CC
:104D0000CF92DF92EF92FF92CF93DF938BE40E94DA
:104D1000EC128823B1F18BE40E94EC128823B1F0ED
:104D20000E94F8126B017C0120E030E0A9010E9492
:104D3000DBBD87FD19C020E030E040E251E4C7014F
:104D4000B6010E9439BC18167CF003C0C12CD12CCE
:104D500076010E949777C0929709D0929809E092C5
:104D60009909F0929A0931C0E7EAF2E06491EF0103
:104D70002196662351F18EEE92E10E948E11FE0182
:104D8000F5CFE4E8F3E16491EF012196662331F079
:104D90008EEE92E10E948E11FE01F5CF40919709AF
:104DA000509198096091990970919A098CE992E063
:104DB0000E9455876AE08EEE92E1DF91CF91FF90DD
:104DC000EF90DF90CF900C948E11DF91CF91FF90F8
:104DD000EF90DF90CF900895CF92DF92EF92FF9205
:104DE0000F931F93CF9383E50E94A112811104C0FA
:104DF0000BEF11E0C0E00EC00E94F8126B017C01C5
:104E0000C0E0B701A6018C2F0E94BC95CF5FC530D2
:104E1000C1F7EECFF80181918F010E94A112882382
:104E200039F00E94F812AB01BC018C2F0E94BC9596
:104E3000CF5FC43079F7CF911F910F91FF90EF9022
:104E4000DF90CF900895CF93DF9383E50E94EC121B
:104E5000882321F00E942F13EB0102C0C0E0D0E0B4
:104E600080E50E94EC12882319F00E944F1301C0C4
:104E70008FEFBE01DF91CF910C94FD95CF93DF931F
:104E8000EAE8F3E16491EF012196662331F08EEEBA
:104E900092E10E948E11FE01F5CFE9E4F3E0649106
:104EA000EF012196662331F08EEE92E10E948E1181
:104EB000FE01F5CFDF91CF9108951F93CF93DF933C
:104EC000182FE4E8F3E16491EF012196662331F0B5
:104ED0008EEE92E10E948E11FE01F5CF64E58EEE1A
:104EE00092E10E948E11412F50E060E070E020E0DE
:104EF0008EEE92E10E94BFB260E28EEE92E10E94DD
:104F00008E11E9E9F7E06491EF012196662331F013
:104F10008EEE92E10E948E11FE01F5CFDF91CF91CE
:104F20001F910895CF93DF93E0918F04F0E0E25555
:104F3000FD4F80818823A1F0E0E9F2E06491EF0168
:104F40002196662331F08EEE92E10E948E11FE01D1
:104F5000F5CF6AE08EEE92E1DF91CF910C948E1145
:104F6000DF91CF910895CF92DF92EF92FF92CF938E
:104F7000DF9320910A01222309F485C0EC01C0903F
:104F8000D202D090D302E090D402F090D502A701D3
:104F90009601688179818A819B810E9439BC87FF53
:104FA00004C0C882D982EA82FB82C090D602D09027
:104FB000D702E090D802F090D902A70196016C8147
:104FC0007D818E819F810E9439BC87FF04C0CC8285
:104FD000DD82EE82FF82C0900B01D0900C01E09048
:104FE0000D01F0900E01A7019601688179818A81F7
:104FF0009B810E94DBBD181624F4C882D982EA8204
:10500000FB82C0900F01D0901001E0901101F09050
:105010001201A70196016C817D818E819F810E9482
:10502000DBBD181624F4CC82DD82EE82FF82C090B4
:10503000DA02D090DB02E090DC02F090DD02A70102
:105040009601688579858A859B850E9439BC87FF92
:1050500004C0C886D986EA86FB86C0901301D0902A
:105060001401E0901501F0901601A70196016885E2
:1050700079858A859B850E94DBBD181624F4C88635
:10508000D986EA86FB86DF91CF91FF90EF90DF9083
:10509000CF900895CF93DF9380E00E948377C2EB97
:1050A000D2E0688379838A839B8381E00E9483773F
:1050B0006C837D838E839F8382E00E9483776887E1
:1050C00079878A879B87DF91CF910895CF93DF936C
:1050D000E1DF6BE58EEE92E10E948E11C2EBD2E031
:1050E000488159816A817B8122E08EEE92E10E94A3
:1050F00028B34C815D816E817F818FEC97E00E94A7
:105100005587488559856A857B858CEC97E00E9498
:1051100055876DE58EEE92E10E948E116AE08EEE6B
:1051200092E1DF91CF910C948E11CF93C82FB2DF13
:1051300082EB92E00E948176CE3F51F48CE0E2EB6C
:10514000F2E0ABEAB4E001900D928A95E1F713C06A
:1051500024E0C29FC0011124FC01E555FB4FDC0196
:10516000AE54BD4F8D919D910D90BC91A02D80832B
:105170009183A283B383CF910895CF939091E9094E
:10518000891789F0C82F0E949777C093E909C11148
:1051900003C08EEFCADF04C08BEA94E00E948176E0
:1051A000CF910C946F13CF91089580E0E6DF85ECEA
:1051B00099E00C94F7AB8F929F92AF92BF92EF92CF
:1051C000FF920F931F93CF93DF9300D000D0CDB702
:1051D000DEB7182F909199049770973079F48FE487
:1051E0000E94EC12882329F00E946013882331F07A
:1051F00097C08FE40E94A112811192C00E949777FC
:1052000080E0BBDF0E942F1781E00E948E6A11119F
:105210001AC088E50E94A112F82E89E50E94A11209
:10522000082F8AE50E94A112E82EF11007C0011193
:1052300011C0811110C0F02E11E00DC0002351F0FB
:10524000F02E182F08C001E0FF24F394EE24E3941D
:1052500011E001C010E080E1EBEAF4E0ABE9B4E07A
:1052600001900D928A95E1F782E50E94EC12882365
:1052700061F00E94F8124B015C0120E030E0A901CE
:105280000E9439BC882369F105C0812C912C80E4EF
:10529000A82EBA2C111104C0F11002C0002391F104
:1052A0008092A3049092A404A092A504B092A604B4
:1052B0002091B3043091B4044091B5045091B604E8
:1052C000C501B4010E94DBBD18165CF419821A8274
:1052D0001B821C82BE016F5F7F4F83EA94E00E94B5
:1052E000F016111105C0F11003C0011106C00AC06B
:1052F00080E00E94BF181123C1F381E00E94BF1813
:10530000111101C0E1100E94191B0E946F130E942D
:10531000916A0E944E1783E080934E010E946F1E97
:105320000F900F900F900F90DF91CF911F910F91E1
:10533000FF90EF90BF90AF909F908F900895CF9384
:10534000DF93C82F0E949777D091E90980E015DF9D
:10535000CC2321F08C2FDF91CF91AFCD1092CF02D3
:105360008D2F0BDFE4E8F3E16491EF0121966623D2
:1053700031F08EEE92E10E948E11FE01F5CF609128
:10538000CF0270E08BEA97E00E9418876AE08EEE09
:1053900092E1DF91CF910C948E110F931F93CF93D5
:1053A000DF93CDB7DEB72C970FB6F894DEBF0FBEF4
:1053B000CDBF83E50E94A112882341F00E946013B3
:1053C000182F811105C080E0D8DE02C01091E909D4
:1053D0008091AB049091AC04A091AD04B091AE0467
:1053E00089839A83AB83BC838091AF049091B0048E
:1053F000A091B104B091B2048D839E83AF83B8872E
:105400008091B3049091B404A091B504B091B60416
:1054100089879A87AB87BC8786E50E94A11288237B
:1054200031F06CE273E085EC99E00E94E4AD812FED
:10543000A4DE111103C0E4E8F3E120C08091E90982
:105440008111F9CFEAE8F3E164918F010F5F1F4FFB
:10545000662331F08EEE92E10E948E11F801F4CFB6
:10546000EDE0F3E064918F010F5F1F4F662319F3A6
:105470008EEE92E10E948E11F801F4CF64918F01BB
:105480000F5F1F4F662331F08EEE92E10E948E1166
:10549000F801F4CF8091E909811103C064EE71E055
:1054A00002C060EE71E08FEF92E00E94F0866AE049
:1054B0008EEE92E10E948E114CE050E06BEA74E0B7
:1054C000CE0101960E94DCC2892B61F02C960FB6AA
:1054D000F894DEBF0FBECDBFDF91CF911F910F912A
:1054E0000C946F1E2C960FB6F894DEBF0FBECDBF86
:1054F000DF91CF911F910F9108950E9419770E941B
:1055000097778EEF12DE0C946F132F923F924F928B
:105510005F926F927F928F929F92AF92BF92CF9243
:10552000DF92EF92FF920F931F93CF93DF93CDB74C
:10553000DEB7A0970FB6F894DEBF0FBECDBF1C013B
:105540007F8F6E8F498F28A3DC018D909D90AD9049
:10555000BC90FB0140805180628073800023A1F0E9
:10556000A3019201C501B4010E940611882309F428
:10557000F5C120E030E040EA51E4C501B4010E94E9
:10558000C1BB4B015C012AC02FE632E143E85AEB74
:10559000C501B4010E94DBBD87FDE0C122E430E01B
:1055A0004AE253E4C501B4010E9439BC18160CF458
:1055B000D5C12FE632E143E85AEBC301B2010E94A4
:1055C000DBBD87FDCBC122E430E04CE553E4C301F1
:1055D000B2010E9439BC18160CF4C0C1E090B304AB
:1055E000F090B4040091B5041091B60480911901B3
:1055F00090911A01A0911B01B0911C018A8F9B8F81
:10560000AC8FBD8F8091010190910201A0910301A7
:10561000B09104018093190190931A01A0931B018A
:10562000B0931C0119821A821B821C82DE01119622
:105630006D01A3019201C501B4010E94131681E01E
:105640000E941E188111E4C08091990482FF11C04C
:105650002091BE023091BF024091C0025091C10220
:1056600060E070E080E090EC0E94C1BB2B013C0147
:1056700006C0412C512C90E2692E91EC792E4D867A
:105680005E866F86788AC12CD12C80E8E82E80E473
:10569000F82EC986DA86EB86FC86BE01675F7F4FEF
:1056A000CE010D960E94F01610914F0910924F09ED
:1056B00082E03BDD0E946F1312FD05C060E070E0E8
:1056C00080EC9FE75EC08090B3049090B404A090FB
:1056D000B504B090B604C982DA82EB82FC8220E085
:1056E00030E040E450E4C501B4010E94C2BB6D83C8
:1056F0007E838F839887BE016F5F7F4FCE010596B3
:105700000E94F0164D825E826F82788680E090E083
:10571000A0E0B0E489839A83AB83BC83BE016F5F52
:105720007F4FCE0105960E94F01610914F091092FE
:105730004F0982E0FADC0E946F1312FFBFCF20E016
:1057400030E040E450E46091B3047091B40480917F
:10575000B5049091B6040E940FBE2B013C01A50137
:105760009401C501B4010E94C2BB9B01AC01C301FD
:10577000B2010E94C2BB2DEC3CEC4CE45EE30E9403
:105780000FBE2091BE023091BF024091C0025091E5
:10579000C1020E94C2BB5B018C01898D82508230A4
:1057A00050F580E090E0A0E8B0E4898B9A8BAB8B59
:1057B000BC8B6091B3047091B4048091B504909156
:1057C000B604B98DB33029F020E030E040E450E475
:1057D00004C020E030E048EC51E40E94C2BB6D8B75
:1057E0007E8B8F8B988FBE016F5E7F4FCE0145966B
:1057F0000E94F01608C0E98DE13029F480E00E9493
:105800001E18811105C0F8A1F33008F46FC008C05C
:1058100098A1933008F4A7C0A12CB12C00EC1FE78D
:10582000EEE7F8E064914F012FEF821A920A6623A7
:1058300031F08EEE92E10E948E11F401F3CF2091AF
:10584000DE023091DF024091E0025091E102D1018D
:105850006D917D918D919C910E94C2BBAB01BC0169
:1058600023E08EEE92E10E9428B3E9E7F8E064912C
:105870004F01BFEF8B1A9B0A662331F08EEE92E147
:105880000E948E11F401F3CF2091E2023091E302E5
:105890004091E4025091E502EE8DFF8D60817181AF
:1058A000828193810E94C2BBAB01BC0123E08EEEDA
:1058B00092E10E9428B3E4E7F8E064914F012FEFF2
:1058C000821A920A662331F08EEE92E10E948E11C6
:1058D000F401F3CF23E0A501B8018EEE92E10E941E
:1058E00028B36AE08EEE92E10E948E118A8D9B8D24
:1058F000AC8DBD8D8093190190931A01A0931B016B
:10590000B0931C019501A801B501C8010E94B4BE65
:10591000882309F439C060E085E698E00E94D4A4A9
:10592000EAE8F3E164914F019FEF891A990A66232F
:1059300031F08EEE92E10E948E11F401F3CFE5E595
:10594000F8E064914F01AFEF8A1A9A0A6623E1F0FA
:105950008EEE92E10E948E11F401F3CFA12CB12CB6
:1059600000EC1FE711C08A8D9B8DAC8DBD8D80939F
:10597000190190931A01A0931B01B0931C01A12C53
:10598000B12C00EC1FE7C7CFB501C801A0960FB638
:10599000F894DEBF0FBECDBFDF91CF911F910F9165
:1059A000FF90EF90DF90CF90BF90AF909F908F903F
:1059B0007F906F905F904F903F902F9008952F921F
:1059C0003F924F925F926F927F928F929F92AF928F
:1059D000BF92CF92DF92EF92FF920F931F93CF93DC
:1059E000DF93CDB7DEB7C558D1090FB6F894DEBF47
:1059F0000FBECDBF41E061E081E00E9467178111D9
:105A00009DC28091E909882379F08FE40E94EC120D
:105A1000882329F00E946013882331F08FC28FE41D
:105A20000E94A11281118AC2C12CD12C760100E002
:105A300010E020E231E440E050E060EA71E4CE01A1
:105A400001960E9497A800E010E020E231E440E0D7
:105A500050E060E273E4CE010D960E9497A800E04A
:105A600010E022E533E440E050E06AEA72E4CE015F
:105A700049960E9497A8F090E9098AE40E94A11231
:105A8000882311F092DB5AC286E50E94EC1288232B
:105A900021F00E942F131B0102C0212C312C25E084
:105AA0002216310480F0E8E6F7E064917F013FEFD1
:105AB000E31AF30A662309F441C28EEE92E10E94D2
:105AC0008E11F701F2CF84E40E94EC12882341F09A
:105AD0000E946013CB57DF4F8883C558D04008C061
