:100000000C9417130C9441130C9441130C9441134A
:100010000C9441130C9441130C9441130C94411310
:100020000C9441130C9441130C9427E00C94A4E01D
:100030000C9441130C9441130C9441130C944113F0
:100040000C9441130C949F8D0C9441130C94411308
:100050000C9441130C9441130C94A0A20C9486DFD1
:100060000C9441130C9441130C9441130C944113C0
:100070000C9441130C9441130C9441130C944113B0
:100080000C9441130C9441130C9441130C944113A0
:100090000C94C5D80C94411315DD41DD63DD63DD9F
:1000A00063DD63DD63DD63DD63DD63DD63DD63DD50
:1000B00063DD63DD59DD51DD49DD63DD63DD63DD76
:1000C00063DD63DD63DD63DD3BDD21DD29DD33DD04
:1000D0004E414E494E495459494E46CDCCCC3D0A2D
:1000E000D7233C17B7D13877CC2B329595E6241F10
:1000F000B14F0A000020410000C84200401C4620C9
:10010000BCBE4CCA1B0E5AAEC59D74446F6E6520B2
:10011000736176696E672066696C652E0A004D32E0
:1001200039002020506C616E6E657242756666659E
:100130007242797465733A20002046726565204DDD
:10014000656D6F72793A2000436F6D70696C6564FC
:100150003A204E6F7620313520323031380A002077
:100160007C20417574686F723A2044722E50686921
:100170006C33440A00323031382D30382D303100A4
:10018000204C61737420557064617465643A20007A
:10019000312E312E390A004D61726C696E00205388
:1001A0006F6674776172652052657365740A00200A
:1001B0005761746368646F672052657365740A00E1
:1001C0002042726F776E206F75742052657365746C
:1001D0000A002045787465726E616C205265736503
:1001E000740A00506F77657255700A0073746172FB
:1001F000740A005072696E7465722068616C74656F
:10020000642E206B696C6C28292063616C6C6564BA
:10021000210A004B494C4C45442E20004B494C4C84
:100220002063617573656420627920746F6F206D3F
:1002300075636820696E6163746976652074696DA1
:1002400065202D2063757272656E7420636F6D6D0D
:10025000616E643A200020746F6F206C6F6E6720AF
:10026000657874727573696F6E2070726576656EED
:100270007465640A0020636F6C642065787472751D
:1002800073696F6E2070726576656E7465640A00BE
:100290006F6B00526573656E643A2000416476614D
:1002A0006E6365204B3D003F4B2076616C75652089
:1002B0006F7574206F662072616E67652028302D1F
:1002C0003130292E0A003A200050726F6265205AA0
:1002D000204F6666736574003F5A206F7574206FF7
:1002E000662072616E676520282D3520746F20327C
:1002F00030290A00454550524F4D204F4B0A0042CD
:100300006564204C6576656C696E6720004661699E
:100310006C656420746F20656E61626C6520426557
:1003200064204C6576656C696E670A0042656420DE
:100330004C6576656C20436F7272656374696F6E8D
:10034000204D61747269783A004E6F206361736565
:10035000206C696768740A0043290A0061626C6551
:100360006420286D696E2074656D702000436F6C89
:10037000642065787472756465732061726520000D
:10038000496E76616C696420657874727564657213
:100390000A0020643A0020693A0020703A00507246
:1003A0006F6265205A204F66667365743A2000209C
:1003B000466C6F773A2000205A00205900580020E0
:1003C000204D61783A2000205A0020590058002022
:1003D000204D696E3A20004F6666004F6E20005334
:1003E0006F667420656E6473746F70733A20004F8B
:1003F000666673657473206170706C69656400452E
:1004000072723A20546F6F206661722100546F6FD0
:10041000206661722066726F6D2072656665726516
:100420006E636520706F696E740A0020540020525C
:1004300000416363656C65726174696F6E3A205048
:10044000004D31343520533C696E6465783E206F31
:100450007574206F662072616E67652028302D31BB
:10046000290A002F2F20003A004361703A005448B7
:1004700045524D414C5F50524F54454354494F4EA5
:10048000004155544F5245504F52545F53445F53AF
:10049000544154555300454D455247454E43595FCD
:1004A00050415253455200434153455F4C494748E0
:1004B000545F4252494748544E45535300544F47A6
:1004C000474C455F4C494748545300534F46545797
:1004D0004152455F504F574552004255494C445F89
:1004E00050455243454E54004C4556454C494E47A5
:1004F0005F44415441005A5F50524F4245004155BC
:10050000544F4C4556454C005052494E545F4A4F4B
:10051000420050524F4752455353004155544F5299
:1005200045504F52545F54454D5000564F4C554D19
:10053000455452494300454550524F4D0053455292
:1005400049414C5F584F4E5F584F4646004649520E
:100550004D574152455F4E414D453A4D61726C6970
:100560006E20312E312E3920284769746875622932
:1005700020534F555243455F434F44455F55524CBE
:100580003A68747470733A2F2F6769746875622EB5
:10059000636F6D2F4D61726C696E4669726D776124
:1005A00072652F4D61726C696E2050524F544F43EB
:1005B0004F4C5F56455253494F4E3A312E30204DE5
:1005C000414348494E455F545950453A4D6F646523
:1005D0006C20332045585452554445525F434F5583
:1005E0004E543A3120555549443A343063653631DA
:1005F00064312D326564302D343533302D3833304D
:10060000342D3535653365656161656266660A005E
:100610004D6F64656C2033204F66662E0020573A7C
:10062000004520436F6F6C696E672E2E2E004520AB
:1006300048656174696E672E2E2E006F6B004D3118
:1006400031332053004B494C4C45442E2000454348
:10065000484F00494E464F004552524F52530044B6
:10066000525952554E00434F4D4D554E49434154FA
:10067000494F4E006F6666004E06530658065F06E9
:10068000660644454255473A0050726F746563747C
:1006900065642050696E0A0000011C1D132FFFFFC6
:1006A000FFFF1E1F12FF18FFFFFF20211124FFFF75
:1006B000FFFFFFFFFF0E10FFFFFF22230DFFFFFFD5
:1006C0000E260F2C272569730025696D2025697377
:1006D000002569682025696D2025697300256964F6
:1006E000202569682025696D2025697300256979B1
:1006F00020256964202569682025696D2025697396
:10070000005072696E742074696D653A20004375FB
:100710007272656E742066696C653A2000456E647D
:100720002066696C65206C6973740A0042656769AC
:100730006E2066696C65206C6973740A004E6F20C8
:100740006D6F76652E00436C69636B20746F207249
:100750006573756D652E2E2E00205A3A20002059A3
:100760003A200042656420583A20000A0A42656433
:10077000204C6576656C20436F7272656374696F97
:100780006E204D61747269783A00202844525952A3
:10079000554E2900473239204175746F20426564F7
:1007A000204C6576656C696E67003F285629657236
:1007B000626F7365206C6576656C20697320696D66
:1007C000706C61757369626C652028302D34292E38
:1007D0000A00536C6565702E2E2E00496E76616C92
:1007E00069642065787472756465720A0041637487
:1007F0006976652045787472756465723A200020C8
:10080000453A00205A3A0020593A00583A002C2024
:10081000002C2000486F6D6520585920666972735E
:10082000740A00486F6D65205859206669727374A8
:10083000005761726E696E673A20486F6D696E6726
:100840002042756D702044697669736F72203C2078
:10085000310A00020204627573793A20706175737F
:10086000656420666F7220696E7075740A00627527
:1008700073793A2070617573656420666F722075B4
:100880007365720A00627573793A2070726F6365DE
:100890007373696E670A0050726F62696E672066D3
:1008A00061696C65640A0050726F62696E672066E8
:1008B00061696C656400205A3A200020593A200092
:1008C00042656420583A2000486F6D6520257325E5
:1008D000732573206669727374002066697273747D
:1008E0000A005A0059005800486F6D6520002049E1
:1008F0006E76616C696420657874727564657220C7
:100900000053442072656164206572726F720A0040
:10091000446F6E65207072696E74696E67206669D7
:100920006C650A004B494C4C45442E200053544FF3
:10093000505045442E20005072696E7465722073C9
:10094000746F707065642064756520746F206572C3
:10095000726F72732E204669782074686520657204
:10096000726F7220616E6420757365204D3939395C
:1009700020746F20726573746172742E2028546520
:100980006D7065726174757265206973207265732C
:1009900065742E20536574206974206166746572D5
:1009A0002072657374617274696E67290A004E6FF4
:1009B00020436865636B73756D2077697468206C7C
:1009C000696E65206E756D6265722C204C61737462
:1009D000204C696E653A20004E6F20436865636B5A
:1009E00073756D2077697468206C696E65206E750B
:1009F0006D6265722C204C617374204C696E653A8F
:100A00002000636865636B73756D206D69736D613C
:100A10007463682C204C617374204C696E653A20B5
:100A2000004C696E65204E756D6265722069732099
:100A30006E6F74204C617374204C696E65204E7526
:100A40006D6265722B312C204C617374204C696E81
:100A5000653A20004D31313000656E717565756500
:100A6000696E67202200FF01FF0000A0400000A087
:100A70004000000040000096430080E34300401720
:100A800044000000000080E34300000000000096E6
:100A9000430080E3430040174400000000000000D2
:100AA00000000000000000484200004842000080B2
:100AB00040000000007C3C3E5E2B3D3F2F5B5D3BD9
:100AC0002C2A225C004D33310043616E6E6F74201E
:100AD000656E746572207375626469723A20006F86
:100AE00070656E206661696C65642C2046696C6572
:100AF0003A20006175746F25692E67006572726F08
:100B0000722077726974696E6720746F2066696CF1
:100B1000650A004E6F74205344207072696E7469C8
:100B20006E670A005344207072696E74696E6720A4
:100B300062797465200044656C6574696F6E206627
:100B400061696C65642C2046696C653A20004669D1
:100B50006C652064656C657465643A0057726974ED
:100B6000696E6720746F2066696C653A20006F704B
:100B7000656E206661696C65642C2046696C653A17
:100B800020006F70656E206661696C65642C20467C
:100B9000696C653A200046696C652073656C656315
:100BA0007465640A002053697A653A200046696CCE
:100BB00065206F70656E65643A20002066696C651B
:100BC0003A2000667265736800646F696E67004E54
:100BD0006F772000454E4420535542524F5554499B
:100BE0004E450A002220706F7300222070617265EA
:100BF0006E743A2200535542524F5554494E452087
:100C000043414C4C207461726765743A22004B4931
:100C10004C4C45442E2000747279696E6720746FC5
:100C20002063616C6C207375622D67636F6465204F
:100C300066696C6573207769746820746F6F206DC6
:100C4000616E79206C6576656C732E204D4158205D
:100C50006C6576656C2069733A004D3234004D3214
:100C6000332025730053442063617264206F6B0A44
:100C7000006F70656E526F6F74206661696C656499
:100C80000A00766F6C756D652E696E6974206661F9
:100C9000696C65640A00534420696E69742066615A
:100CA000696C0A00286E6F2066696C6529004361D3
:100CB0006E6E6F74206F70656E20737562646972FA
:100CC00020003A0A0020286D6D290020204D39307F
:100CD00030204B004C696E65617220416476616E14
:100CE00063653A0A0020204D383531205A005A2DCC
:100CF00050726F6265204F66667365740020440011
:100D000020490020204D33303120500050494420EC
:100D100073657474696E67733A0A00204600204256
:100D20000020480020204D3134352053004D61749F
:100D3000657269616C20686561747570207061729C
:100D4000616D65746572733A0A0020204D3432304B
:100D50002053004175746F20426564204C657665B0
:100D60006C696E673A0A00205A0020590020204D15
:100D7000323036205800486F6D65206F66667365A7
:100D8000743A0A00204500205A00205900205800DB
:100D900020540020530020204D32303520510020B7
:100DA000453C6D61785F655F6A65726B3E002058F7
:100DB0003C6D61785F785F6A65726B3E20593C6D6F
:100DC00061785F795F6A65726B3E205A3C6D61782D
:100DD0005F7A5F6A65726B3E00416476616E63653F
:100DE000643A20513C6D696E5F7365676D656E7422
:100DF0005F74696D655F75733E20533C6D696E5F0E
:100E000066656564726174653E20543C6D696E5F11
:100E100074726176656C5F66656564726174653E67
:100E20000020540020520020204D32303420500049
:100E3000416363656C65726174696F6E2028756EBD
:100E40006974732F7332293A20503C7072696E7442
:100E50005F616363656C3E20523C726574726163CE
:100E6000745F616363656C3E20543C7472617665A7
:100E70006C5F616363656C3E0A00204500205A0088
:100E800020590020204D3230312058004D617869C2
:100E90006D756D20416363656C65726174696F6E19
:100EA0002028756E6974732F7332293A0A00204521
:100EB00000205A0020590020204D323033205800A5
:100EC0004D6178696D756D206665656472617465E4
:100ED000732028756E6974732F73293A0A002045B0
:100EE00000205A0020590020204D3932205800534C
:100EF000746570732070657220756E69743A0A00AB
:100F000020204D3230302044300A0020204D323035
:100F1000302044002044697361626C65640A0046B5
:100F2000696C616D656E742073657474696E677346
:100F30003A0020204D3134392043203B20556E6942
:100F4000747320696E2043656C736975730A0020A1
:100F500020473231202020203B0048617264636FBB
:100F60006465642044656661756C742053657474AF
:100F7000696E6773204C6F616465640A00DC05006C
:100F800000DC050000DC0500001027000000000761
:100F90004300000743000020410000C8410000A0BA
:100FA000420000A0420000A0420000F242290A00D4
:100FB0002062797465733B20637263200020737430
:100FC0006F7265642073657474696E6773207265EF
:100FD00074726965766564202800202863616C63FB
:100FE000756C6174656429210A0020213D2000454B
:100FF0004550524F4D20435243206D69736D6174CB
:101000006368202D202873746F7265642920002086
:1010100053697A653A2000496E6465783A20002069
:101020004D61726C696E3D563535290A002845457B
:1010300050524F4D3D00454550524F4D2076657200
:1010400073696F6E206D69736D6174636820002928
:101050000A002062797465733B2063726320005339
:10106000657474696E67732053746F7265642028A9
:1010700000454550524F4D206461746173697A6533
:10108000206572726F722E0A004572726F7220773D
:10109000726974696E6720746F20454550524F4DD8
:1010A000210A006F70656E0054524947474552450A
:1010B00044003A20007A5F6D696E00795F6D617857
:1010C00000785F6D696E005265706F7274696E674B
:1010D00020656E6473746F70207374617475730A25
:1010E00000456E6473746F70732025632025632040
:1010F000256320256300205A3A0020593A002058E1
:101100003A00656E6473746F7073206869743A2076
:1011100000486F6D696E67206661696C6564005593
:101120006E6B6E6F776E20636F6D6D616E643A20CB
:10113000220020746F6F206C6F6E67206578747268
:101140007573696F6E2070726576656E7465640A7A
:101150000020636F6C6420657874727573696F6EBC
:101160002070726576656E7465640A00FFFDFCFA96
:10117000F8F6F4F2F0EEECEAE9E7E5E3E1E0DEDCD4
:10118000DAD9D7D5D4D2D0CFCDCBCAC8C7C5C3C280
:10119000C0BFBDBCBAB9B7B6B4B3B2B0AFADACAAFC
:1011A000A9A8A6A5A4A2A1A09E9D9C9A999897954E
:1011B000949392908F8E8D8B8A8988878684838280
:1011C00081807F7E7D7B7A79787776757473727192
:1011D000706F6E6D6C6B6A69686766656463626187
:1011E000605F5E5D5C5B5A59585857565554535270
:1011F0005150504F4E4D4C4B4A4A49484746464540
:101200004443424241403F3E3E3D3C3B3B3A3938FD
:101210003837363535343332323130302F2E2E2DAB
:101220002C2B2B2A2929282727262525242323224E
:10123000212120201F1E1E1D1C1C1B1B1A191918E2
:1012400018171616151514131312121111100F0F6B
:101250000E0E0D0D0C0C0B0A0A09090808070706EB
:10126000060505040403030202010000000000015A
:1012700000000001000080005555550000004000AE
:1012800033333300AAAA2A00499224000000200028
:10129000C7711C0099991900D145170055551500C3
:1012A0003BB113002449120011111100000010007D
:1012B0000F0F0F00E3380E0043790D00CCCC0C006B
:1012C000C3300C00E8A20B0064210B00AAAA0A009C
:1012D000703D0A009DD80900427B09009224090054
:1012E000DCD30800888808001042080000000800CD
:1012F000F0C107008787070075500700711C0700C1
:101300003EEB0600A1BC060069900600666606007A
:10131000703E06006118060017F4050074D1050040
:101320005BB00500B29005006272050055550500DE
:1013300078390500B81E0500050505004EEC0400CF
:1013400087D40400A1BD040090A7040049920400C2
:10135000C17D0400EE690400C75604004444040043
:101360005C32040008210400411004000000040065
:101370003FF00300F8E0030026D20300C3C30300DC
:10138000CCB503003AA803000A9B0300388E030083
:10139000C08103009F750300D0690300505E030005
:1013A0001D53030034480300913D03003333030011
:1013B00016290300381F030097150300300C0300A3
:1013C000030303000BFA020049F10200BAE802002D
:1013D0005CE002002DD802002DD0020059C80200A6
:1013E000B0C0020031B90200DAB10200AAAA0200BC
:1013F000A0A30200BC9C0200FA9502005C8F0200D0
:10140000DF88020082820200457C0200277602000B
:1014100027700200436A02007C640200D05E020072
:101420003F590200C85302006563686F3A00457275
:10143000726F723A00205A3A0020593A0020436FE6
:10144000756E7420583A00232C0000B82200005614
:101450001800003A0F0000B8080000B10400007145
:101460000200003E01000024F4D43050C38E20C29C
:10147000A24017828B7011127A910D816CD90AA843
:1014800061E108C7586607615143061E4B5D05C1FF
:1014900045A7041A411104093D98037139310340ED
:1014A00036DB0265339102D4305402802E1D026374
:1014B0002CEE01752AC501B028A001102781018FEB
:1014C0002564012B244B01E0223401AC211F018D46
:1014D000200D01801FFC00841EED00971DDF00B869
:1014E0001CD200E61BC600201BBC00641AB200B26E
:1014F00019A8000A19A0006A189900D11791004094
:10150000178B00B516840031167E00B31579003AAA
:10151000157300C7146F0058146A00EE1366008834
:1015200013630025135E00C7125B006C1257001591
:10153000125400C111510070114F0021114B00D6FF
:101540001049008D1047004610440002104200C0B0
:101550000F4000800F3E00420F3C00060F3B00CBC7
:101560000E3800930E37005C0E3500270E3400F362
:101570000D3200C10D3100900D3000600D2E003293
:101580000D2D00050D2C00D90C2B00AE0C2900856B
:101590000C29005C0C2700350C27000E0C2600E8F7
:1015A0000B2400C40B2400A00B23007D0B23005A46
:1015B0000B2100390B2100180B2000F80A1F00D95D
:1015C0000A1E00BB0A1E009D0A1D00800A1D006342
:1015D0000A1C00470A1B002C0A1B00110A1A00F7FC
:1015E000091A00DD091900C4091900AB0919009294
:1015F0000917007B091800630917004C091600360B
:10160000091600200916000A091500F5081500E062
:10161000081400CC081400B8081400A408140090A2
:101620000813007D0812006B0813005808120046CA
:1016300008120034081100230811001208110001DB
:10164000081100F0071000E0071000D0071000C0DC
:10165000071000B0070F00A107100091070E0083CC
:10166000070F0074070F0065070E0057070E0049AB
:10167000070E003B070D002E070E0020070D00137C
:10168000070D0006070D00F9060C00ED060D00E041
:10169000060C00D4060C00C8060C00BC060C00B0FA
:1016A000060C00A4060B0099060C008D060B0082A8
:1016B000060B0077060B006C060B0061060A00574C
:1016C000060B004C060A0042060A0038060A002EE5
:1016D000060A0024060A001A060A00100609000776
:1016E000060A00FD050900F4050900EB050900E202
:1016F000050900D9050900D0050900C7050900BE84
:10170000050900B5050800AD050800A50509009C00
:10171000050800940508008C050800840508007C75
:10172000050800740508006C050700650508005DE4
:10173000050700560508004E05070047050700404D
:1017400005080038050700310507002A05070023B2
:101750000507001C050600160507000F0507000811
:1017600005060002050700FB040600F5040700EE6D
:10177000040600E8040600E2040700DB040600D5C6
:10178000040600CF040600C9040600C3040600BD19
:10179000040600B7040600B1040500AC040600A668
:1017A000040600A00405009B0406009504050090B3
:1017B0000406008A04050085040500800406007AFA
:1017C00004050075040500700405006B040500663F
:1017D000040500610405005C04050057040500527F
:1017E0000405004D04050048040500430405003EBF
:1017F0000404003A04050035040500300404002CFC
:1018000004050027040400230405001E0404001A34
:1018100004040016040500110404000D040400096A
:101820000405000404040000040400FC030400F8A0
:10183000030400F4030400F0030400EC030400E8D4
:10184000030400E4030400E0030400DC030400D804
:10185000030400D4030400D0030400CC030400C834
:10186000030300C503030024F404D9201BC40C5C4B
:101870000E9804C4095F0265077101F405F900FBC5
:1018800004B30048048700C10369005803550003EE
:10189000034500BE023A008402310053022A0029A7
:1018A00002250004022000E4011C00C8011900AF59
:1018B00001170098011400840113007101100061E8
:1018C00001100051010E0043010D0036010B002BE9
:1018D000010B0020010B00150109000C0109000398
:1018E000010800FB000800F3000800EB000700E41B
:1018F000000600DE000600D8000600D2000600CC7C
:10190000000500C7000500C2000500BD000400B9C5
:10191000000400B5000400B1000400AD000400A9FB
:10192000000400A5000300A20003009F0004009B28
:10193000000300980003009500020093000300904C
:101940000003008D0002008B000300880002008667
:1019500000020084000300810002007F0002007D7D
:101960000002007B0002007900020077000100768F
:101970000002007400020072000100710002006F9A
:101980000002006D0001006C0002006A00010069A5
:1019900000020067000100660001006500010064AC
:1019A0000002006200010061000100600001005FB0
:1019B0000002005D0001005C0001005B0001005AB4
:1019C00000010059000100580001005700010056B5
:1019D00000010055000100540001005300000053B5
:1019E0000001005200010051000100500001004FB1
:1019F0000001004E0000004E0001004D0001004CAF
:101A00000001004B0000004B0001004A00010049AA
:101A100000010048000000480001004700010046A6
:101A200000000046000100450000004500010044A0
:101A3000000100430000004300010042000000429A
:101A40000001004100000041000100400001003F92
:101A50000000003F0001003E0000003E0001003D8C
:101A60000000003D0001003C0000003C0000003C84
:101A70000001003B0000003B0001003A0000003A7A
:101A80000001003900000039000100380000003872
:101A90000000003800010037000000370001003668
:101AA000000000360000003600010035000000355F
:101AB0000000003500010034000000340000003454
:101AC0000001003300000033000000330001003249
:101AD000000000320000003200010031000000313F
:101AE0000000003100010030000000300000003034
:101AF0000001002F0000002F0000002F0000002F29
:101B00000001002E0000002E0000002E0001002D1C
:101B10000000002D0000002D0000002D0001002C11
:101B20000000002C0000002C0000002C0001002B05
:101B30000000002B0000002B0000002B0001002AF9
:101B40000000002A0000002A0000002A00010029ED
:101B500000000029000000290000002900000029E1
:101B600000010028000000280000002800000028D4
:101B700000000028000100270000002700000027C7
:101B800000000027000000270001002600000026BA
:101B900000000026000000260000002600010025AD
:101BA00000000025000000250000002500000025A1
:101BB0000000002500010024000000240000002493
:101BC0000000002400000024000100230000002386
:101BD0000000002300000023000000230000002379
:101BE000000000230001002200000022000000226B
:101BF000000000220000002200000022000100215D
:101C00000000002100000021000000210000002150
:101C10000000002100000021000100200000002041
:101C20000000002000000020000000200000002034
:101C300000000020000000200001001F0000001F25
:101C40000000001F0000001F0000001F0000001F18
:101C50000000001F0001001E0000001E0000001E0A
:101C60000000001E000000290A002028002920454D
:101C70003A0020280029205A3A002028002920591B
:101C80003A0020280020583A00537465707065723D
:101C90002063757272656E742076616C7565732051
:101CA000696E20252028416D7073293A0A00204072
:101CB0003A00202F004D383420582059205A204512
:101CC00000546865726D616C2052756E6177617940
:101CD00000453120544845524D414C2052554E410B
:101CE000574159004B494C4C45442E2000202D2093
:101CF000496E76616C69642065787472756465728A
:101D0000206E756D62657220210A004865617469F4
:101D10006E67206661696C656400453120486561C5
:101D200074696E67206661696C6564004D494E5444
:101D3000454D50207472696767657265640045316E
:101D4000204572723A204D494E54454D50004D4148
:101D50005854454D50207472696767657265640018
:101D60004531204572723A204D415854454D50003E
:101D70006265640A002C2073797374656D20737436
:101D80006F7070656421204865617465725F4944B5
:101D90003A20002CFFFFFFFFFF000101010101239A
:101DA000646566696E652044454641554C545F4BF9
:101DB00064200023646566696E652044454641558C
:101DC0004C545F4B69200023646566696E6520444E
:101DD000454641554C545F4B7020005049442041CA
:101DE00075746F74756E652066696E697368656475
:101DF000212050757420746865206C617374204BC9
:101E0000702C204B6920616E64204B6420636F6EE0
:101E10007374616E74732066726F6D2062656C6F8F
:101E20007720696E746F20436F6E666967757261A3
:101E300074696F6E2E680A00504944204175746FB2
:101E400074756E65206661696C6564212074696DC6
:101E5000656F75740A00546865726D616C20527507
:101E60006E6177617900453120544845524D414CAF
:101E70002052554E415741590048656174696E675B
:101E8000206661696C65640045312048656174694C
:101E90006E67206661696C65640050494420417535
:101EA000746F74756E65206661696C656421205479
:101EB000656D706572617475726520746F6F2068EE
:101EC0006967680A00204B643A2000204B693A2079
:101ED00000204B703A20000A20436C6173736963E1
:101EE00020504944200A002054753A2000204B75A8
:101EF0003A2000206D61783A2000206D696E3A200A
:101F00000020643A200020626961733A2000504941
:101F100044204175746F74756E65207374617274BA
:101F20000A00504944204175746F74756E652066CF
:101F300061696C6564212042616420657874727502
:101F4000646572206E756D6265720A0070012C0105
:101F500090012701B0012201C0011D01F00118010B
:101F60001002130130020E01600209019002040107
:101F7000C002FF000003FA004003F5008003F000F8
:101F8000D003EB002004E6007004E100E004DC0074
:101F90004005D700C005D2004006CD00D006C800DD
:101FA0008007C3003008BE00F008B900C009B400C3
:101FB000B00AAF00B00BAA00D00CA500000EA00024
:101FC000500F9B00C01096005012910000148C001E
:101FD000C0158700B0178200B0197D00D01B7800B3
:101FE000001E730040206E0090226900F0246400FF
:101FF00040275F0090295A00E02B5500102E50001A
:1020000020304B0010324600E033410090353C0058
:102010001037370070383200A0392D00B03A280050
:10202000A03B2300603C1E00103D1900903D1400B1
:10203000103E0F00703E0A00C03E0500003F000049
:10204000403FFBFF803FF6FFC03FF1FF052E2E0013
:102050000452656672657368004D61696E00466979
:102060006C2E204469612E0046696C2E2044696103
:102070002E004520696E206D6D33004F6666004F5F
:102080006E2000416476616E6365204B004164768A
:10209000616E6365204B00436F6E74726F6C00500D
:1020A000726F6265205A204F666673657400436FD5
:1020B0006E74726F6C005049442D44005049442D99
:1020C00044005049442D49005049442D490050498D
:1020D000442D50005049442D500020022046616399
:1020E000740020022046616374002002204D617854
:1020F000002002204D6178002002204D696E0020F2
:1021000002204D696E004175746F74656D70004FEB
:102110006666004F6E200046616E207370656564D0
:102120000046616E207370656564004E6F7A7A6C4C
:1021300065004E6F7A7A6C6500436F6E74726F6CD7
:1021400000526573746F7265206661696C736166B5
:1021500065004C6F61642073657474696E67730009
:1021600053746F72652073657474696E677300448D
:102170007269766520537472656E6774680046698B
:102180006C616D656E74004D6F74696F6E0054659F
:102190006D7065726174757265004D61696E0045A0
:1021A00078747275646572004D6F7665205A004DC3
:1021B0006F76652059004D6F766520580050726526
:1021C00070617265004D6F766520302E316D6D0047
:1021D0004D6F766520316D6D004D6F766520313025
:1021E0006D6D004D6F766520617869730045787478
:1021F0007275646572004D6F7665205A004D6F767A
:10220000652059004D6F76652058004578747275C9
:10221000646572004D6F7665205A004D6F766520BB
:1022200059004D6F7665205800507265686561747D
:1022300020414253005072656865617420504C41E2
:1022400000436F6F6C646F776E0044697361626CFA
:1022500065207374657070657273004D3834004189
:1022600075746F20686F6D6500473238004D6F766A
:10227000652061786973004D61696E0044414320B7
:10228000454550524F4D20577269746500452044B2
:102290007269766572202500452044726976657200
:1022A0002025005A204472697665722025005A2044
:1022B00044726976657220250059204472697665FA
:1022C00072202500592044726976657220250058D5
:1022D0002044726976657220250058204472697620
:1022E0006572202500436F6E74726F6C0050726FC0
:1022F0006265205A204F66667365740050726F6283
:1023000065205A204F666673657400466C6F7700CF
:10231000466C6F770046616E207370656564004699
:10232000616E207370656564004E6F7A7A6C65002B
:102330004E6F7A7A6C650053706565640053706502
:102340006564004D61696E00496E69742E205344C6
:102350002063617264004D3231004E6F205344207F
:1023600063617264004368616E6765205344206353
:10237000617264004D3231005072696E7420667271
:102380006F6D2053440053746F70207072696E74C7
:1023900000526573756D65207072696E74005061CE
:1023A000757365207072696E7400436F6E74726F1E
:1023B0006C00507265706172650054756E650049FD
:1023C0006E666F2073637265656E005072696E741D
:1023D0002061626F72746564004D6F64656C2033B8
:1023E0002052656164792E005072696E74696E675F
:1023F0002E2E2E005072696E7420706175736564A4
:102400000025753A2530327500253032753A253071
:102410003275002020202000202020202020002DA8
:102420002D2D00534400506C6561736520726573F7
:102430006574005052494E5445522048414C544511
:102440004400001C1F11111F00000006191803137F
:102450000C00040E1F041C000000000E1315110ECA
:1024600000001C10181705060500040A0A0A0A11C4
:10247000110E0C12120C00000000001F1511151F88
:10248000000000000000010204040000001C1C0CFD
:102490000404040201000000000004081000000011
:1024A00000002D2D2D2D2D2D007C4D61726C696E3F
:1024B0007C002D2D2D2D2D2D00687474703A2F2F3A
:1024C0006D61726C696E66772E6F726700687474E6
:1024D000703A2F2F6D61726C696E66772E6F72671E
:1024E0000020312E312E3900012902290429082922
:1024F0001029202940298029012C022C012602269E
:10250000042608261026202640268026402C802CD3
:1025100001230223042308231023202340238023A4
:1025200001200220042008201020202040208020AC
:10253000102C202C012F022F042F082F102F202FBA
:10254000402F802F7EFE7EFD7EFB7EF77EEF7EDFBE
:102550007EBF7E7F0001000005261200020000C23F
:10256000254300030000BE250401030904A4251827
:10257000020309048C2516030309047E250C0C03B1
:1025800031003200330034003500000016035500DE
:102590005300420020005300650072006900610092
:1025A0006C00000018035400650065006E007300A5
:1025B00079006400750069006E006F00000004037C
:1025C000090409024300020100C0320904000001AD
:1025D0000202010005240010010524010001042469
:1025E00002060524060001070582030800400904CD
:1025F0000100020A00000007050302400000070571
:1026000084024000001201000202000020C0168374
:10261000047202010203010001C10201803601813E
:1026200036009536FF8B21B3E3D7EAE399361124C0
:102630001FBECFEFD0E2DEBFCDBF12E0A0E0B1E021
:10264000EEEBFEED01E00BBF02C007900D92A83546
:10265000B107D9F723E1A8E5B2E001C01D92A43883
:10266000B207E1F713E1C6E1D3E104C02197FE010F
:102670000E947EE4C131D107C9F70E94A7DC0C9407
:1026800052EF0C9400004F925F926F927F928F9264
:102690009F92AF92BF92CF92DF92EF92FF92CF9331
:1026A0004B015C0169017A0120E030E040EA51E42D
:1026B0000E94A6E42B013C012FE632E143E85AEBED
:1026C0000E94C0E687FD48C021E230E046E953E4BD
:1026D000C301B2010E941EE518160CF43DC02FE69E
:1026E00032E143E85AEBC701B6010E94C0E687FD1C
:1026F00033C021E230E843EE53E4C701B6010E9443
:102700001EE518164CF124EF3DEF4FE951E4C501E9
:10271000B4010E94C0E687FD1FC021E230E041E91C
:1027200053E4C501B4010E941EE51816ACF027EE73
:102730003BEF4FE151E4C701B6010E94C0E687FDBF
:102740000BC0C1E021E230E04EED53E4C701B60119
:102750000E941EE518160CF4C0E08C2FCF91FF905C
:10276000EF90DF90CF90BF90AF909F908F907F9031
:102770006F905F904F900895FB0101900020E9F762
:102780003197AF01461B570BDC01ED91FC910280A4
:10279000F381E02D0994CF93DF931F92CDB7DEB77D
:1027A0006983DC01ED91FC910280F381E02D41E031
:1027B00050E0BE016F5F7F4F09950F90DF91CF9181
:1027C0000895FF920F931F93CF93DF93F82E092F55
:1027D000162FE9E6F4E06491EF012196662329F0D3
:1027E00088E793E1D8DFFE01F6CFEF2DF02F64915B
:1027F000EF012196662329F088E793E1CCDFFE0103
:10280000F6CFE7E6F4E06491EF012196662329F024
:1028100088E793E1C0DFFE01F6CF412F50E060E092
:1028200070E088E793E10E94EEDB6AE088E793E1DD
:10283000DF91CF911F910F91FF90ADCF4F925F929B
:102840006F927F92AF92BF92CF92DF92EF92FF9200
:10285000CF93DF93EB01FC016081718182819381D1
:102860002CE3C22ED12CE12CF12CA70196010E9461
:1028700040E4B62EA72ECA01B901A70196010E9415
:1028800040E46B017C01CA01B90128E130E040E07D
:1028900050E00E9440E42B013C01C9016DE671E06B
:1028A0000E9419E461157105D9F0AF92BF92DF92D1
:1028B000CF925F924F929F938F937F936F938DEE02
:1028C00096E09F938F93DF93CF930E9438EC8DB760
:1028D0009EB70E960FB6F8949EBF0FBE8DBF61C017
:1028E0000097C9F0AF92BF92DF92CF925F924F9262
:1028F0009F938F938DED96E09F938F93DF93CF936C
:102900000E9438ECEDB7FEB73C960FB6F894FEBFC8
:102910000FBEEDBF46C04114510461047104B9F00B
:10292000AF92BF92DF92CF925F924F9281ED96E08D
:102930009F938F93DF93CF930E9438EC8DB79EB710
:102940000A960FB6F8949EBF0FBE8DBF2AC0C11461
:10295000D104E104F104A9F0AF92BF92DF92CF92CB
:1029600089EC96E09F938F93DF93CF930E9438EC8E
:10297000EDB7FEB738960FB6F894FEBF0FBEEDBFA9
:1029800010C0AF92BF9285EC96E09F938F93DF9338
:10299000CF930E9438EC0F900F900F900F900F90F4
:1029A0000F90DF91CF91FF90EF90DF90CF90BF908D
:1029B000AF907F906F905F904F90089581548A31CF
:1029C00008F040C0A82FB0E04091800950918109E3
:1029D000609182097091830904C076956795579537
:1029E00047958A95D2F740FF2DC0E0918B09F09171
:1029F0008C09AA59B64F8C918823E1F0E80FF11D9C
:102A0000808190ED980F9A3080F08E3229F4818188
:102A100080538A3078F409C08D3211F08B3251F432
:102A2000818190ED980F9A3018F49E2F8F2F04C05B
:102A30008E3251F090E080E090938709809388096E
:102A400081E0089580E00895828180538A3090F774
:102A5000ECCFB4DF882341F081E0209187093091E9
:102A60008809232B09F480E008950F931F93CF93D7
:102A70008091870990918809009711F1FC018F01DD
:102A8000C1912C2F2F7DA9F0C53411F0C536B9F7AF
:102A9000F801108260E070E08091870990918809C8
:102AA0000E94A4E7F801C083562F472F382F292F03
:102AB0000BC060E070E0CF911F910F910C94A4E7E0
:102AC00050E040E030E020E0652F742F832F922FFC
:102AD000CF911F910F910895809187099091880956
:102AE000009731F04AE050E060E070E00C940AE9B1
:102AF00060E070E0CB01089580918709909188098A
:102B0000009731F04AE050E060E070E00C9432EA67
:102B100060E070E0CB010895DFDF97FD0AC0DCDFE5
:102B20006F3F71058105910509F02CF4D5DF862FE3
:102B3000089580E008958FEF08958091870990911E
:102B40008809892B31F0E8DF91E0811103C090E022
:102B500001C091E0892F08950F931F93CF93DF93C6
:102B6000CDB7DEB72C970FB6F894DEBF0FBECDBF42
:102B7000EEEBF4E080859185A285B3854481558193
:102B800066817781008111812281338109871A87CB
:102B90002B873C874D835E836F83788789839A83F5
:102BA000AB83BC83AE014F5F5F4FBE016B5F7F4F56
:102BB000CE0109960E940E7B2AEC34E0AE014F5FF5
:102BC0005F4FBE016B5F7F4FCE0109960E94AF89B8
:102BD0002C960FB6F894DEBF0FBECDBFDF91CF911C
:102BE0001F910F9108952F923F924F925F926F9293
:102BF0007F929F92AF92BF92CF92DF92EF92FF921D
:102C00000F931F93CF93DF93CDB7DEB764970FB6C3
:102C1000F894DEBF0FBECDBF2A013B01902EA12E3E
:102C20006901082F10E0F801EA59F54FE491BB243F
:102C3000B3941E160CF4B12CFF24F39420E030E082
:102C4000A901C301B2010E94C0E618160CF0F12CD4
:102C5000000F111F000F111FC80182549B4F1C0150
:102C6000FC01108211821282138276DFF101408210
:102C7000518262827382E090E20220E030E0A9019A
:102C8000692D7A2DC6010E941EE5811108C0F80148
:102C9000EB55F54F85919591A591B49103C0892D80
:102CA0009A2DD601898B9A8BAB8BBC8B8091C604F5
:102CB0009091C704A091C804B091C9044091C20486
:102CC0005091C3046091C4047091C5040091BE0486
:102CD0001091BF042091C0043091C1040D871E875C
:102CE0002F87388B49875A876B877C878D839E8394
:102CF000AF83B88719821A821B821C82AE014B5F98
:102D00005F4FBE01675F7F4FCE010D960E940E7B25
:102D1000CE0101966C018E010F5E1F4F2AEC34E04C
:102D2000AE014B5F5F4FBE01675F7F4F0C960E9405
:102D3000CD880E94AA7CBF100E94A96F64960FB62E
:102D4000F894DEBF0FBECDBFDF91CF911F910F91E1
:102D5000FF90EF90DF90CF90BF90AF909F907F90CB
:102D60006F905F904F903F902F9008956AEC74E0C1
:102D700083E00C94D58A1092A3041092A1041092BF
:102D8000A20408959091A104E92FF0E0E054FD4FD2
:102D900080839F5F943018F49093A10402C0109236
:102DA000A1048091A3048F5F8093A3040895CF931F
:102DB000FC0180818B33A1F08091A304843080F4E6
:102DC000C62FBF018091A10420E6829FC00111247B
:102DD0008F5D9C4F0E9409EC8C2FD4DF81E001C0F5
:102DE00080E0CF910895EF92FF921F93CF93DF93EE
:102DF0007C0160E0DCDF182F8823C9F0E8E2F4E111
:102E00006491EF012196662329F088E793E1C3DC02
:102E1000FE01F6CFB70189E59AE00E94038C62E2D9
:102E200088E793E1B8DC6AE088E793E1B4DC812FBE
:102E3000DF91CF911F91FF90EF900895DF92EF9275
:102E4000FF920F931F93CF93DF93CDB7DEB76E97AB
:102E50000FB6F894DEBF0FBECDBF60911F03709117
:102E600020036115710541F14DE150E0CE0101965D
:102E70007C010E9498EB1E8EF7018F010E191F092D
:102E8000D190DD2019F09AE0D912F7CFF701E00FC9
:102E9000F11F1082C701A7DF882371F0DD20A9F0A0
:102EA0000F5F1F4F80911F0390912003080F191F80
:102EB0001093200300931F0381E020911F033091A2
:102EC0002003232B29F480E003C000E010E0F0CFC2
:102ED0006E960FB6F894DEBF0FBECDBFDF91CF91D7
:102EE0001F910F91FF90EF90DF9008959093200332
:102EF00080931F03A3CFEF92FF920F931F93CF9363
:102F0000DF937C0184E5A5DDD82F882369F104DEF9
:102F1000C82F18162CF5E8E2F4E164918F010F5FD9
:102F20001F4F662329F088E793E135DCF801F5CFE0
:102F30006DE488E793E12FDCA70160E070E020E01A
:102F400088E793E10E9492DB6C2FCC0F770B8EEE1B
:102F500098E00E942B8C6AE088E793E11CDC08C0B3
:102F60008093D402D0E004C08091E2028093D40226
:102F70008D2FDF91CF911F910F91FF90EF900895CA
:102F80000F931F93CF93DF9394E0899FE001112467
:102F90008E010F501D4FFE01E350FD4FDE01A75F74
:102FA000BC4F2D913D914D915C91608171818281E9
:102FB00093810E94A7E4F8016083718382839383E5
:102FC000FE01E756F54F85919591A591B491FE01CB
:102FD000EB51FD4F80839183A283B383FE01E357BE
:102FE000F54F85919591A591B491C55FDE4F88838A
:102FF0009983AA83BB83DF91CF911F910F9108958D
:10300000CF92DF92EF920F931F93CF93DF93CDB7C1
:10301000DEB760970FB6F894DEBF0FBECDBFE0906D
:10302000E202EEEBF4E080859185A285B3854481D0
:1030300055816681778100811181228133810D87DD
:103040001E872F87388B49875A876B877C878D83AC
:103050009E83AF83B88719821A821B821C82AE01BD
:103060004B5F5F4FBE01675F7F4FCE010D960E94A1
:103070000E7BCE0101966C0109E111E02AEC34E0EF
:10308000AE014B5F5F4FBE01675F7F4F0C960E94A2
:10309000CD8860960FB6F894DEBF0FBECDBFDF912E
:1030A000CF911F910F91EF90DF90CF9008954F92A5
:1030B0005F926F927F928F929F92AF92BF92CF92C8
:1030C000DF92EF92FF920F931F93CF93DF93CDB7D1
:1030D000DEB72C970FB6F894DEBF0FBECDBF6D8361
:1030E0007E838F83988729873A874B875C87470140
:1030F000580136018091190190911A01A0911B018C
:10310000B0911C0189839A83AB83BC83D601CD9097
:10311000DD90ED90FC9020E030E0A901C701B60100
:103120000E941EE5811106C0EDEAFAE0C590D59037
:10313000E590F490A50194016091C6047091C704D4
:103140008091C8049091C9040E941EE587FF11C0B8
:10315000C0921901D0921A01E0921B01F0921C0159
:103160008092C6049092C704A092C804B092C90489
:1031700047DFF301408051806280738020E030E0BF
:10318000A901C301B2010E941EE5811108C040904F
:10319000010150900201609003017090040140927F
:1031A000190150921A0160921B0170921C018D81CD
:1031B0009E81AF81B8858093BE049093BF04A09395
:1031C000C004B093C10489859A85AB85BC85809382
:1031D000C2049093C304A093C404B093C50410DF49
:1031E000A50194016091C6047091C7048091C80440
:1031F0009091C9040E94C0E618168CF4C09219017F
:10320000D0921A01E0921B01F0921C018092C60438
:103210009092C704A092C804B092C904F1DE0E9443
:10322000AA7C89819A81AB81BC818093190190939A
:103230001A01A0931B01B0931C012C960FB6F894B1
:10324000DEBF0FBECDBFDF91CF911F910F91FF90D9
:10325000EF90DF90CF90BF90AF909F908F907F9036
:103260006F905F904F900895CF92DF92EF92FF9210
:103270000F931F936B01FC01E080F18002811381A9
:10328000EEEBF4E0248135814681578160817181C4
:10329000828193810CDF1F910F91FF90EF90DF905F
:1032A000CF900895CF92DF92EF92FF920F931F93EA
:1032B0006A01E090C604F090C7040091C804109120
:1032C000C904FB012081318142815381FC0160816D
:1032D000718182819381EBDE1F910F91FF90EF90BE
:1032E000DF90CF9008958091190190911A01A091DB
:1032F0001B01B0911C0180931B0390931C03A093AE
:103300001D03B0931E0380911701909118019093B3
:103310001A038093190384E690E090931801809338
:103320001701089580911B0390911C03A0911D0328
:10333000B0911E038093190190931A01A0931B0171
:10334000B0931C018091190390911A039093180176
:10335000809317010895EF92FF921F93CF93DF930D
:10336000882329F0D091AD04D095D17001C0D0E070
:10337000662341F01091AD0411FB882780F911E01C
:10338000182701C010E0442341F0C091AD04C2FBF6
:10339000882780F9C1E0C82701C0C0E0D11105C06D
:1033A000111103C0CC2309F486C0E8E2F4E1649172
:1033B0007F018FEFE81AF80A662329F088E793E186
:1033C000EAD9F701F4CFE8EEF8E064917F019FEFCE
:1033D000E91AF90A662329F088E793E1DCD9F701B5
:1033E000F4CFDD2371F0E6EEF8E064917F018FEF1A
:1033F000E81AF80A662329F088E793E1CCD9F701A7
:10340000F4CF112371F0E4EEF8E064917F019FEFB7
:10341000E91AF90A662329F088E793E1BCD9F70194
:10342000F4CFC11103C0EAEDF8E00EC0E2EEF8E01F
:1034300064917F018FEFE81AF80A6623A1F388E709
:1034400093E1A9D9F701F4CF64917F019FEFE91AC5
:10345000F90A662329F088E793E19DD9F701F4CFB3
:10346000C11103C046EE51E002C046ED51E011111A
:1034700003C026EE31E002C028ED31E0D11103C0D7
:1034800086EE91E002C08AED91E05F934F933F9307
:103490002F939F938F9388EC98E09F938F931F9225
:1034A0000E94B1B08DB79EB709960FB6F8949EBF33
:1034B0000FBE8DBFC1E08C2FDF91CF911F91FF9088
:1034C000EF900895BF92CF92DF92EF92FF920F9309
:1034D0001F93CF93DF93CDB7DEB728970FB6F8943D
:1034E000DEBF0FBECDBF90916009981709F47AC076
:1034F000B82E882309F453C080E090E0A0EAB0E43D
:103500008D839E83AF83B887C090D002D090D102C4
:10351000E090D202F090D30220E030E0A901C70190
:10352000B6010E941EE587FF0CC0A701960160E06E
:1035300070E080EA90E40E94A6E46D837E838F832E
:10354000988720E030E447E154E46D817E818F81EB
:1035500098850E94C0E6181644F480E090E4A7E144
:10356000B4E48D839E83AF83B8872091C6043091E5
:10357000C7044091C8045091C9046D817E818F8138
:1035800098850E94C0E6181654F419821A821B828C
:103590001C82BE016F5F7F4FCE01059665DE609194
:1035A000BE047091BF048091C0049091C104209129
:1035B000C2043091C3044091C4045091C5041982DF
:1035C0001A821B821C82E090C604F090C70400910E
:1035D000C8041091C904FE0131966F0168DD8B2D7E
:1035E0000E94B46F80E028960FB6F894DEBF0FBE3D
:1035F000CDBFDF91CF911F910F91FF90EF90DF90A2
:10360000CF90BF9008954F925F926F927F928F926A
:103610009F92AF92BF92CF92DF92EF92FF920F9361
:103620001F93CF93C82FE82EF12CF701EA59F54FDD
:10363000B490823021F481E045DF811107C1670138
:10364000CC0CDD1CCC0CDD1CF601EB58F54F459085
:103650005590659074906B2DBB0C770B880B990B74
:103660000E94BDE54B015C0120E030E040EC5FE3EF
:10367000C301B2010E94F4E6A50194010E94F4E6A0
:10368000AB01BC0100E010E098018C2FACDAC23035
:1036900041F0F601E759F54F259135914591549147
:1036A00004C020E030E040E450E4C501B4010E94D1
:1036B000F4E64B015C0120E030E0A9010E941EE528
:1036C000882309F45CC0C23021F000E010E09801CA
:1036D00004C000E010E020E830E4B501A401705817
:1036E0008C2F81DAC23009F439C0F701ED5AF74F57
:1036F000849181111DC0E8E2F4E164917F018FEFB4
:10370000E81AF80A662329F088E793E144D8F7011C
:10371000F4CFE1E3F8E064917F018FEFE81AF80A53
:10372000662329F088E793E136D8F701F4CF8AE0E1
:10373000F601EB55F54F4590559065907490682FC4
:1037400070E080E090E00E94BDE59B01AC01C30108
:10375000B2010E9422E52B013C0105C0412C512CF5
:10376000612C90E4792EA5019401C501B4010E9459
:10377000A7E4AB01BC01930182018C2F34DA81E014
:1037800090E00C2E01C0880F0A94EAF79091AC04E7
:10379000982B9093AC049091AD04892B8093AD0449
:1037A000F601E75FFC4F10821182128213828C2F88
:1037B000E7DBF601EF57F54F85919591A591B4910F
:1037C000F601E254FB4F80839183A283B383C2301E
:1037D000D1F42091D0023091D1024091D202509187
:1037E000D3026091C6047091C7048091C80490917F
:1037F000C9040E94A6E46093C6047093C704809332
:10380000C8049093C904A8D9F601E255FB4FD6012C
:10381000A254BB4F8D919D910D90BC91A02D8083A2
:103820009183A283B383C23089F480E0CF911F914A
:103830000F91FF90EF90DF90CF90BF90AF909F904F
:103840008F907F906F905F904F903CCECF911F9163
:103850000F91FF90EF90DF90CF90BF90AF909F902F
:103860008F907F906F905F904F900895AF92BF922E
:10387000CF92DF92EF92FF920F931F93CF93DF933C
:103880008EEFA82E81E0B82E9EEAE92E94E0F92E64
:103890000EEB14E021EFC22E22E0D22EC0E0D0E0E9
:1038A000F50181915F018AD8882319F1DED8FE01E4
:1038B000EB5EFC4F2081211104C02091E102222304
:1038C00041F0F80120813181428153810E94A7E4B7
:1038D0000AC0C330D10539F0F6012081318142811F
:1038E00053810E94A6E4F7016083718382839383EE
:1038F0000AC0F80180819181A281B381F7018083A0
:103900009183A283B3832196F4E0EF0EF11C0C5F48
:103910001F4F84E0C80ED11CC430D10509F0C0CFC0
:1039200086E497D88823B9F0A0D820E030E0A90138
:103930000E94C0E618167CF498D820E030E040E7FA
:1039400052E40E9422E56093190170931A0180935A
:103950001B0190931C01DF91CF911F910F91FF905C
:10396000EF90DF90CF90BF90AF900895CF92DF920D
:10397000EF92FF920F931F93CF93DF930FB6F894BC
:10398000C0906D13D0906E13E0906F13F090701391
:103990000FBE8091DF02811174C0809100018823E5
:1039A00009F46FC08091BF02882309F46AC0409176
:1039B000BB025091BC026091BD027091BE029701A2
:1039C0008601041B150B260B370B37FD6DC08330AA
:1039D00031F134F481300CF454C0E8E2F4E106C073
:1039E000843009F04EC0E8E2F4E133C06491EF01A5
:1039F0002196662331F088E793E10E94CB13FE0104
:103A0000F5CFE5E8F8E06491EF012196662309F42B
:103A100038C088E793E10E94CB13FE01F4CFE8E2BF
:103A2000F4E16491EF012196662331F088E793E198
:103A30000E94CB13FE01F5CFEEE6F8E06491EF01B2
:103A400021966623F1F088E793E10E94CB13FE01F3
:103A5000F5CF6491EF012196662331F088E793E179
:103A60000E94CB13FE01F5CFE6E5F8E06491EF018B
:103A70002196662331F088E793E10E94CB13FE0183
:103A8000F5CF2091000130E0A8EEB3E00E9487E47A
:103A9000C60ED71EE81EF91EC092BB02D092BC0211
:103AA000E092BD02F092BE02DF91CF911F910F9183
:103AB000FF90EF90DF90CF9008950F931F93CF93D7
:103AC000DF9300D000D0CDB7DEB78091AC04837017
:103AD000833011F160E083E298E00E9437B0E8E2C1
:103AE000F4E164918F010F5F1F4F662331F088E787
:103AF00093E10E94CB13F801F4CFE4E1F8E0649184
:103B00008F010F5F1F4F662309F43DC088E793E1E3
:103B10000E94CB13F801F3CF1FD880E090E0A3E61A
:103B2000B3E48093B2049093B304A093B404B0932D
:103B3000B5048091C6049091C704A091C804B091C7
:103B4000C9048093B6049093B704A093B804B093CB
:103B5000B90480E090E0A2E0B3E48093AE049093D7
:103B6000AF04A093B004B093B10419821A821B82EF
:103B70001C82AE014F5F5F4F62EB74E08EEA94E00F
:103B800091DB82E040DD0F900F900F900F90DF915E
:103B9000CF911F910F910895CF93DF93ECE2F7E05F
:103BA0006491EF012196662331F088E793E10E944A
:103BB000CB13FE01F5CF8FEC94E00E949954EDE118
:103BC000F7E06491EF012196662331F088E793E1F5
:103BD0000E94CB13FE01F5CFDF91CF910895809124
:103BE000D2048823A9F083E50E942915882381F057
:103BF0000E946C15AB01BC0140933D0750933E07FA
:103C000060933F07709340078CE896E00C9424483B
:103C10000895CF93DF9383E40E94DE14882399F004
:103C2000EEE0F7E06491EF012196662331F088E73A
:103C300093E10E94CB13FE01F5CF8FEC94E0DF916E
:103C4000CF910C94DF548FEC94E0DF91CF910C94E2
:103C50000D560F931F93CF93DF93CDB7DEB76997C0
:103C60000FB6F894DEBF0FBECDBF0E941E9C6E8BB8
:103C70007F8B888F998FBE016F5F7F4FCE014696F5
:103C80000E941E1460E0CE0101960E9410B0E8E28E
:103C9000F4E164918F010F5F1F4F662331F088E7D5
:103CA00093E10E94CB13F801F4CFBE016F5F7F4F09
:103CB00081E097E00E94038C6AE088E793E10E942C
:103CC000CB1369960FB6F894DEBF0FBECDBFDF9160
:103CD000CF911F910F910895CF938091D1048111BD
:103CE0000E94AA7C8091D2048823A9F180E50E94D9
:103CF0002915882321F00E949D15C82F04C080E556
:103D00000E94DE14C82F6091890970918A092C2FB6
:103D100041E08FEC94E00E94465883E50E9429150B
:103D2000882381F00E946C15AB01BC0140933D07D4
:103D300050933E0760933F07709340078CE896E0EE
:103D40000E9424488FEC94E00E947855C11103C072
:103D5000CF910C945D9CCF910895CF93DF93EEE2C9
:103D6000F4E16491EF012196662331F088E793E155
:103D70000E94CB13FE01F5CFE9E8F6E06491EF0174
:103D80002196662331F088E793E10E94CB13FE0170
:103D9000F5CFDF91CF91089588E690E0ACD88111FE
:103DA00024C08091CE0483FD20C083E50E942915A4
:103DB0008823C9F00E9435150E948AE57093F3119B
:103DC0006093F21180E00E94949F0E94351520E0DC
:103DD00030E04AEA52E40E941EE5181624F00E94E0
:103DE000C79B0E9471B00C94CF8B0895CF93DF9343
:103DF00089E690E080D8811116C0EBE3F6E064918B
:103E0000EF012196662331F088E793E10E94CB13FE
:103E1000FE01F5CF0E94D3A36AE088E793E1DF912A
:103E2000CF910C94CB13DF91CF910895CF92DF9275
:103E3000EF92FF9283E50E942915882321F10E94C9
:103E40008C158D3308F08CE38093A4110FB6F89491
:103E5000C0906D13D0906E13E0906F13F0907013BC
:103E60000FBE282F30E0A8EEB3E00E9487E4C60E14
:103E7000D71EE81EF91EC092A011D092A111E092A7
:103E8000A211F092A311FF90EF90DF90CF900895D0
:103E900080E50E942915811106C083E50E9429153D
:103EA000882359F005C00E948C1581110CC0F5CFF4
:103EB0000E946C156F3F710510F06FEF70E070930A
:103EC000E4026093E3020895DF92EF92FF920F9372
:103ED0001F93CF93DF9383E50E94DE14882359F06C
:103EE00083E50E942915882319F00E948C1501C0D2
:103EF00080E08093CE04E8E2F4E16491EF01219642
:103F0000662331F088E793E10E94CB13FE01F5CFE1
:103F1000E2E8F6E06491EF012196662331F088E74C
:103F200093E10E94CB13FE01F5CF8091CE0488234C
:103F3000A9F188E7E82E86E0F82E00E010E020E006
:103F40008091CE0490E0002E02C0959587950A944A
:103F5000E2F780FF1AC0DD24D394D20E222329F089
:103F60006CE288E793E10E94CB13F701859194916D
:103F7000FC016491EC012196662331F088E793E11E
:103F80000E94CB13CE01F4CF2D2D0F5F1F4FF2E017
:103F9000EF0EF11C0530110599F60DC0E4E7F6E0CF
:103FA0006491EF012196662331F088E793E10E9446
:103FB000CB13FE01F5CF6AE088E793E1DF91CF9163
:103FC0001F910F91FF90EF90DF900C94CB13CF9344
:103FD000DF9383E50E942915882351F00E948C15F8
:103FE0008D3308F08CE380930001DF91CF91089529
:103FF000E8E2F4E16491EF012196662331F088E76D
:1040000093E10E94CB13FE01F5CF4091000150E0F7
:1040100060E070E08EE396E00E94898C6AE088E7B9
:1040200093E1DF91CF910C94CB13CF93DF9383E592
:104030000E942915882321F00E946C15EB0102C013
:10404000C0E0D0E0DD27C230D105D4F0EEE2F4E1EB
:104050006491EF012196662331F088E793E10E9495
:10406000CB13FE01F5CFE1E4F4E06491EF0121967A
:104070006623C9F188E793E10E94CB13FE01F5CFD7
:1040800088E40E9429158823A9F00E946C156A3AD9
:1040900071053CF0653081E078072CF064E071E058
:1040A00002C06AEA70E0FE01EE0FFF1FE259FD4E0A
:1040B0007183608386E40E9429158823A1F00E9401
:1040C0006C15CC0FDD1FCA59DD4E798368836F3FB5
:1040D000710519F014F06FEF70E077FF02C060E037
:1040E00070E079836883DF91CF9108954F925F925A
:1040F0006F927F92AF92BF92CF92DF92EF92FF9238
:104100000F931F93CF938EEFA82E81E0B82E09E373
:104110001AE0C0E0F50181915F010E94DE1488235E
:1041200009F46DC0C33009F063C00E9435156B01FE
:104130007C0120E030E040EA51E40E941EE587FF68
:104140004EC0A70196016091450A7091460A809180
:10415000470A9091480A0E9422E52B013C019B01ED
:10416000AC016091110A7091120A8091130A90912A
:10417000140A0E94F4E66093110A7093120A809365
:10418000130A9093140AA30192016091550A709149
:10419000560A8091570A9091580A0E94F4E660935B
:1041A000550A7093560A8093570A9093580A609163
:1041B000690A70916A0A80916B0A90916C0A0E9458
:1041C000BBE5A30192010E94F4E60E948FE5609393
:1041D000690A70936A0A80936B0A90936C0AC09282
:1041E000450AD092460AE092470AF092480A07C070
:1041F0000E943515F8016083718382839383CF5FBA
:104200000C5F1F4FC43009F085CFCF911F910F91E4
:10421000FF90EF90DF90CF90BF90AF907F906F9026
:104220005F904F900C94AB8B0F931F93CF93DF93C2
:10423000CEEBD4E001EF12E0F80120813181428120
:104240005381688179818A819B810E94A7E4AB01B7
:10425000BC018BE098E00E94688CF80124813581D4
:10426000468157816C817D818E819F810E94A7E468
:10427000AB01BC0187E098E00E94688CF8012085C2
:10428000318542855385688579858A859B850E941D
:10429000A7E4AB01BC0183E098E00E94688C4C85E8
:1042A0005D856E857F858FEF97E00E94688CDF913A
:1042B000CF911F910F910C94C4994F925F926F927E
:1042C0007F928F929F92AF92BF92CF92DF92EF92A6
:1042D000FF920F931F93CF93DF938EEFC82E81E051
:1042E000D82E99E0E92E93E0F92E00E010E0C0E02E
:1042F000D0E0F60181916F010E942915882309F40D
:104300004DC00E9435154B015C01C33059F0F801D6
:10431000EF50FD4F20813181428153810E94A6E4FC
:104320004B015C01F801E254FB4F20813181428155
:104330005381C501B4010E94A6E42B013C012DEB81
:1043400037E346E855EB0E94C0E687FD0AC02DEB37
:1043500037E346E855E3C301B2010E941EE5181693
:10436000ECF4C33051F48092CA049092CB04A09232
:10437000CC04B092CD04D1E011C0A3019201F701A9
:1043800060817181828193810E94A7E4F70160833B
:104390007183828393838C2F0E94C017CF5FF4E0D8
:1043A000EF0EF11C0C5F1F4FC43009F0A2CFD111EA
:1043B0000E94B616DF91CF911F910F91FF90EF9061
:1043C000DF90CF90BF90AF909F908F907F906F9035
:1043D0005F904F9029CFCF93DF93EDE4F5E06491A8
:1043E000EF012196662331F088E793E10E94CB1319
:1043F000FE01F5CF60E08DE395E00E94E11361E0FE
:1044000086E395E00E94E11361E08BE295E00E9473
:10441000E11361E08BE195E00E94E11360E082E14D
:1044200095E00E94E11361E088E095E00E94E113CD
:1044300061E08EEF94E00E94E11361E086EF94E08A
:104440000E94E11361E088EE94E00E94E11360E0D5
:104450008AED94E00E94E11360E08BEC94E00E940E
:10446000E11360E08DEB94E00E94E11360E087EAE5
:1044700094E00E94E11360E086E994E00E94E11379
:1044800060E081E894E00E94E11361E08EE694E050
:10449000DF91CF910C94E113FF920F931F93CF9371
:1044A000DF93C0918909D0918A0983E0F12C40E023
:1044B0008150D1F09881292F2B7F2134C9F7298190
:1044C0002133B1F7913421F0953421F441E002C059
:1044D000FF24F3949E012E5F3F4FE9012F5F3F4F72
:1044E00098819032D1F3E4CF442371F0E8E2F4E113
:1044F00064918F010F5F1F4F662331F088E793E1CE
:104500000E94CB13F801F4CFFF2071F0E3E6F4E052
:1045100064918F010F5F1F4F662331F088E793E1AD
:104520000E94CB13F801F4CFBE0188E793E10E940B
:10453000BC136AE088E793E1DF91CF911F910F915F
:10454000FF900C94CB13CF9388EC90E00E947B17E4
:10455000811140C084E40E94DE148823C1F10E94CE
:104560003515C1E020E030E0A9010E941EE581116F
:1045700001C0C0E0C0938D09CC2349F10E943515DC
:10458000E091D40224E0E29FF0011124EF5FF54FA7
:10459000608371838283938320E030E0A90160917E
:1045A000010A7091020A8091030A9091040A0E9404
:1045B0001EE581110CC080E090E0A0EEBFE3809387
:1045C000010A9093020AA093030AB093040ACF91C0
:1045D0000C94A97ACF910895CF9383E50E94291571
:1045E0008823A1F00E9435156093210A7093220A56
:1045F0008093230A9093240A6093190A70931A0AED
:1046000080931B0A90931C0AC0E001C0C1E080E5C2
:104610000E942915882359F00E9435156093210ABC
:104620007093220A8093230A9093240AC0E082E5C3
:104630000E942915882359F00E94351560931D0AA0
:1046400070931E0A80931F0A9093200AC0E084E5AD
:104650000E942915882359F00E9435156093190A84
:1046600070931A0A80931B0A90931C0A2CC0CC23C7
:1046700051F14091210A5091220A6091230A7091D0
:10468000240A81E394E00E94688C40911D0A5091B5
:104690001E0A60911F0A7091200A8EE294E00E9427
:1046A000688C4091190A50911A0A60911B0A709106
:1046B0001C0A8BE294E00E94688C6AE088E793E130
:1046C000CF910C94CB13CF91089581E50E94DE1415
:1046D000882351F00E947C156093590A70935A0AFE
:1046E00080935B0A90935C0A83E50E94DE14882322
:1046F00051F00E9435156093250A7093260A809325
:10470000270A9093280A84E50E94DE14882351F03A
:104710000E9435156093150A7093160A8093170A44
:104720009093180A88E50E94DE14882351F00E94B5
:1047300035156093050A7093060A8093070A9093D3
:10474000080A89E50E94DE14882351F00E9435157D
:104750006093090A70930A0A80930B0A90930C0ADB
:104760008AE50E94DE14882351F00E94351560937B
:104770000D0A70930E0A80930F0A9093100A85E435
:104780000E94DE14882351F00E9435156093110AAF
:104790007093120A8093130A9093140A0895EF926B
:1047A000FF920F931F93CF938EEFE82E81E0F82EA8
:1047B0000DEF12E0C0E0F70181917F010E94DE144D
:1047C000882351F00E943515F8016083718382833C
:1047D00093838C2F0E94C017CF5F0C5F1F4FC33095
:1047E00051F7CF911F910F91FF90EF901DCDCF9377
:1047F000DF93E8E2F4E16491EF012196662331F062
:1048000088E793E10E94CB13FE01F5CF83E50E9478
:10481000DE14882321F00E949D1580930A01EFED9C
:10482000F3E06491EF012196662331F088E793E18C
:104830000E94CB13FE01F5CF80910A01811103C0C4
:10484000E7EDF3E002C0EBEDF3E06491EF012196B8
:10485000662331F088E793E10E94CB13FE01F5CF88
:10486000EFECF3E06491EF012196662331F088E7E5
:1048700093E10E94CB13FE01F5CF2091F10230911C
:10488000F2024091F3025091F4026091E5027091BE
:10489000E6028091E7029091E8020E94A7E4AB0152
:1048A000BC018DEC93E00E94688C2091F502309160
:1048B000F6024091F7025091F8026091E90270917E
:1048C000EA028091EB029091EC020E94A7E4AB0116
:1048D000BC018AEC93E00E94688C2091F90230912F
:1048E000FA024091FB025091FC026091ED0270913E
:1048F000EE028091EF029091F0020E94A7E4AB01DA
:10490000BC0187EC93E00E94688CEFEBF3E06491CC
:10491000EF012196662331F088E793E10E94CB13E3
:10492000FE01F5CF2091F1023091F2024091F302A5
:104930005091F40260910B0170910C0180910D0176
:1049400090910E010E94A7E4AB01BC018DEB93E0B6
:104950000E94688C2091F5023091F6024091F70296
:104960005091F80260910F01709110018091110136
:10497000909112010E94A7E4AB01BC018AEB93E085
:104980000E94688C2091F9023091FA024091FB025A
:104990005091FC02609113017091140180911501F6
:1049A000909116010E94A7E4AB01BC0187EB93E054
:1049B0000E94688C6AE088E793E1DF91CF910C94C4
:1049C000CB130F931F93CF93DF938DED90E00E9455
:1049D0007B17811170C083E50E9429158823B9F1E6
:1049E000C091D402D0E00E946C15CC0FDD1FC25DD7
:1049F000DE4F798368838091D40290E0EC01CC0F84
:104A0000DD1FCC0FDD1F8E01065D1E4F880F991F25
:104A1000FC01E25DFE4F60817181072E000C880B66
:104A2000990B0E94BDE52AE037ED43E25CE30E946A
:104A3000F4E6C350D64F288139814A815B810E94B8
:104A4000F4E6F801608371838283938334C0E8E2E3
:104A5000F4E16491EF012196662331F088E793E158
:104A60000E94CB13FE01F5CF65E488E793E10E9435
:104A7000CB136091D402605D88E793E10E94CB1371
:104A8000E091D402F0E0EE0FFF1FE25DFE4F608187
:104A900071818FEA93E00E942B8C65E288E793E1B5
:104AA0000E94CB136AE088E793E1DF91CF911F91D9
:104AB0000F910C94CB13DF91CF911F910F9108951B
:104AC000CF92DF92EF92FF92CF93DF938AE50E941D
:104AD0002915811106C083E50E942915882309F450
:104AE00081C00E94351520E030E040E050EC0E948B
:104AF0001EE587FD15C00E94351520E030E040E03E
:104B000050E40E94C0E618162CF00E9435156B0187
:104B10007C010BC0C12CD12CE12C90E4F92E05C0F6
:104B2000C12CD12CE12C80ECF82E2091410A30913F
:104B3000420A4091430A5091440A8091AC0482FF9A
:104B400010C0C091E411D091E511C701B6010E94D7
:104B5000F4E60E948AE5C60FD71FD093E511C093F3
:104B6000E41180E50E94DE14882321F00E949D1547
:104B70008823C1F1A70196016091D0027091D10202
:104B80008091D2029091D3020E94A7E46093D00258
:104B90007093D1028093D2029093D302E8E2F4E1C1
:104BA0006491EF012196662331F088E793E10E943A
:104BB000CB13FE01F5CF4091D0025091D10260910C
:104BC000D2027091D3028EE993E00E94688C6AE071
:104BD00088E793E1DF91CF91FF90EF90DF90CF9046
:104BE0000C94CB13DF91CF91FF90EF90DF90CF909B
:104BF0000895CF93DF9385E40E942915811110C099
:104C000080E50E94DE14882391F00E9435156093A0
:104C1000EE117093EF118093F0119093F11107C092
:104C20000E948C15882361F3EEE2F4E172C089E4FE
:104C30000E94DE14882381F00E9435152CEA35ECA1
:104C400047E25EE30E94F4E66093EA117093EB1191
:104C50008093EC119093ED1184E40E94DE1488237C
:104C600081F00E9435152CEA35EC47E25EE30E94A4
:104C700022E56093E6117093E7118093E811909319
:104C8000E911E8E2F4E16491EF012196662331F045
:104C900088E793E10E94CB13FE01F5CF4091EE111E
:104CA0005091EF116091F0117091F1118AE993E048
:104CB0000E94688C2CEA35EC47E25EE36091EA11D1
:104CC0007091EB118091EC119091ED110E9422E511
:104CD000AB01BC0186E993E00E94688C2CEA35ECBC
:104CE00047E25EE36091E6117091E7118091E8116F
:104CF0009091E9110E94F4E6AB01BC0182E993E0D6
:104D00000E94688C6AE088E793E1DF91CF910C9470
:104D1000CB136491EF012196662331F088E793E18C
:104D20000E94CB13FE01F5CFE0E8F3E06491EF01C0
:104D30002196662331F088E793E10E94CB13FE01B0
:104D4000F5CFDF91CF910895CF93DF9383E50E9454
:104D5000DE14C82F882371F00E9435150E948AE561
:104D600070934D0160934C0121E0672B09F020E026
:104D70002093D91180E50E94DE14882359F02091F8
:104D80004C0130914D01232B11F00E949D15809311
:104D9000D91131C0C1112FC0E8E2F4E16491EF01F3
:104DA0002196662331F088E793E10E94CB13FE0140
:104DB000F5CF8091D911811103C06FED71E002C070
:104DC0006CED71E08DE693E00E94038C60914C01E4
:104DD00070914D018CE593E00E942B8CE8E5F3E0A7
:104DE0006491EF012196662331F088E793E10E94F8
:104DF000CB13FE01F5CFDF91CF9108958F929F9253
:104E0000AF92BF92EF92FF920F931F93CF93DF93D6
:104E100000D000D0CDB7DEB785E40E9429158823E5
:104E200021F00E946C158B0102C000E010E083E4C9
:104E30000E942915882321F00E946C15F62E02C0CD
:104E400025E0F22E85E50E942915882321F00E9495
:104E50009D15E82E04C085E50E94DE14E82E17FD9E
:104E600007C0812C912C96E1A92E93E4B92E06C09F
:104E7000812C912C8CE8A82E82E4B82E83E50E9428
:104E80002915882321F00E9435154B015C01C501CD
:104E9000B4010E948AE50115110511F41092D402A3
:104EA000072E000C880B990B0E94BDE569837A835D
:104EB0008B839C832E2D4F2D602FCE0101960E9457
:104EC00026A40F900F900F900F90DF91CF911F911C
:104ED0000F91FF90EF90BF90AF909F908F900895AB
:104EE0002F923F924F925F926F927F928F929F92FA
:104EF000AF92BF92CF92DF92EF92FF920F931F93E8
:104F0000CF93DF93CDB7DEB72F970FB6F894DEBF00
:104F10000FBECDBF41E061E081E00E94AB1981117D
:104F2000DAC091E8892E9AE0992E8EEB94E09E8764
:104F30008D87FE0131965F0106E61AE01F01F3E05E
:104F4000F00FFF87F4016591759185919491ED853E
:104F5000FE85C190D190E190F190FE87ED87A70189
:104F600096010E94A6E42B013C0120E030E040EADB
:104F700051EC0E94C0E687FD10C020E030E040EA1E
:104F800051E4C301B2010E941EE5181634F0F1018C
:104F900040825182628273820DC0F801849118169A
:104FA000B4F7F7FAF094F7F8F094F101C082D182E7
:104FB000E282F382F101C190D190E190F1901F0162
:104FC00020E030E040EA51ECC701B6010E94C0E6A3
:104FD00087FF03C0EEE2F4E10BC020E030E040EADE
:104FE00051E4C701B6010E941EE51816BCF5F2CFC8
:104FF00064918F010F5F1F4F662331F088E793E1C3
:105000000E94CB13F801F4CFEDE0F4E064918F013E
:105010000F5F1F4F662331F088E793E10E94CB13A7
:10502000F801F4CF8FEF93E02F960FB6F894DEBF20
:105030000FBECDBFDF91CF911F910F91FF90EF90E9
:10504000DF90CF90BF90AF909F908F907F906F90A8
:105050005F904F903F902F900C94CDB0F4E08F0E66
:10506000911C0F5F1F4F8F8580136CCF8DEFE82E43
:1050700082E0F82E10E0F50181919191A191B1911A
:105080005F01F70181939193A193B1937F01812FE8
:105090000E94C0171F5F133071F7C6D860E08FEE13
:1050A00093E02F960FB6F894DEBF0FBECDBFDF9111
:1050B000CF911F910F91FF90EF90DF90CF90BF9015
:1050C000AF909F908F907F906F905F904F903F90A8
:1050D0002F900C9437B02F960FB6F894DEBF0FBE0A
:1050E000CDBFDF91CF911F910F91FF90EF90DF9097
:1050F000CF90BF90AF909F908F907F906F905F9078
:105100004F903F902F900895CF93DF930E941A6E97
:105110008823D1F0E8E2F4E16491EF01219666235F
:1051200031F088E793E10E94CB13FE01F5CFE4EF65
:10513000F2E06491EF012196662331F088E793E174
:105140000E94CB13FE01F5CFDF91CF910895CF924E
:10515000DF92EF92FF92CF93DF938AE50E942915A9
:10516000882309F43AC00E9435156B017C0120E0C8
:1051700030E040EA50EC0E94C0E687FD13C020E01A
:1051800030E040EA51E4C701B6010E941EE518165E
:105190004CF0C092D002D092D102E092D202F092B2
:1051A000D3024CC0EEE2F4E16491EF01219661116B
:1051B0000EC0E8EDF2E06491EF012196662309F458
:1051C0003DC088E793E10E94CB13FE01F4CF88E74E
:1051D00093E10E94CB13FE01E7CFE8E2F4E1649192
:1051E000EF012196662331F088E793E10E94CB130B
:1051F000FE01F5CFE9ECF2E06491EF012196662320
:1052000031F088E793E10E94CB13FE01F5CF409186
:10521000D0025091D1026091D2027091D30286ECFB
:1052200092E00E94688C6AE088E793E1DF91CF9179
:10523000FF90EF90DF90CF900C94CB13DF91CF9144
:10524000FF90EF90DF90CF900895CF92DF92EF9292
:10525000FF92CF93DF938BE40E9429158823B1F14D
:105260008BE40E9429158823B1F00E9435156B014B
:105270007C0120E030E0A9010E94C0E687FD19C052
:1052800020E030E040E251E4C701B6010E941EE593
:1052900018167CF003C0C12CD12C76010E94AA7C88
:1052A000C092AA09D092AB09E092AC09F092AD0984
:1052B00031C0E7EAF2E06491EF012196662351F1F3
:1052C00088E793E10E94CB13FE01F5CFE8E2F4E119
:1052D0006491EF012196662331F088E793E10E9403
:1052E000CB13FE01F5CF4091AA095091AB09609113
:1052F000AC097091AD098CE992E00E94688C6AE07B
:1053000088E793E1DF91CF91FF90EF90DF90CF900E
:105310000C94CB13DF91CF91FF90EF90DF90CF9063
:105320000895CF92DF92EF92FF920F931F93CF9346
:1053300083E50E94DE14811104C00EEF11E0C0E08D
:105340000EC00E9435156B017C01C0E0B701A601BB
:105350008C2F0E94CF9ACF5FC530C1F7EECFF801F6
:1053600081918F010E94DE14882339F00E94351547
:10537000AB01BC018C2F0E94CF9ACF5FC43079F76C
:10538000CF911F910F91FF90EF90DF90CF900895F4
:10539000CF93DF9383E50E942915882321F00E9493
:1053A0006C15EB0102C0C0E0D0E080E50E94291539
:1053B000882319F00E948C1501C08FEFBE01DF9188
:1053C000CF910C94109BCF93DF93EEE2F4E16491C4
:1053D000EF012196662331F088E793E10E94CB1319
:1053E000FE01F5CFE9E4F3E06491EF012196662335
:1053F00031F088E793E10E94CB13FE01F5CFDF91F6
:10540000CF9108951F93CF93DF93182FE8E2F4E133
:105410006491EF012196662331F088E793E10E94C1
:10542000CB13FE01F5CF64E588E793E10E94CB132F
:10543000412F50E060E070E020E088E793E10E94B7
:1054400092DB60E288E793E10E94CB13EBEDF7E09B
:105450006491EF012196662331F088E793E10E9481
:10546000CB13FE01F5CFDF91CF911F910895CF931C
:10547000DF93E091A204F0E0E054FD4F80818823A7
:10548000A1F0E0E9F2E06491EF012196662331F0AA
:1054900088E793E10E94CB13FE01F5CF6AE088E72D
:1054A00093E1DF91CF910C94CB13DF91CF910895CD
:1054B000CF92DF92EF92FF92CF93DF9320910A0178
:1054C000222309F485C0EC01C090E502D090E602E9
:1054D000E090E702F090E802A701960168817981E7
:1054E0008A819B810E941EE587FF04C0C882D98201
:1054F000EA82FB82C090E902D090EA02E090EB02DF
:10550000F090EC02A70196016C817D818E819F81D4
:105510000E941EE587FF04C0CC82DD82EE82FF82FE
:10552000C0900B01D0900C01E0900D01F0900E01A5
:10553000A7019601688179818A819B810E94C0E6DA
:10554000181624F4C882D982EA82FB82C0900F0127
:10555000D0901001E0901101F0901201A701960186
:105560006C817D818E819F810E94C0E6181624F493
:10557000CC82DD82EE82FF82C090ED02D090EE02FE
:10558000E090EF02F090F002A7019601688579851E
:105590008A859B850E941EE587FF04C0C886D98640
:1055A000EA86FB86C0901301D0901401E0901501AB
:1055B000F0901601A7019601688579858A859B85FB
:1055C0000E94C0E6181624F4C886D986EA86FB86AF
:1055D000DF91CF91FF90EF90DF90CF900895CF9320
:1055E000DF9380E00E94967CC4ECD2E068837983EC
:1055F0008A839B8381E00E94967C6C837D838E836B
:105600009F8382E00E94967C688779878A879B8740
:10561000DF91CF910895CF93DF93E1DF6BE588E7CA
:1056200093E10E94CB13C4ECD2E0488159816A8196
:105630007B8122E088E793E10E94FBDB4C815D8166
:105640006E817F8181E198E00E94688C4885598550
:105650006A857B858EE098E00E94688C6DE588E71E
:1056600093E10E94CB136AE088E793E1DF91CF9149
:105670000C94CB13CF93C82FB2DF84EC92E00E943E
:10568000947BCE3F51F48CE0E4ECF2E0AEEBB4E07E
:1056900001900D928A95E1F713C024E0C29FC001EA
:1056A0001124FC01E254FB4FDC01AC53BD4F8D9142
:1056B0009D910D90BC91A02D80839183A283B38393
:1056C000CF910895CF939091FC09891789F0C82F45
:1056D0000E94AA7CC093FC09C11103C08EEFCADFEF
:1056E00004C08EEB94E00E94947BCF910C94AC1597
:1056F000CF91089580E0E6DF88ED99E00C94CAD45C
:105700008F929F92AF92BF92EF92FF920F931F934F
:10571000CF93DF9300D000D0CDB7DEB7182F909194
:10572000AC049770973079F48FE40E942915882390
:1057300029F00E949D15882331F097C08FE40E94C4
:10574000DE14811192C00E94AA7C80E0BBDF0E941F
:10575000731981E00E94A16F11111AC088E50E949F
:10576000DE14F82E89E50E94DE14082F8AE50E94D7
:10577000DE14E82EF11007C0011111C0811110C014
:10578000F02E11E00DC0002351F0F02E182F08C0AC
:1057900001E0FF24F394EE24E39411E001C010E053
:1057A00080E1EEEBF4E0AEEAB4E001900D928A9570
:1057B000E1F782E50E942915882361F00E943515E2
:1057C0004B015C0120E030E0A9010E941EE5882326
:1057D00069F105C0812C912C80E4A82EBA2C1111FE
:1057E00004C0F11002C0002391F18092B60490929F
:1057F000B704A092B804B092B9042091C6043091C5
:10580000C7044091C8045091C904C501B4010E9465
:10581000C0E618165CF419821A821B821C82BE0133
:105820006F5F7F4F86EB94E00E943419111105C021
:10583000F11003C0011106C00AC080E00E94031BE2
:105840001123C1F381E00E94031B111101C0E1107B
:105850000E945D1D0E94AC150E94A46F0E949219C7
:1058600083E0809351010E9414210F900F900F90BC
:105870000F90DF91CF911F910F91FF90EF90BF900C
:10588000AF909F908F900895CF93DF93C82F0E9481
:10589000AA7CD091FC0980E015DFCC2321F08C2F6D
:1058A000DF91CF91AFCD1092E2028D2F0BDFE8E2B6
:1058B000F4E16491EF012196662331F088E793E1EA
:1058C0000E94CB13FE01F5CF6091E20270E08DEEF5
:1058D00097E00E942B8C6AE088E793E1DF91CF91FB
:1058E0000C94CB130F931F93CF93DF93CDB7DEB7F9
:1058F0002C970FB6F894DEBF0FBECDBF83E50E9494
:10590000DE14882341F00E949D15182F811105C0D7
:1059100080E0D8DE02C01091FC098091BE04909115
:10592000BF04A091C004B091C10489839A83AB8362
:10593000BC838091C2049091C304A091C404B0912F
:10594000C5048D839E83AF83B8878091C6049091F0
:10595000C704A091C804B091C90489879A87AB870E
:10596000BC8786E50E94DE14882331F06CE273E088
:1059700088ED99E00E94B7D6812FA4DE111103C0F3
:10598000E8E2F4E120C08091FC098111F9CFEEE258
:10599000F4E164918F010F5F1F4F662331F088E7B8
:1059A00093E10E94CB13F801F4CFEDE0F3E06491B2
:1059B0008F010F5F1F4F662319F388E793E10E9461
:1059C000CB13F801F4CF64918F010F5F1F4F662353
:1059D00031F088E793E10E94CB13F801F4CF809176
:1059E000FC09811103C067EE71E002C063EE71E053
:1059F0008FEF92E00E94038C6AE088E793E10E94B7
:105A0000CB134CE050E06EEB74E0CE0101960E94A7
:105A1000C1EB892B61F02C960FB6F894DEBF0FBE58
:105A2000CDBFDF91CF911F910F910C9414212C9633
:105A30000FB6F894DEBF0FBECDBFDF91CF911F919F
:105A40000F9108950E942C7C0E94AA7C8EEF12DE9A
:105A50000C94AC152F923F924F925F926F927F926F
:105A60008F929F92AF92BF92CF92DF92EF92FF926E
:105A70000F931F93CF93DF93CDB7DEB7A0970FB6E9
:105A8000F894DEBF0FBECDBF1C017F8F6E8F498F94
:105A900028A3DC018D909D90AD90BC90FB014080CF
:105AA0005180628073800023A1F0A3019201C5019F
:105AB000B4010E944313882309F4F5C120E030E0CB
:105AC00040EA51E4C501B4010E94A6E44B015C0127
:105AD0002AC02FE632E143E85AEBC501B4010E9427
